{
    "contractName": "hospital",
    "abi": [
        {
            "inputs": [
                {
                    "internalType": "string",
                    "name": "qualification",
                    "type": "string"
                },
                {
                    "internalType": "address",
                    "name": "AccAddress",
                    "type": "address"
                },
                {
                    "internalType": "string",
                    "name": "dob",
                    "type": "string"
                },
                {
                    "internalType": "string",
                    "name": "sex",
                    "type": "string"
                },
                {
                    "internalType": "string",
                    "name": "martial_status",
                    "type": "string"
                },
                {
                    "internalType": "string",
                    "name": "_firstName",
                    "type": "string"
                },
                {
                    "internalType": "string",
                    "name": "_lastName",
                    "type": "string"
                },
                {
                    "internalType": "string",
                    "name": "emergency_num",
                    "type": "string"
                },
                {
                    "internalType": "string",
                    "name": "contact_num",
                    "type": "string"
                },
                {
                    "internalType": "string",
                    "name": "_Address",
                    "type": "string"
                },
                {
                    "internalType": "string",
                    "name": "email",
                    "type": "string"
                }
            ],
            "name": "Add_Doctor",
            "outputs": [],
            "stateMutability": "nonpayable",
            "type": "function"
        },
        {
            "inputs": [
                {
                    "internalType": "uint256",
                    "name": "",
                    "type": "uint256"
                }
            ],
            "name": "Appointments",
            "outputs": [
                {
                    "internalType": "uint256",
                    "name": "_id",
                    "type": "uint256"
                },
                {
                    "internalType": "string",
                    "name": "Doctor_name",
                    "type": "string"
                },
                {
                    "internalType": "string",
                    "name": "Patient_name",
                    "type": "string"
                },
                {
                    "internalType": "string",
                    "name": "doc_email",
                    "type": "string"
                },
                {
                    "internalType": "string",
                    "name": "patient_email",
                    "type": "string"
                },
                {
                    "internalType": "string",
                    "name": "Appointment_time",
                    "type": "string"
                },
                {
                    "internalType": "string",
                    "name": "Appointment_reason",
                    "type": "string"
                }
            ],
            "stateMutability": "view",
            "type": "function"
        },
        {
            "inputs": [
                {
                    "internalType": "uint256",
                    "name": "",
                    "type": "uint256"
                }
            ],
            "name": "Doctors",
            "outputs": [
                {
                    "internalType": "uint256",
                    "name": "doc_id",
                    "type": "uint256"
                },
                {
                    "internalType": "string",
                    "name": "_firstName",
                    "type": "string"
                },
                {
                    "internalType": "string",
                    "name": "_lastName",
                    "type": "string"
                },
                {
                    "internalType": "string",
                    "name": "Contact_number",
                    "type": "string"
                },
                {
                    "internalType": "string",
                    "name": "Emergency_number",
                    "type": "string"
                },
                {
                    "internalType": "string",
                    "name": "_address",
                    "type": "string"
                },
                {
                    "internalType": "string",
                    "name": "email",
                    "type": "string"
                },
                {
                    "internalType": "string",
                    "name": "dob",
                    "type": "string"
                },
                {
                    "internalType": "string",
                    "name": "martial_status",
                    "type": "string"
                },
                {
                    "internalType": "string",
                    "name": "sex",
                    "type": "string"
                },
                {
                    "internalType": "string",
                    "name": "qualification",
                    "type": "string"
                },
                {
                    "internalType": "address",
                    "name": "AccountAddress",
                    "type": "address"
                }
            ],
            "stateMutability": "view",
            "type": "function"
        },
        {
            "inputs": [
                {
                    "internalType": "string",
                    "name": "doc_name",
                    "type": "string"
                },
                {
                    "internalType": "string",
                    "name": "patient_name",
                    "type": "string"
                },
                {
                    "internalType": "string",
                    "name": "Appoint_time",
                    "type": "string"
                },
                {
                    "internalType": "string",
                    "name": "reason",
                    "type": "string"
                },
                {
                    "internalType": "string",
                    "name": "doc_email",
                    "type": "string"
                },
                {
                    "internalType": "string",
                    "name": "patient_email",
                    "type": "string"
                }
            ],
            "name": "Get_appointment",
            "outputs": [],
            "stateMutability": "nonpayable",
            "type": "function"
        },
        {
            "inputs": [
                {
                    "internalType": "uint256",
                    "name": "",
                    "type": "uint256"
                }
            ],
            "name": "Patient_list",
            "outputs": [
                {
                    "internalType": "uint256",
                    "name": "_id",
                    "type": "uint256"
                },
                {
                    "internalType": "string",
                    "name": "_firstName",
                    "type": "string"
                },
                {
                    "internalType": "string",
                    "name": "_lastName",
                    "type": "string"
                },
                {
                    "internalType": "string",
                    "name": "Contact_number",
                    "type": "string"
                },
                {
                    "internalType": "string",
                    "name": "Emergency_number",
                    "type": "string"
                },
                {
                    "internalType": "string",
                    "name": "_address",
                    "type": "string"
                },
                {
                    "internalType": "string",
                    "name": "email",
                    "type": "string"
                },
                {
                    "internalType": "string",
                    "name": "dob",
                    "type": "string"
                },
                {
                    "internalType": "string",
                    "name": "martial_status",
                    "type": "string"
                },
                {
                    "internalType": "string",
                    "name": "sex",
                    "type": "string"
                },
                {
                    "internalType": "address",
                    "name": "AccountAddress",
                    "type": "address"
                }
            ],
            "stateMutability": "view",
            "type": "function"
        },
        {
            "inputs": [
                {
                    "internalType": "address",
                    "name": "Accaddress",
                    "type": "address"
                },
                {
                    "internalType": "string",
                    "name": "dob",
                    "type": "string"
                },
                {
                    "internalType": "string",
                    "name": "sex",
                    "type": "string"
                },
                {
                    "internalType": "string",
                    "name": "martial_status",
                    "type": "string"
                },
                {
                    "internalType": "string",
                    "name": "_firstName",
                    "type": "string"
                },
                {
                    "internalType": "string",
                    "name": "_lastName",
                    "type": "string"
                },
                {
                    "internalType": "string",
                    "name": "emergency_num",
                    "type": "string"
                },
                {
                    "internalType": "string",
                    "name": "contact_num",
                    "type": "string"
                },
                {
                    "internalType": "string",
                    "name": "_Address",
                    "type": "string"
                },
                {
                    "internalType": "string",
                    "name": "email",
                    "type": "string"
                }
            ],
            "name": "Register_patient",
            "outputs": [],
            "stateMutability": "nonpayable",
            "type": "function"
        },
        {
            "inputs": [],
            "name": "getAll_Appointments",
            "outputs": [
                {
                    "components": [
                        {
                            "internalType": "uint256",
                            "name": "_id",
                            "type": "uint256"
                        },
                        {
                            "internalType": "string",
                            "name": "Doctor_name",
                            "type": "string"
                        },
                        {
                            "internalType": "string",
                            "name": "Patient_name",
                            "type": "string"
                        },
                        {
                            "internalType": "string",
                            "name": "doc_email",
                            "type": "string"
                        },
                        {
                            "internalType": "string",
                            "name": "patient_email",
                            "type": "string"
                        },
                        {
                            "internalType": "string",
                            "name": "Appointment_time",
                            "type": "string"
                        },
                        {
                            "internalType": "string",
                            "name": "Appointment_reason",
                            "type": "string"
                        }
                    ],
                    "internalType": "struct hospital._Appointment[]",
                    "name": "",
                    "type": "tuple[]"
                }
            ],
            "stateMutability": "view",
            "type": "function"
        },
        {
            "inputs": [],
            "name": "getAll_Doctors",
            "outputs": [
                {
                    "components": [
                        {
                            "internalType": "uint256",
                            "name": "doc_id",
                            "type": "uint256"
                        },
                        {
                            "internalType": "string",
                            "name": "_firstName",
                            "type": "string"
                        },
                        {
                            "internalType": "string",
                            "name": "_lastName",
                            "type": "string"
                        },
                        {
                            "internalType": "string",
                            "name": "Contact_number",
                            "type": "string"
                        },
                        {
                            "internalType": "string",
                            "name": "Emergency_number",
                            "type": "string"
                        },
                        {
                            "internalType": "string",
                            "name": "_address",
                            "type": "string"
                        },
                        {
                            "internalType": "string",
                            "name": "email",
                            "type": "string"
                        },
                        {
                            "internalType": "string",
                            "name": "dob",
                            "type": "string"
                        },
                        {
                            "internalType": "string",
                            "name": "martial_status",
                            "type": "string"
                        },
                        {
                            "internalType": "string",
                            "name": "sex",
                            "type": "string"
                        },
                        {
                            "internalType": "string",
                            "name": "qualification",
                            "type": "string"
                        },
                        {
                            "internalType": "address",
                            "name": "AccountAddress",
                            "type": "address"
                        }
                    ],
                    "internalType": "struct hospital.Doctor[]",
                    "name": "",
                    "type": "tuple[]"
                }
            ],
            "stateMutability": "view",
            "type": "function"
        },
        {
            "inputs": [],
            "name": "getAll_Patients",
            "outputs": [
                {
                    "components": [
                        {
                            "internalType": "uint256",
                            "name": "_id",
                            "type": "uint256"
                        },
                        {
                            "internalType": "string",
                            "name": "_firstName",
                            "type": "string"
                        },
                        {
                            "internalType": "string",
                            "name": "_lastName",
                            "type": "string"
                        },
                        {
                            "internalType": "string",
                            "name": "Contact_number",
                            "type": "string"
                        },
                        {
                            "internalType": "string",
                            "name": "Emergency_number",
                            "type": "string"
                        },
                        {
                            "internalType": "string",
                            "name": "_address",
                            "type": "string"
                        },
                        {
                            "internalType": "string",
                            "name": "email",
                            "type": "string"
                        },
                        {
                            "internalType": "string",
                            "name": "dob",
                            "type": "string"
                        },
                        {
                            "internalType": "string",
                            "name": "martial_status",
                            "type": "string"
                        },
                        {
                            "internalType": "string",
                            "name": "sex",
                            "type": "string"
                        },
                        {
                            "internalType": "address",
                            "name": "AccountAddress",
                            "type": "address"
                        }
                    ],
                    "internalType": "struct hospital.Patient[]",
                    "name": "",
                    "type": "tuple[]"
                }
            ],
            "stateMutability": "view",
            "type": "function"
        },
        {
            "inputs": [],
            "name": "hello",
            "outputs": [
                {
                    "internalType": "string",
                    "name": "",
                    "type": "string"
                }
            ],
            "stateMutability": "pure",
            "type": "function"
        }
    ],
    "bytecode": "6080604052600080556000600155600060025534801561001e57600080fd5b506133708061002e6000396000f3fe608060405234801561001057600080fd5b506004361061009e5760003560e01c806350869382116100665780635086938214610151578063560df47e1461016457806384025ebf14610179578063e13f65751461018c578063e47cb5ef146101b257600080fd5b80630b390d61146100a357806319ff1d21146100c157806327151672146100e75780632e2a5ea61461011257806345e5f4861461013c575b600080fd5b6100ab6101c7565b6040516100b8919061275c565b60405180910390f35b604080518082018252600481526315195cdd60e21b602082015290516100b89190612859565b6100fa6100f5366004612873565b610631565b6040516100b89c9b9a9998979695949392919061288c565b610125610120366004612873565b610be3565b6040516100b89b9a99989796959493929190612987565b61014f61014a366004612b2b565b611107565b005b61014f61015f366004612cd3565b6112ee565b61016c6113ff565b6040516100b89190612dc8565b61014f610187366004612f29565b611a57565b61019f61019a366004612873565b611c1b565b6040516100b897969594939291906130a0565b6101ba611f86565b6040516100b89190613129565b6060600060025467ffffffffffffffff8111156101e6576101e6612a6c565b60405190808252806020026020018201604052801561025757816020015b6102446040518060e00160405280600081526020016060815260200160608152602001606081526020016060815260200160608152602001606081525090565b8152602001906001900390816102045790505b50905060005b60025481101561062b57600560008281526020019081526020016000206040518060e00160405290816000820154815260200160018201805461029f906132a6565b80601f01602080910402602001604051908101604052809291908181526020018280546102cb906132a6565b80156103185780601f106102ed57610100808354040283529160200191610318565b820191906000526020600020905b8154815290600101906020018083116102fb57829003601f168201915b50505050508152602001600282018054610331906132a6565b80601f016020809104026020016040519081016040528092919081815260200182805461035d906132a6565b80156103aa5780601f1061037f576101008083540402835291602001916103aa565b820191906000526020600020905b81548152906001019060200180831161038d57829003601f168201915b505050505081526020016003820180546103c3906132a6565b80601f01602080910402602001604051908101604052809291908181526020018280546103ef906132a6565b801561043c5780601f106104115761010080835404028352916020019161043c565b820191906000526020600020905b81548152906001019060200180831161041f57829003601f168201915b50505050508152602001600482018054610455906132a6565b80601f0160208091040260200160405190810160405280929190818152602001828054610481906132a6565b80156104ce5780601f106104a3576101008083540402835291602001916104ce565b820191906000526020600020905b8154815290600101906020018083116104b157829003601f168201915b505050505081526020016005820180546104e7906132a6565b80601f0160208091040260200160405190810160405280929190818152602001828054610513906132a6565b80156105605780601f1061053557610100808354040283529160200191610560565b820191906000526020600020905b81548152906001019060200180831161054357829003601f168201915b50505050508152602001600682018054610579906132a6565b80601f01602080910402602001604051908101604052809291908181526020018280546105a5906132a6565b80156105f25780601f106105c7576101008083540402835291602001916105f2565b820191906000526020600020905b8154815290600101906020018083116105d557829003601f168201915b50505050508152505082828151811061060d5761060d6132db565b6020026020010181905250808061062390613307565b91505061025d565b50919050565b60036020526000908152604090208054600182018054919291610653906132a6565b80601f016020809104026020016040519081016040528092919081815260200182805461067f906132a6565b80156106cc5780601f106106a1576101008083540402835291602001916106cc565b820191906000526020600020905b8154815290600101906020018083116106af57829003601f168201915b5050505050908060020180546106e1906132a6565b80601f016020809104026020016040519081016040528092919081815260200182805461070d906132a6565b801561075a5780601f1061072f5761010080835404028352916020019161075a565b820191906000526020600020905b81548152906001019060200180831161073d57829003601f168201915b50505050509080600301805461076f906132a6565b80601f016020809104026020016040519081016040528092919081815260200182805461079b906132a6565b80156107e85780601f106107bd576101008083540402835291602001916107e8565b820191906000526020600020905b8154815290600101906020018083116107cb57829003601f168201915b5050505050908060040180546107fd906132a6565b80601f0160208091040260200160405190810160405280929190818152602001828054610829906132a6565b80156108765780601f1061084b57610100808354040283529160200191610876565b820191906000526020600020905b81548152906001019060200180831161085957829003601f168201915b50505050509080600501805461088b906132a6565b80601f01602080910402602001604051908101604052809291908181526020018280546108b7906132a6565b80156109045780601f106108d957610100808354040283529160200191610904565b820191906000526020600020905b8154815290600101906020018083116108e757829003601f168201915b505050505090806006018054610919906132a6565b80601f0160208091040260200160405190810160405280929190818152602001828054610945906132a6565b80156109925780601f1061096757610100808354040283529160200191610992565b820191906000526020600020905b81548152906001019060200180831161097557829003601f168201915b5050505050908060070180546109a7906132a6565b80601f01602080910402602001604051908101604052809291908181526020018280546109d3906132a6565b8015610a205780601f106109f557610100808354040283529160200191610a20565b820191906000526020600020905b815481529060010190602001808311610a0357829003601f168201915b505050505090806008018054610a35906132a6565b80601f0160208091040260200160405190810160405280929190818152602001828054610a61906132a6565b8015610aae5780601f10610a8357610100808354040283529160200191610aae565b820191906000526020600020905b815481529060010190602001808311610a9157829003601f168201915b505050505090806009018054610ac3906132a6565b80601f0160208091040260200160405190810160405280929190818152602001828054610aef906132a6565b8015610b3c5780601f10610b1157610100808354040283529160200191610b3c565b820191906000526020600020905b815481529060010190602001808311610b1f57829003601f168201915b50505050509080600a018054610b51906132a6565b80601f0160208091040260200160405190810160405280929190818152602001828054610b7d906132a6565b8015610bca5780601f10610b9f57610100808354040283529160200191610bca565b820191906000526020600020905b815481529060010190602001808311610bad57829003601f168201915b505050600b90930154919250506001600160a01b03168c565b60046020526000908152604090208054600182018054919291610c05906132a6565b80601f0160208091040260200160405190810160405280929190818152602001828054610c31906132a6565b8015610c7e5780601f10610c5357610100808354040283529160200191610c7e565b820191906000526020600020905b815481529060010190602001808311610c6157829003601f168201915b505050505090806002018054610c93906132a6565b80601f0160208091040260200160405190810160405280929190818152602001828054610cbf906132a6565b8015610d0c5780601f10610ce157610100808354040283529160200191610d0c565b820191906000526020600020905b815481529060010190602001808311610cef57829003601f168201915b505050505090806003018054610d21906132a6565b80601f0160208091040260200160405190810160405280929190818152602001828054610d4d906132a6565b8015610d9a5780601f10610d6f57610100808354040283529160200191610d9a565b820191906000526020600020905b815481529060010190602001808311610d7d57829003601f168201915b505050505090806004018054610daf906132a6565b80601f0160208091040260200160405190810160405280929190818152602001828054610ddb906132a6565b8015610e285780601f10610dfd57610100808354040283529160200191610e28565b820191906000526020600020905b815481529060010190602001808311610e0b57829003601f168201915b505050505090806005018054610e3d906132a6565b80601f0160208091040260200160405190810160405280929190818152602001828054610e69906132a6565b8015610eb65780601f10610e8b57610100808354040283529160200191610eb6565b820191906000526020600020905b815481529060010190602001808311610e9957829003601f168201915b505050505090806006018054610ecb906132a6565b80601f0160208091040260200160405190810160405280929190818152602001828054610ef7906132a6565b8015610f445780601f10610f1957610100808354040283529160200191610f44565b820191906000526020600020905b815481529060010190602001808311610f2757829003601f168201915b505050505090806007018054610f59906132a6565b80601f0160208091040260200160405190810160405280929190818152602001828054610f85906132a6565b8015610fd25780601f10610fa757610100808354040283529160200191610fd2565b820191906000526020600020905b815481529060010190602001808311610fb557829003601f168201915b505050505090806008018054610fe7906132a6565b80601f0160208091040260200160405190810160405280929190818152602001828054611013906132a6565b80156110605780601f1061103557610100808354040283529160200191611060565b820191906000526020600020905b81548152906001019060200180831161104357829003601f168201915b505050505090806009018054611075906132a6565b80601f01602080910402602001604051908101604052809291908181526020018280546110a1906132a6565b80156110ee5780601f106110c3576101008083540402835291602001916110ee565b820191906000526020600020905b8154815290600101906020018083116110d157829003601f168201915b505050600a90930154919250506001600160a01b03168b565b60016000808282546111199190613322565b9250508190555060405180610180016040528060005481526020018781526020018681526020018481526020018581526020018381526020018281526020018a81526020018881526020018981526020018c81526020018b6001600160a01b031681525060036000805481526020019081526020016000206000820151816000015560208201518160010190805190602001906111b7929190612676565b50604082015180516111d3916002840191602090910190612676565b50606082015180516111ef916003840191602090910190612676565b506080820151805161120b916004840191602090910190612676565b5060a08201518051611227916005840191602090910190612676565b5060c08201518051611243916006840191602090910190612676565b5060e0820151805161125f916007840191602090910190612676565b50610100820151805161127c916008840191602090910190612676565b506101208201518051611299916009840191602090910190612676565b5061014082015180516112b691600a840191602090910190612676565b506101609190910151600b90910180546001600160a01b0319166001600160a01b039092169190911790555050505050505050505050565b6001600260008282546113019190613322565b90915550506040805160e08101825260025480825260208083018a81528385018a9052606084018790526080840186905260a0840189905260c084018890526000928352600582529390912082518155925180519293926113689260018501920190612676565b5060408201518051611384916002840191602090910190612676565b50606082015180516113a0916003840191602090910190612676565b50608082015180516113bc916004840191602090910190612676565b5060a082015180516113d8916005840191602090910190612676565b5060c082015180516113f4916006840191602090910190612676565b505050505050505050565b6060600060015467ffffffffffffffff81111561141e5761141e612a6c565b6040519080825280602002602001820160405280156114b557816020015b6114a26040518061016001604052806000815260200160608152602001606081526020016060815260200160608152602001606081526020016060815260200160608152602001606081526020016060815260200160006001600160a01b031681525090565b81526020019060019003908161143c5790505b50905060005b60015481101561062b576004600082815260200190815260200160002060405180610160016040529081600082015481526020016001820180546114fe906132a6565b80601f016020809104026020016040519081016040528092919081815260200182805461152a906132a6565b80156115775780601f1061154c57610100808354040283529160200191611577565b820191906000526020600020905b81548152906001019060200180831161155a57829003601f168201915b50505050508152602001600282018054611590906132a6565b80601f01602080910402602001604051908101604052809291908181526020018280546115bc906132a6565b80156116095780601f106115de57610100808354040283529160200191611609565b820191906000526020600020905b8154815290600101906020018083116115ec57829003601f168201915b50505050508152602001600382018054611622906132a6565b80601f016020809104026020016040519081016040528092919081815260200182805461164e906132a6565b801561169b5780601f106116705761010080835404028352916020019161169b565b820191906000526020600020905b81548152906001019060200180831161167e57829003601f168201915b505050505081526020016004820180546116b4906132a6565b80601f01602080910402602001604051908101604052809291908181526020018280546116e0906132a6565b801561172d5780601f106117025761010080835404028352916020019161172d565b820191906000526020600020905b81548152906001019060200180831161171057829003601f168201915b50505050508152602001600582018054611746906132a6565b80601f0160208091040260200160405190810160405280929190818152602001828054611772906132a6565b80156117bf5780601f10611794576101008083540402835291602001916117bf565b820191906000526020600020905b8154815290600101906020018083116117a257829003601f168201915b505050505081526020016006820180546117d8906132a6565b80601f0160208091040260200160405190810160405280929190818152602001828054611804906132a6565b80156118515780601f1061182657610100808354040283529160200191611851565b820191906000526020600020905b81548152906001019060200180831161183457829003601f168201915b5050505050815260200160078201805461186a906132a6565b80601f0160208091040260200160405190810160405280929190818152602001828054611896906132a6565b80156118e35780601f106118b8576101008083540402835291602001916118e3565b820191906000526020600020905b8154815290600101906020018083116118c657829003601f168201915b505050505081526020016008820180546118fc906132a6565b80601f0160208091040260200160405190810160405280929190818152602001828054611928906132a6565b80156119755780601f1061194a57610100808354040283529160200191611975565b820191906000526020600020905b81548152906001019060200180831161195857829003601f168201915b5050505050815260200160098201805461198e906132a6565b80601f01602080910402602001604051908101604052809291908181526020018280546119ba906132a6565b8015611a075780601f106119dc57610100808354040283529160200191611a07565b820191906000526020600020905b8154815290600101906020018083116119ea57829003601f168201915b5050509183525050600a91909101546001600160a01b03166020909101528251839083908110611a3957611a396132db565b60200260200101819052508080611a4f90613307565b9150506114bb565b6001806000828254611a699190613322565b9250508190555060405180610160016040528060015481526020018781526020018681526020018481526020018581526020018381526020018281526020018a81526020018881526020018981526020018b6001600160a01b0316815250600460006001548152602001908152602001600020600082015181600001556020820151816001019080519060200190611b02929190612676565b5060408201518051611b1e916002840191602090910190612676565b5060608201518051611b3a916003840191602090910190612676565b5060808201518051611b56916004840191602090910190612676565b5060a08201518051611b72916005840191602090910190612676565b5060c08201518051611b8e916006840191602090910190612676565b5060e08201518051611baa916007840191602090910190612676565b506101008201518051611bc7916008840191602090910190612676565b506101208201518051611be4916009840191602090910190612676565b506101409190910151600a90910180546001600160a01b0319166001600160a01b0390921691909117905550505050505050505050565b60056020526000908152604090208054600182018054919291611c3d906132a6565b80601f0160208091040260200160405190810160405280929190818152602001828054611c69906132a6565b8015611cb65780601f10611c8b57610100808354040283529160200191611cb6565b820191906000526020600020905b815481529060010190602001808311611c9957829003601f168201915b505050505090806002018054611ccb906132a6565b80601f0160208091040260200160405190810160405280929190818152602001828054611cf7906132a6565b8015611d445780601f10611d1957610100808354040283529160200191611d44565b820191906000526020600020905b815481529060010190602001808311611d2757829003601f168201915b505050505090806003018054611d59906132a6565b80601f0160208091040260200160405190810160405280929190818152602001828054611d85906132a6565b8015611dd25780601f10611da757610100808354040283529160200191611dd2565b820191906000526020600020905b815481529060010190602001808311611db557829003601f168201915b505050505090806004018054611de7906132a6565b80601f0160208091040260200160405190810160405280929190818152602001828054611e13906132a6565b8015611e605780601f10611e3557610100808354040283529160200191611e60565b820191906000526020600020905b815481529060010190602001808311611e4357829003601f168201915b505050505090806005018054611e75906132a6565b80601f0160208091040260200160405190810160405280929190818152602001828054611ea1906132a6565b8015611eee5780601f10611ec357610100808354040283529160200191611eee565b820191906000526020600020905b815481529060010190602001808311611ed157829003601f168201915b505050505090806006018054611f03906132a6565b80601f0160208091040260200160405190810160405280929190818152602001828054611f2f906132a6565b8015611f7c5780601f10611f5157610100808354040283529160200191611f7c565b820191906000526020600020905b815481529060010190602001808311611f5f57829003601f168201915b5050505050905087565b60606000805467ffffffffffffffff811115611fa457611fa4612a6c565b60405190808252806020026020018201604052801561204257816020015b61202f604051806101800160405280600081526020016060815260200160608152602001606081526020016060815260200160608152602001606081526020016060815260200160608152602001606081526020016060815260200160006001600160a01b031681525090565b815260200190600190039081611fc25790505b50905060005b60005481101561062b5760036000828152602001908152602001600020604051806101800160405290816000820154815260200160018201805461208b906132a6565b80601f01602080910402602001604051908101604052809291908181526020018280546120b7906132a6565b80156121045780601f106120d957610100808354040283529160200191612104565b820191906000526020600020905b8154815290600101906020018083116120e757829003601f168201915b5050505050815260200160028201805461211d906132a6565b80601f0160208091040260200160405190810160405280929190818152602001828054612149906132a6565b80156121965780601f1061216b57610100808354040283529160200191612196565b820191906000526020600020905b81548152906001019060200180831161217957829003601f168201915b505050505081526020016003820180546121af906132a6565b80601f01602080910402602001604051908101604052809291908181526020018280546121db906132a6565b80156122285780601f106121fd57610100808354040283529160200191612228565b820191906000526020600020905b81548152906001019060200180831161220b57829003601f168201915b50505050508152602001600482018054612241906132a6565b80601f016020809104026020016040519081016040528092919081815260200182805461226d906132a6565b80156122ba5780601f1061228f576101008083540402835291602001916122ba565b820191906000526020600020905b81548152906001019060200180831161229d57829003601f168201915b505050505081526020016005820180546122d3906132a6565b80601f01602080910402602001604051908101604052809291908181526020018280546122ff906132a6565b801561234c5780601f106123215761010080835404028352916020019161234c565b820191906000526020600020905b81548152906001019060200180831161232f57829003601f168201915b50505050508152602001600682018054612365906132a6565b80601f0160208091040260200160405190810160405280929190818152602001828054612391906132a6565b80156123de5780601f106123b3576101008083540402835291602001916123de565b820191906000526020600020905b8154815290600101906020018083116123c157829003601f168201915b505050505081526020016007820180546123f7906132a6565b80601f0160208091040260200160405190810160405280929190818152602001828054612423906132a6565b80156124705780601f1061244557610100808354040283529160200191612470565b820191906000526020600020905b81548152906001019060200180831161245357829003601f168201915b50505050508152602001600882018054612489906132a6565b80601f01602080910402602001604051908101604052809291908181526020018280546124b5906132a6565b80156125025780601f106124d757610100808354040283529160200191612502565b820191906000526020600020905b8154815290600101906020018083116124e557829003601f168201915b5050505050815260200160098201805461251b906132a6565b80601f0160208091040260200160405190810160405280929190818152602001828054612547906132a6565b80156125945780601f1061256957610100808354040283529160200191612594565b820191906000526020600020905b81548152906001019060200180831161257757829003601f168201915b50505050508152602001600a820180546125ad906132a6565b80601f01602080910402602001604051908101604052809291908181526020018280546125d9906132a6565b80156126265780601f106125fb57610100808354040283529160200191612626565b820191906000526020600020905b81548152906001019060200180831161260957829003601f168201915b5050509183525050600b91909101546001600160a01b03166020909101528251839083908110612658576126586132db565b6020026020010181905250808061266e90613307565b915050612048565b828054612682906132a6565b90600052602060002090601f0160209004810192826126a457600085556126ea565b82601f106126bd57805160ff19168380011785556126ea565b828001600101855582156126ea579182015b828111156126ea5782518255916020019190600101906126cf565b506126f69291506126fa565b5090565b5b808211156126f657600081556001016126fb565b6000815180845260005b8181101561273557602081850181015186830182015201612719565b81811115612747576000602083870101525b50601f01601f19169290920160200192915050565b60006020808301818452808551808352604092508286019150828160051b87010184880160005b8381101561284b57603f19898403018552815160e08151855288820151818a8701526127b18287018261270f565b91505087820151858203898701526127c9828261270f565b915050606080830151868303828801526127e3838261270f565b92505050608080830151868303828801526127fe838261270f565b9250505060a08083015186830382880152612819838261270f565b9250505060c08083015192508582038187015250612837818361270f565b968901969450505090860190600101612783565b509098975050505050505050565b60208152600061286c602083018461270f565b9392505050565b60006020828403121561288557600080fd5b5035919050565b60006101808e83528060208401526128a68184018f61270f565b905082810360408401526128ba818e61270f565b905082810360608401526128ce818d61270f565b905082810360808401526128e2818c61270f565b905082810360a08401526128f6818b61270f565b905082810360c084015261290a818a61270f565b905082810360e084015261291e818961270f565b9050828103610100840152612933818861270f565b9050828103610120840152612948818761270f565b905082810361014084015261295d818661270f565b9150506129766101608301846001600160a01b03169052565b9d9c50505050505050505050505050565b60006101608d83528060208401526129a18184018e61270f565b905082810360408401526129b5818d61270f565b905082810360608401526129c9818c61270f565b905082810360808401526129dd818b61270f565b905082810360a08401526129f1818a61270f565b905082810360c0840152612a05818961270f565b905082810360e0840152612a19818861270f565b9050828103610100840152612a2e818761270f565b9050828103610120840152612a43818661270f565b915050612a5c6101408301846001600160a01b03169052565b9c9b505050505050505050505050565b634e487b7160e01b600052604160045260246000fd5b600082601f830112612a9357600080fd5b813567ffffffffffffffff80821115612aae57612aae612a6c565b604051601f8301601f19908116603f01168101908282118183101715612ad657612ad6612a6c565b81604052838152866020858801011115612aef57600080fd5b836020870160208301376000602085830101528094505050505092915050565b80356001600160a01b0381168114612b2657600080fd5b919050565b60008060008060008060008060008060006101608c8e031215612b4d57600080fd5b67ffffffffffffffff808d351115612b6457600080fd5b612b718e8e358f01612a82565b9b50612b7f60208e01612b0f565b9a508060408e01351115612b9257600080fd5b612ba28e60408f01358f01612a82565b99508060608e01351115612bb557600080fd5b612bc58e60608f01358f01612a82565b98508060808e01351115612bd857600080fd5b612be88e60808f01358f01612a82565b97508060a08e01351115612bfb57600080fd5b612c0b8e60a08f01358f01612a82565b96508060c08e01351115612c1e57600080fd5b612c2e8e60c08f01358f01612a82565b95508060e08e01351115612c4157600080fd5b612c518e60e08f01358f01612a82565b9450806101008e01351115612c6557600080fd5b612c768e6101008f01358f01612a82565b9350806101208e01351115612c8a57600080fd5b612c9b8e6101208f01358f01612a82565b9250806101408e01351115612caf57600080fd5b50612cc18d6101408e01358e01612a82565b90509295989b509295989b9093969950565b60008060008060008060c08789031215612cec57600080fd5b863567ffffffffffffffff80821115612d0457600080fd5b612d108a838b01612a82565b97506020890135915080821115612d2657600080fd5b612d328a838b01612a82565b96506040890135915080821115612d4857600080fd5b612d548a838b01612a82565b95506060890135915080821115612d6a57600080fd5b612d768a838b01612a82565b94506080890135915080821115612d8c57600080fd5b612d988a838b01612a82565b935060a0890135915080821115612dae57600080fd5b50612dbb89828a01612a82565b9150509295509295509295565b60006020808301818452808551808352604092508286019150828160051b87010184880160005b8381101561284b57603f1989840301855281516101608151855288820151818a870152612e1e8287018261270f565b9150508782015185820389870152612e36828261270f565b91505060608083015186830382880152612e50838261270f565b9250505060808083015186830382880152612e6b838261270f565b9250505060a08083015186830382880152612e86838261270f565b9250505060c08083015186830382880152612ea1838261270f565b9250505060e08083015186830382880152612ebc838261270f565b925050506101008083015186830382880152612ed8838261270f565b925050506101208083015186830382880152612ef4838261270f565b92505050610140808301519250612f15818701846001600160a01b03169052565b509588019593505090860190600101612def565b6000806000806000806000806000806101408b8d031215612f4957600080fd5b612f528b612b0f565b995060208b013567ffffffffffffffff80821115612f6f57600080fd5b612f7b8e838f01612a82565b9a5060408d0135915080821115612f9157600080fd5b612f9d8e838f01612a82565b995060608d0135915080821115612fb357600080fd5b612fbf8e838f01612a82565b985060808d0135915080821115612fd557600080fd5b612fe18e838f01612a82565b975060a08d0135915080821115612ff757600080fd5b6130038e838f01612a82565b965060c08d013591508082111561301957600080fd5b6130258e838f01612a82565b955060e08d013591508082111561303b57600080fd5b6130478e838f01612a82565b94506101008d013591508082111561305e57600080fd5b61306a8e838f01612a82565b93506101208d013591508082111561308157600080fd5b5061308e8d828e01612a82565b9150509295989b9194979a5092959850565b87815260e0602082015260006130b960e083018961270f565b82810360408401526130cb818961270f565b905082810360608401526130df818861270f565b905082810360808401526130f3818761270f565b905082810360a0840152613107818661270f565b905082810360c084015261311b818561270f565b9a9950505050505050505050565b60006020808301818452808551808352604092508286019150828160051b87010184880160005b8381101561284b57603f1989840301855281516101808151855288820151818a87015261317f8287018261270f565b9150508782015185820389870152613197828261270f565b915050606080830151868303828801526131b1838261270f565b92505050608080830151868303828801526131cc838261270f565b9250505060a080830151868303828801526131e7838261270f565b9250505060c08083015186830382880152613202838261270f565b9250505060e0808301518683038288015261321d838261270f565b925050506101008083015186830382880152613239838261270f565b925050506101208083015186830382880152613255838261270f565b925050506101408083015186830382880152613271838261270f565b92505050610160808301519250613292818701846001600160a01b03169052565b509588019593505090860190600101613150565b600181811c908216806132ba57607f821691505b6020821081141561062b57634e487b7160e01b600052602260045260246000fd5b634e487b7160e01b600052603260045260246000fd5b634e487b7160e01b600052601160045260246000fd5b600060001982141561331b5761331b6132f1565b5060010190565b60008219821115613335576133356132f1565b50019056fea2646970667358221220761af844ce1873c9470e950f838df320c1e25c56d1ae0bb4e5d1f6a7c8f9f95364736f6c634300080a0033",
    "sourcePath": "f:/Sem 7/IBC/Blockchain-Project-DAPP-Healthcare/contracts/RegisterationContract.sol",
    "compiler": {
        "name": "solc",
        "version": "0.8.10+commit.fc410830"
    },
    "functionHashes": {
        "Add_Doctor(string,address,string,string,string,string,string,string,string,string,string)": "45e5f486",
        "Appointments(uint256)": "e13f6575",
        "Doctors(uint256)": "27151672",
        "Get_appointment(string,string,string,string,string,string)": "50869382",
        "Patient_list(uint256)": "2e2a5ea6",
        "Register_patient(address,string,string,string,string,string,string,string,string,string)": "84025ebf",
        "getAll_Appointments()": "0b390d61",
        "getAll_Doctors()": "e47cb5ef",
        "getAll_Patients()": "560df47e",
        "hello()": "19ff1d21"
    },
    "gasEstimates": {
        "creation": {
            "codeDepositCost": "2633600",
            "executionCost": "17872",
            "totalCost": "2651472"
        },
        "external": {
            "Add_Doctor(string,address,string,string,string,string,string,string,string,string,string)": "infinite",
            "Appointments(uint256)": "infinite",
            "Doctors(uint256)": "infinite",
            "Get_appointment(string,string,string,string,string,string)": "infinite",
            "Patient_list(uint256)": "infinite",
            "Register_patient(address,string,string,string,string,string,string,string,string,string)": "infinite",
            "getAll_Appointments()": "infinite",
            "getAll_Doctors()": "infinite",
            "getAll_Patients()": "infinite",
            "hello()": "infinite"
        }
    }
}