{
    "contractName": "kits",
    "abi": [
        {
            "inputs": [
                {
                    "internalType": "address",
                    "name": "AccAddress",
                    "type": "address"
                },
                {
                    "internalType": "string",
                    "name": "dob",
                    "type": "string"
                },
                {
                    "internalType": "string",
                    "name": "sex",
                    "type": "string"
                },
                {
                    "internalType": "string",
                    "name": "martial_status",
                    "type": "string"
                },
                {
                    "internalType": "string",
                    "name": "_firstName",
                    "type": "string"
                },
                {
                    "internalType": "string",
                    "name": "_lastName",
                    "type": "string"
                },
                {
                    "internalType": "string",
                    "name": "emergency_num",
                    "type": "string"
                },
                {
                    "internalType": "string",
                    "name": "contact_num",
                    "type": "string"
                },
                {
                    "internalType": "string",
                    "name": "_Address",
                    "type": "string"
                },
                {
                    "internalType": "string",
                    "name": "email",
                    "type": "string"
                }
            ],
            "name": "Add_Nurse",
            "outputs": [],
            "stateMutability": "nonpayable",
            "type": "function"
        },
        {
            "inputs": [
                {
                    "internalType": "string",
                    "name": "Nurse_name",
                    "type": "string"
                },
                {
                    "internalType": "string",
                    "name": "time_taken",
                    "type": "string"
                },
                {
                    "internalType": "string",
                    "name": "reason",
                    "type": "string"
                },
                {
                    "internalType": "string",
                    "name": "nurse_email",
                    "type": "string"
                }
            ],
            "name": "Get_MedicalKit",
            "outputs": [],
            "stateMutability": "nonpayable",
            "type": "function"
        },
        {
            "inputs": [
                {
                    "internalType": "uint256",
                    "name": "",
                    "type": "uint256"
                }
            ],
            "name": "MedicalKits",
            "outputs": [
                {
                    "internalType": "uint256",
                    "name": "_id",
                    "type": "uint256"
                },
                {
                    "internalType": "string",
                    "name": "Nurse_name",
                    "type": "string"
                },
                {
                    "internalType": "string",
                    "name": "nurse_email",
                    "type": "string"
                },
                {
                    "internalType": "string",
                    "name": "time_taken",
                    "type": "string"
                },
                {
                    "internalType": "string",
                    "name": "reason",
                    "type": "string"
                }
            ],
            "stateMutability": "view",
            "type": "function"
        },
        {
            "inputs": [
                {
                    "internalType": "uint256",
                    "name": "",
                    "type": "uint256"
                }
            ],
            "name": "Nurses",
            "outputs": [
                {
                    "internalType": "uint256",
                    "name": "nurse_id",
                    "type": "uint256"
                },
                {
                    "internalType": "string",
                    "name": "_firstName",
                    "type": "string"
                },
                {
                    "internalType": "string",
                    "name": "_lastName",
                    "type": "string"
                },
                {
                    "internalType": "string",
                    "name": "Contact_number",
                    "type": "string"
                },
                {
                    "internalType": "string",
                    "name": "Emergency_number",
                    "type": "string"
                },
                {
                    "internalType": "string",
                    "name": "_address",
                    "type": "string"
                },
                {
                    "internalType": "string",
                    "name": "email",
                    "type": "string"
                },
                {
                    "internalType": "string",
                    "name": "dob",
                    "type": "string"
                },
                {
                    "internalType": "string",
                    "name": "martial_status",
                    "type": "string"
                },
                {
                    "internalType": "string",
                    "name": "sex",
                    "type": "string"
                },
                {
                    "internalType": "address",
                    "name": "AccountAddress",
                    "type": "address"
                }
            ],
            "stateMutability": "view",
            "type": "function"
        },
        {
            "inputs": [],
            "name": "getAll_MedicalKits",
            "outputs": [
                {
                    "components": [
                        {
                            "internalType": "uint256",
                            "name": "_id",
                            "type": "uint256"
                        },
                        {
                            "internalType": "string",
                            "name": "Nurse_name",
                            "type": "string"
                        },
                        {
                            "internalType": "string",
                            "name": "nurse_email",
                            "type": "string"
                        },
                        {
                            "internalType": "string",
                            "name": "time_taken",
                            "type": "string"
                        },
                        {
                            "internalType": "string",
                            "name": "reason",
                            "type": "string"
                        }
                    ],
                    "internalType": "struct kits.MedicalKit[]",
                    "name": "",
                    "type": "tuple[]"
                }
            ],
            "stateMutability": "view",
            "type": "function"
        }
    ],
    "bytecode": "608060405260008055600a60015534801561001957600080fd5b506114ff806100296000396000f3fe608060405234801561001057600080fd5b50600436106100575760003560e01c80630441edcc1461005c5780633cd790601461007a57806345e7e8a91461008f5780639f442e03146100b3578063cea9c96c146100dd575b600080fd5b6100646100f0565b6040516100719190610f17565b60405180910390f35b61008d61008836600461109d565b610428565b005b6100a261009d366004611214565b6105eb565b60405161007195949392919061122d565b6100c66100c1366004611214565b61083a565b6040516100719b9a9998979695949392919061128c565b61008d6100eb366004611371565b610d5e565b6060600060015467ffffffffffffffff81111561010f5761010f610ffa565b60405190808252806020026020018201604052801561017257816020015b61015f6040518060a0016040528060008152602001606081526020016060815260200160608152602001606081525090565b81526020019060019003908161012d5790505b50905060005b60015481101561042257600360008281526020019081526020016000206040518060a0016040529081600082015481526020016001820180546101ba9061141e565b80601f01602080910402602001604051908101604052809291908181526020018280546101e69061141e565b80156102335780601f1061020857610100808354040283529160200191610233565b820191906000526020600020905b81548152906001019060200180831161021657829003601f168201915b5050505050815260200160028201805461024c9061141e565b80601f01602080910402602001604051908101604052809291908181526020018280546102789061141e565b80156102c55780601f1061029a576101008083540402835291602001916102c5565b820191906000526020600020905b8154815290600101906020018083116102a857829003601f168201915b505050505081526020016003820180546102de9061141e565b80601f016020809104026020016040519081016040528092919081815260200182805461030a9061141e565b80156103575780601f1061032c57610100808354040283529160200191610357565b820191906000526020600020905b81548152906001019060200180831161033a57829003601f168201915b505050505081526020016004820180546103709061141e565b80601f016020809104026020016040519081016040528092919081815260200182805461039c9061141e565b80156103e95780601f106103be576101008083540402835291602001916103e9565b820191906000526020600020905b8154815290600101906020018083116103cc57829003601f168201915b50505050508152505082828151811061040457610404611453565b6020026020010181905250808061041a9061147f565b915050610178565b50919050565b600160008082825461043a919061149a565b9250508190555060405180610160016040528060005481526020018781526020018681526020018481526020018581526020018381526020018281526020018a81526020018881526020018981526020018b6001600160a01b031681525060026000805481526020019081526020016000206000820151816000015560208201518160010190805190602001906104d2929190610e31565b50604082015180516104ee916002840191602090910190610e31565b506060820151805161050a916003840191602090910190610e31565b5060808201518051610526916004840191602090910190610e31565b5060a08201518051610542916005840191602090910190610e31565b5060c0820151805161055e916006840191602090910190610e31565b5060e0820151805161057a916007840191602090910190610e31565b506101008201518051610597916008840191602090910190610e31565b5061012082015180516105b4916009840191602090910190610e31565b506101409190910151600a90910180546001600160a01b0319166001600160a01b0390921691909117905550505050505050505050565b6003602052600090815260409020805460018201805491929161060d9061141e565b80601f01602080910402602001604051908101604052809291908181526020018280546106399061141e565b80156106865780601f1061065b57610100808354040283529160200191610686565b820191906000526020600020905b81548152906001019060200180831161066957829003601f168201915b50505050509080600201805461069b9061141e565b80601f01602080910402602001604051908101604052809291908181526020018280546106c79061141e565b80156107145780601f106106e957610100808354040283529160200191610714565b820191906000526020600020905b8154815290600101906020018083116106f757829003601f168201915b5050505050908060030180546107299061141e565b80601f01602080910402602001604051908101604052809291908181526020018280546107559061141e565b80156107a25780601f10610777576101008083540402835291602001916107a2565b820191906000526020600020905b81548152906001019060200180831161078557829003601f168201915b5050505050908060040180546107b79061141e565b80601f01602080910402602001604051908101604052809291908181526020018280546107e39061141e565b80156108305780601f1061080557610100808354040283529160200191610830565b820191906000526020600020905b81548152906001019060200180831161081357829003601f168201915b5050505050905085565b6002602052600090815260409020805460018201805491929161085c9061141e565b80601f01602080910402602001604051908101604052809291908181526020018280546108889061141e565b80156108d55780601f106108aa576101008083540402835291602001916108d5565b820191906000526020600020905b8154815290600101906020018083116108b857829003601f168201915b5050505050908060020180546108ea9061141e565b80601f01602080910402602001604051908101604052809291908181526020018280546109169061141e565b80156109635780601f1061093857610100808354040283529160200191610963565b820191906000526020600020905b81548152906001019060200180831161094657829003601f168201915b5050505050908060030180546109789061141e565b80601f01602080910402602001604051908101604052809291908181526020018280546109a49061141e565b80156109f15780601f106109c6576101008083540402835291602001916109f1565b820191906000526020600020905b8154815290600101906020018083116109d457829003601f168201915b505050505090806004018054610a069061141e565b80601f0160208091040260200160405190810160405280929190818152602001828054610a329061141e565b8015610a7f5780601f10610a5457610100808354040283529160200191610a7f565b820191906000526020600020905b815481529060010190602001808311610a6257829003601f168201915b505050505090806005018054610a949061141e565b80601f0160208091040260200160405190810160405280929190818152602001828054610ac09061141e565b8015610b0d5780601f10610ae257610100808354040283529160200191610b0d565b820191906000526020600020905b815481529060010190602001808311610af057829003601f168201915b505050505090806006018054610b229061141e565b80601f0160208091040260200160405190810160405280929190818152602001828054610b4e9061141e565b8015610b9b5780601f10610b7057610100808354040283529160200191610b9b565b820191906000526020600020905b815481529060010190602001808311610b7e57829003601f168201915b505050505090806007018054610bb09061141e565b80601f0160208091040260200160405190810160405280929190818152602001828054610bdc9061141e565b8015610c295780601f10610bfe57610100808354040283529160200191610c29565b820191906000526020600020905b815481529060010190602001808311610c0c57829003601f168201915b505050505090806008018054610c3e9061141e565b80601f0160208091040260200160405190810160405280929190818152602001828054610c6a9061141e565b8015610cb75780601f10610c8c57610100808354040283529160200191610cb7565b820191906000526020600020905b815481529060010190602001808311610c9a57829003601f168201915b505050505090806009018054610ccc9061141e565b80601f0160208091040260200160405190810160405280929190818152602001828054610cf89061141e565b8015610d455780601f10610d1a57610100808354040283529160200191610d45565b820191906000526020600020905b815481529060010190602001808311610d2857829003601f168201915b505050600a90930154919250506001600160a01b03168b565b60015415610d7e576001806000828254610d7891906114b2565b90915550505b6040805160a0810182526001805480835260208084018981528486018790526060850189905260808501889052600092835260038252949091208351815593518051939493610dd4938501929190910190610e31565b5060408201518051610df0916002840191602090910190610e31565b5060608201518051610e0c916003840191602090910190610e31565b5060808201518051610e28916004840191602090910190610e31565b50505050505050565b828054610e3d9061141e565b90600052602060002090601f016020900481019282610e5f5760008555610ea5565b82601f10610e7857805160ff1916838001178555610ea5565b82800160010185558215610ea5579182015b82811115610ea5578251825591602001919060010190610e8a565b50610eb1929150610eb5565b5090565b5b80821115610eb15760008155600101610eb6565b6000815180845260005b81811015610ef057602081850181015186830182015201610ed4565b81811115610f02576000602083870101525b50601f01601f19169290920160200192915050565b60006020808301818452808551808352604092508286019150828160051b87010184880160005b83811015610fd057603f19898403018552815160a08151855288820151818a870152610f6c82870182610eca565b9150508782015185820389870152610f848282610eca565b91505060608083015186830382880152610f9e8382610eca565b9250505060808083015192508582038187015250610fbc8183610eca565b968901969450505090860190600101610f3e565b509098975050505050505050565b80356001600160a01b0381168114610ff557600080fd5b919050565b634e487b7160e01b600052604160045260246000fd5b600082601f83011261102157600080fd5b813567ffffffffffffffff8082111561103c5761103c610ffa565b604051601f8301601f19908116603f0116810190828211818310171561106457611064610ffa565b8160405283815286602085880101111561107d57600080fd5b836020870160208301376000602085830101528094505050505092915050565b6000806000806000806000806000806101408b8d0312156110bd57600080fd5b6110c68b610fde565b995060208b013567ffffffffffffffff808211156110e357600080fd5b6110ef8e838f01611010565b9a5060408d013591508082111561110557600080fd5b6111118e838f01611010565b995060608d013591508082111561112757600080fd5b6111338e838f01611010565b985060808d013591508082111561114957600080fd5b6111558e838f01611010565b975060a08d013591508082111561116b57600080fd5b6111778e838f01611010565b965060c08d013591508082111561118d57600080fd5b6111998e838f01611010565b955060e08d01359150808211156111af57600080fd5b6111bb8e838f01611010565b94506101008d01359150808211156111d257600080fd5b6111de8e838f01611010565b93506101208d01359150808211156111f557600080fd5b506112028d828e01611010565b9150509295989b9194979a5092959850565b60006020828403121561122657600080fd5b5035919050565b85815260a06020820152600061124660a0830187610eca565b82810360408401526112588187610eca565b9050828103606084015261126c8186610eca565b905082810360808401526112808185610eca565b98975050505050505050565b60006101608d83528060208401526112a68184018e610eca565b905082810360408401526112ba818d610eca565b905082810360608401526112ce818c610eca565b905082810360808401526112e2818b610eca565b905082810360a08401526112f6818a610eca565b905082810360c084015261130a8189610eca565b905082810360e084015261131e8188610eca565b90508281036101008401526113338187610eca565b90508281036101208401526113488186610eca565b9150506113616101408301846001600160a01b03169052565b9c9b505050505050505050505050565b6000806000806080858703121561138757600080fd5b843567ffffffffffffffff8082111561139f57600080fd5b6113ab88838901611010565b955060208701359150808211156113c157600080fd5b6113cd88838901611010565b945060408701359150808211156113e357600080fd5b6113ef88838901611010565b9350606087013591508082111561140557600080fd5b5061141287828801611010565b91505092959194509250565b600181811c9082168061143257607f821691505b6020821081141561042257634e487b7160e01b600052602260045260246000fd5b634e487b7160e01b600052603260045260246000fd5b634e487b7160e01b600052601160045260246000fd5b600060001982141561149357611493611469565b5060010190565b600082198211156114ad576114ad611469565b500190565b6000828210156114c4576114c4611469565b50039056fea2646970667358221220a05e06f290932a4dc83e8c74caabed5821c91d612f0287b1acef22d73e24f73964736f6c634300080a0033",
    "sourcePath": "f:/Sem 7/IBC/Blockchain-Project-DAPP-Healthcare/contracts/MedicalKit.sol",
    "compiler": {
        "name": "solc",
        "version": "0.8.10+commit.fc410830"
    },
    "functionHashes": {
        "Add_Nurse(address,string,string,string,string,string,string,string,string,string)": "3cd79060",
        "Get_MedicalKit(string,string,string,string)": "cea9c96c",
        "MedicalKits(uint256)": "45e7e8a9",
        "Nurses(uint256)": "9f442e03",
        "getAll_MedicalKits()": "0441edcc"
    },
    "gasEstimates": {
        "creation": {
            "codeDepositCost": "1075000",
            "executionCost": "28226",
            "totalCost": "1103226"
        },
        "external": {
            "Add_Nurse(address,string,string,string,string,string,string,string,string,string)": "infinite",
            "Get_MedicalKit(string,string,string,string)": "infinite",
            "MedicalKits(uint256)": "infinite",
            "Nurses(uint256)": "infinite",
            "getAll_MedicalKits()": "infinite"
        }
    }
}