{
  "contractName": "DrugAdministration",
  "abi": [
    {
      "inputs": [
        {
          "internalType": "uint256",
          "name": "",
          "type": "uint256"
        }
      ],
      "name": "Nurse_confirmed_Appointment",
      "outputs": [
        {
          "internalType": "uint256",
          "name": "_id",
          "type": "uint256"
        },
        {
          "internalType": "string",
          "name": "Nurse_name",
          "type": "string"
        },
        {
          "internalType": "string",
          "name": "Nurse_email",
          "type": "string"
        },
        {
          "internalType": "string",
          "name": "Patient_name",
          "type": "string"
        },
        {
          "internalType": "string",
          "name": "Patient_email",
          "type": "string"
        },
        {
          "internalType": "string",
          "name": "Appointment_time",
          "type": "string"
        },
        {
          "internalType": "string",
          "name": "Appointment_reason",
          "type": "string"
        }
      ],
      "stateMutability": "view",
      "type": "function"
    },
    {
      "inputs": [
        {
          "internalType": "uint256",
          "name": "",
          "type": "uint256"
        }
      ],
      "name": "Patient_confirmed_Appointment",
      "outputs": [
        {
          "internalType": "uint256",
          "name": "_id",
          "type": "uint256"
        },
        {
          "internalType": "string",
          "name": "Nurse_name",
          "type": "string"
        },
        {
          "internalType": "string",
          "name": "Nurse_email",
          "type": "string"
        },
        {
          "internalType": "string",
          "name": "Patient_name",
          "type": "string"
        },
        {
          "internalType": "string",
          "name": "Patient_email",
          "type": "string"
        },
        {
          "internalType": "string",
          "name": "Appointment_time",
          "type": "string"
        },
        {
          "internalType": "string",
          "name": "Appointment_reason",
          "type": "string"
        }
      ],
      "stateMutability": "view",
      "type": "function"
    },
    {
      "inputs": [
        {
          "internalType": "uint256",
          "name": "",
          "type": "uint256"
        }
      ],
      "name": "vital_check",
      "outputs": [
        {
          "internalType": "uint256",
          "name": "_id",
          "type": "uint256"
        },
        {
          "internalType": "uint256",
          "name": "_Blood_pressure",
          "type": "uint256"
        },
        {
          "internalType": "uint256",
          "name": "_temprature",
          "type": "uint256"
        },
        {
          "internalType": "uint256",
          "name": "_oxygen_satutation",
          "type": "uint256"
        },
        {
          "internalType": "uint256",
          "name": "_heart_rate",
          "type": "uint256"
        }
      ],
      "stateMutability": "view",
      "type": "function"
    },
    {
      "inputs": [
        {
          "internalType": "string",
          "name": "Nurse_name",
          "type": "string"
        },
        {
          "internalType": "string",
          "name": "Patient_name",
          "type": "string"
        },
        {
          "internalType": "string",
          "name": "Nurse_email",
          "type": "string"
        },
        {
          "internalType": "string",
          "name": "Patient_email",
          "type": "string"
        },
        {
          "internalType": "string",
          "name": "Appoint_time",
          "type": "string"
        },
        {
          "internalType": "string",
          "name": "reason",
          "type": "string"
        }
      ],
      "name": "Nurse_appointment_confirmation",
      "outputs": [],
      "stateMutability": "nonpayable",
      "type": "function"
    },
    {
      "inputs": [
        {
          "internalType": "string",
          "name": "Nurse_name",
          "type": "string"
        },
        {
          "internalType": "string",
          "name": "Patient_name",
          "type": "string"
        },
        {
          "internalType": "string",
          "name": "Nurse_email",
          "type": "string"
        },
        {
          "internalType": "string",
          "name": "Patient_email",
          "type": "string"
        },
        {
          "internalType": "string",
          "name": "Appoint_time",
          "type": "string"
        },
        {
          "internalType": "string",
          "name": "reason",
          "type": "string"
        }
      ],
      "name": "Patient_appointment_confirmation",
      "outputs": [],
      "stateMutability": "nonpayable",
      "type": "function"
    },
    {
      "inputs": [
        {
          "internalType": "uint256",
          "name": "Patient_id",
          "type": "uint256"
        },
        {
          "internalType": "uint256",
          "name": "bp",
          "type": "uint256"
        },
        {
          "internalType": "uint256",
          "name": "temp",
          "type": "uint256"
        },
        {
          "internalType": "uint256",
          "name": "oxy_sat",
          "type": "uint256"
        },
        {
          "internalType": "uint256",
          "name": "hr",
          "type": "uint256"
        }
      ],
      "name": "Patient_vital_checkup_by_nurse",
      "outputs": [],
      "stateMutability": "nonpayable",
      "type": "function"
    },
    {
      "inputs": [],
      "name": "AdministerMeds",
      "outputs": [],
      "stateMutability": "nonpayable",
      "type": "function"
    }
  ],
  "bytecode": "0x60806040526000805560006001556000600255600060035534801561002357600080fd5b506111ea806100336000396000f3fe608060405234801561001057600080fd5b506004361061007d5760003560e01c80636a81c7d51161005b5780636a81c7d5146100f05780637bf8720614610124578063930cbcab1461015a578063f7dd93e0146101765761007d565b80630a5943f2146100825780631062e68e1461009e5780632a761e00146100ba575b600080fd5b61009c60048036038101906100979190610ddd565b610180565b005b6100b860048036038101906100b39190610c9b565b610212565b005b6100d460048036038101906100cf9190610db4565b610339565b6040516100e79796959493929190610e9c565b60405180910390f35b61010a60048036038101906101059190610db4565b6106ab565b60405161011b959493929190610f35565b60405180910390f35b61013e60048036038101906101399190610db4565b6106e1565b6040516101519796959493929190610e9c565b60405180910390f35b610174600480360381019061016f9190610c9b565b610a53565b005b61017e610b79565b005b6001600360008282546101939190610ffa565b925050819055506040518060a001604052808681526020018581526020018481526020018381526020018281525060066000600354815260200190815260200160002060008201518160000155602082015181600101556040820151816002015560608201518160030155608082015181600401559050505050505050565b6001600260008282546102259190610ffa565b925050819055506040518060e0016040528060025481526020018781526020018681526020018581526020018481526020018381526020018281525060056000600254815260200190815260200160002060008201518160000155602082015181600101908051906020019061029c929190610b7b565b5060408201518160020190805190602001906102b9929190610b7b565b5060608201518160030190805190602001906102d6929190610b7b565b5060808201518160040190805190602001906102f3929190610b7b565b5060a0820151816005019080519060200190610310929190610b7b565b5060c082015181600601908051906020019061032d929190610b7b565b50905050505050505050565b60056020528060005260406000206000915090508060000154908060010180546103629061109c565b80601f016020809104026020016040519081016040528092919081815260200182805461038e9061109c565b80156103db5780601f106103b0576101008083540402835291602001916103db565b820191906000526020600020905b8154815290600101906020018083116103be57829003601f168201915b5050505050908060020180546103f09061109c565b80601f016020809104026020016040519081016040528092919081815260200182805461041c9061109c565b80156104695780601f1061043e57610100808354040283529160200191610469565b820191906000526020600020905b81548152906001019060200180831161044c57829003601f168201915b50505050509080600301805461047e9061109c565b80601f01602080910402602001604051908101604052809291908181526020018280546104aa9061109c565b80156104f75780601f106104cc576101008083540402835291602001916104f7565b820191906000526020600020905b8154815290600101906020018083116104da57829003601f168201915b50505050509080600401805461050c9061109c565b80601f01602080910402602001604051908101604052809291908181526020018280546105389061109c565b80156105855780601f1061055a57610100808354040283529160200191610585565b820191906000526020600020905b81548152906001019060200180831161056857829003601f168201915b50505050509080600501805461059a9061109c565b80601f01602080910402602001604051908101604052809291908181526020018280546105c69061109c565b80156106135780601f106105e857610100808354040283529160200191610613565b820191906000526020600020905b8154815290600101906020018083116105f657829003601f168201915b5050505050908060060180546106289061109c565b80601f01602080910402602001604051908101604052809291908181526020018280546106549061109c565b80156106a15780601f10610676576101008083540402835291602001916106a1565b820191906000526020600020905b81548152906001019060200180831161068457829003601f168201915b5050505050905087565b60066020528060005260406000206000915090508060000154908060010154908060020154908060030154908060040154905085565b600460205280600052604060002060009150905080600001549080600101805461070a9061109c565b80601f01602080910402602001604051908101604052809291908181526020018280546107369061109c565b80156107835780601f1061075857610100808354040283529160200191610783565b820191906000526020600020905b81548152906001019060200180831161076657829003601f168201915b5050505050908060020180546107989061109c565b80601f01602080910402602001604051908101604052809291908181526020018280546107c49061109c565b80156108115780601f106107e657610100808354040283529160200191610811565b820191906000526020600020905b8154815290600101906020018083116107f457829003601f168201915b5050505050908060030180546108269061109c565b80601f01602080910402602001604051908101604052809291908181526020018280546108529061109c565b801561089f5780601f106108745761010080835404028352916020019161089f565b820191906000526020600020905b81548152906001019060200180831161088257829003601f168201915b5050505050908060040180546108b49061109c565b80601f01602080910402602001604051908101604052809291908181526020018280546108e09061109c565b801561092d5780601f106109025761010080835404028352916020019161092d565b820191906000526020600020905b81548152906001019060200180831161091057829003601f168201915b5050505050908060050180546109429061109c565b80601f016020809104026020016040519081016040528092919081815260200182805461096e9061109c565b80156109bb5780601f10610990576101008083540402835291602001916109bb565b820191906000526020600020905b81548152906001019060200180831161099e57829003601f168201915b5050505050908060060180546109d09061109c565b80601f01602080910402602001604051908101604052809291908181526020018280546109fc9061109c565b8015610a495780601f10610a1e57610100808354040283529160200191610a49565b820191906000526020600020905b815481529060010190602001808311610a2c57829003601f168201915b5050505050905087565b6001806000828254610a659190610ffa565b925050819055506040518060e00160405280600154815260200187815260200186815260200185815260200184815260200183815260200182815250600460006001548152602001908152602001600020600082015181600001556020820151816001019080519060200190610adc929190610b7b565b506040820151816002019080519060200190610af9929190610b7b565b506060820151816003019080519060200190610b16929190610b7b565b506080820151816004019080519060200190610b33929190610b7b565b5060a0820151816005019080519060200190610b50929190610b7b565b5060c0820151816006019080519060200190610b6d929190610b7b565b50905050505050505050565b565b828054610b879061109c565b90600052602060002090601f016020900481019282610ba95760008555610bf0565b82601f10610bc257805160ff1916838001178555610bf0565b82800160010185558215610bf0579182015b82811115610bef578251825591602001919060010190610bd4565b5b509050610bfd9190610c01565b5090565b5b80821115610c1a576000816000905550600101610c02565b5090565b6000610c31610c2c84610fad565b610f88565b905082815260208101848484011115610c4957600080fd5b610c5484828561105a565b509392505050565b600082601f830112610c6d57600080fd5b8135610c7d848260208601610c1e565b91505092915050565b600081359050610c958161119d565b92915050565b60008060008060008060c08789031215610cb457600080fd5b600087013567ffffffffffffffff811115610cce57600080fd5b610cda89828a01610c5c565b965050602087013567ffffffffffffffff811115610cf757600080fd5b610d0389828a01610c5c565b955050604087013567ffffffffffffffff811115610d2057600080fd5b610d2c89828a01610c5c565b945050606087013567ffffffffffffffff811115610d4957600080fd5b610d5589828a01610c5c565b935050608087013567ffffffffffffffff811115610d7257600080fd5b610d7e89828a01610c5c565b92505060a087013567ffffffffffffffff811115610d9b57600080fd5b610da789828a01610c5c565b9150509295509295509295565b600060208284031215610dc657600080fd5b6000610dd484828501610c86565b91505092915050565b600080600080600060a08688031215610df557600080fd5b6000610e0388828901610c86565b9550506020610e1488828901610c86565b9450506040610e2588828901610c86565b9350506060610e3688828901610c86565b9250506080610e4788828901610c86565b9150509295509295909350565b6000610e5f82610fde565b610e698185610fe9565b9350610e79818560208601611069565b610e828161118c565b840191505092915050565b610e9681611050565b82525050565b600060e082019050610eb1600083018a610e8d565b8181036020830152610ec38189610e54565b90508181036040830152610ed78188610e54565b90508181036060830152610eeb8187610e54565b90508181036080830152610eff8186610e54565b905081810360a0830152610f138185610e54565b905081810360c0830152610f278184610e54565b905098975050505050505050565b600060a082019050610f4a6000830188610e8d565b610f576020830187610e8d565b610f646040830186610e8d565b610f716060830185610e8d565b610f7e6080830184610e8d565b9695505050505050565b6000610f92610fa3565b9050610f9e82826110ce565b919050565b6000604051905090565b600067ffffffffffffffff821115610fc857610fc761115d565b5b610fd18261118c565b9050602081019050919050565b600081519050919050565b600082825260208201905092915050565b600061100582611050565b915061101083611050565b9250827fffffffffffffffffffffffffffffffffffffffffffffffffffffffffffffffff03821115611045576110446110ff565b5b828201905092915050565b6000819050919050565b82818337600083830152505050565b60005b8381101561108757808201518184015260208101905061106c565b83811115611096576000848401525b50505050565b600060028204905060018216806110b457607f821691505b602082108114156110c8576110c761112e565b5b50919050565b6110d78261118c565b810181811067ffffffffffffffff821117156110f6576110f561115d565b5b80604052505050565b7f4e487b7100000000000000000000000000000000000000000000000000000000600052601160045260246000fd5b7f4e487b7100000000000000000000000000000000000000000000000000000000600052602260045260246000fd5b7f4e487b7100000000000000000000000000000000000000000000000000000000600052604160045260246000fd5b6000601f19601f8301169050919050565b6111a681611050565b81146111b157600080fd5b5056fea26469706673582212208e443a7654f7b2a4aa451f86f66ec4e2bc883906af8a1a5a5583fda7702ab35064736f6c63430008040033",
  "immutableReferences": {},
  "source": "// SPDX-License-Identifier: MIT\r\npragma solidity ^0.8.4;\r\n\r\ncontract DrugAdministration{\r\n    uint256 nurse_count = 0;\r\n    uint256 Nurse_confirmed_appointment_count = 0;\r\n    uint256 Patient_confirmed_appointment_count = 0;\r\n    uint256 vital_check_count = 0;\r\n    mapping(uint => _Nurse_confirmed_Appointment) public Nurse_confirmed_Appointment;\r\n    mapping(uint => _Patient_confirmed_Appointment) public Patient_confirmed_Appointment;\r\n    mapping(uint => _vital_check) public vital_check;\r\n\r\n    struct _Nurse_confirmed_Appointment{\r\n        uint _id;\r\n        string Nurse_name;\r\n        string Nurse_email;\r\n        string Patient_name;\r\n        string Patient_email;\r\n        string Appointment_time;\r\n        string Appointment_reason;\r\n    }\r\n    struct _Patient_confirmed_Appointment{\r\n        uint _id;\r\n        string Nurse_name;\r\n        string Nurse_email;\r\n        string Patient_name;\r\n        string Patient_email;\r\n        string Appointment_time;\r\n        string Appointment_reason;\r\n    }\r\n        struct _vital_check{\r\n        uint _id;\r\n        uint _Blood_pressure;\r\n        uint _temprature;\r\n        uint _oxygen_satutation;\r\n        uint _heart_rate;\r\n    }\r\n\r\n    function Nurse_appointment_confirmation(string memory Nurse_name,string memory Patient_name,string memory Nurse_email,string memory Patient_email,string memory Appoint_time,string memory reason)\r\n    public{\r\n        Nurse_confirmed_appointment_count+=1;\r\n        Nurse_confirmed_Appointment[Nurse_confirmed_appointment_count]=_Nurse_confirmed_Appointment(Nurse_confirmed_appointment_count,Nurse_name,Patient_name,Nurse_email,Patient_email,Appoint_time,reason);\r\n    }\r\n\r\n    function Patient_appointment_confirmation(string memory Nurse_name,string memory Patient_name,string memory Nurse_email,string memory Patient_email,string memory Appoint_time,string memory reason)\r\n    public{\r\n        Patient_confirmed_appointment_count+=1;\r\n        Patient_confirmed_Appointment[Patient_confirmed_appointment_count]=_Patient_confirmed_Appointment(Patient_confirmed_appointment_count,Nurse_name,Patient_name,Nurse_email,Patient_email,Appoint_time,reason);\r\n    }\r\n    \r\n    // function Doc_call_initiate(string memory Docton_name,string memory Patient_name,string memory Doctor_email,string memory Patient_emai,string memory timestamp)\r\n    // public{\r\n    //     call_initiated +=1;\r\n    //     call_start_time=timestamp;\r\n    // }\r\n\r\n    function Patient_vital_checkup_by_nurse(uint Patient_id,uint bp,uint temp,uint oxy_sat,uint hr)\r\n    public{\r\n        vital_check_count+=1;\r\n        vital_check[vital_check_count]=_vital_check(Patient_id,bp,temp,oxy_sat,hr);\r\n    }\r\n\r\n    function AdministerMeds()\r\n    public{\r\n    \r\n    }\r\n}",
  "sourcePath": "F:\\Sem 7\\IBC\\Blockchain-Project-DAPP-Healthcare\\contracts\\DrugAdministration.sol",
  "compiler": {
    "name": "solc",
    "version": "0.8.4+commit.c7e474f2.Emscripten.clang"
  },
  "schemaVersion": "3.4.3",
  "updatedAt": "2021-12-21T20:27:20.765Z",
  "devdoc": {
    "kind": "dev",
    "methods": {},
    "version": 1
  },
  "userdoc": {
    "kind": "user",
    "methods": {},
    "version": 1
  }
}