{
  "contractName": "hospital",
  "abi": [
    {
      "inputs": [
        {
          "internalType": "uint256",
          "name": "",
          "type": "uint256"
        }
      ],
      "name": "Appointments",
      "outputs": [
        {
          "internalType": "uint256",
          "name": "_id",
          "type": "uint256"
        },
        {
          "internalType": "string",
          "name": "Doctor_name",
          "type": "string"
        },
        {
          "internalType": "string",
          "name": "Patient_name",
          "type": "string"
        },
        {
          "internalType": "string",
          "name": "doc_email",
          "type": "string"
        },
        {
          "internalType": "string",
          "name": "patient_email",
          "type": "string"
        },
        {
          "internalType": "string",
          "name": "Appointment_time",
          "type": "string"
        },
        {
          "internalType": "string",
          "name": "Appointment_reason",
          "type": "string"
        }
      ],
      "stateMutability": "view",
      "type": "function"
    },
    {
      "inputs": [
        {
          "internalType": "uint256",
          "name": "",
          "type": "uint256"
        }
      ],
      "name": "Doctors",
      "outputs": [
        {
          "internalType": "uint256",
          "name": "doc_id",
          "type": "uint256"
        },
        {
          "internalType": "string",
          "name": "_firstName",
          "type": "string"
        },
        {
          "internalType": "string",
          "name": "_lastName",
          "type": "string"
        },
        {
          "internalType": "string",
          "name": "Contact_number",
          "type": "string"
        },
        {
          "internalType": "string",
          "name": "Emergency_number",
          "type": "string"
        },
        {
          "internalType": "string",
          "name": "_address",
          "type": "string"
        },
        {
          "internalType": "string",
          "name": "email",
          "type": "string"
        },
        {
          "internalType": "string",
          "name": "dob",
          "type": "string"
        },
        {
          "internalType": "string",
          "name": "martial_status",
          "type": "string"
        },
        {
          "internalType": "string",
          "name": "sex",
          "type": "string"
        },
        {
          "internalType": "string",
          "name": "qualification",
          "type": "string"
        },
        {
          "internalType": "address",
          "name": "AccountAddress",
          "type": "address"
        }
      ],
      "stateMutability": "view",
      "type": "function"
    },
    {
      "inputs": [
        {
          "internalType": "uint256",
          "name": "",
          "type": "uint256"
        }
      ],
      "name": "Patient_list",
      "outputs": [
        {
          "internalType": "uint256",
          "name": "_id",
          "type": "uint256"
        },
        {
          "internalType": "string",
          "name": "_firstName",
          "type": "string"
        },
        {
          "internalType": "string",
          "name": "_lastName",
          "type": "string"
        },
        {
          "internalType": "string",
          "name": "Contact_number",
          "type": "string"
        },
        {
          "internalType": "string",
          "name": "Emergency_number",
          "type": "string"
        },
        {
          "internalType": "string",
          "name": "_address",
          "type": "string"
        },
        {
          "internalType": "string",
          "name": "email",
          "type": "string"
        },
        {
          "internalType": "string",
          "name": "dob",
          "type": "string"
        },
        {
          "internalType": "string",
          "name": "martial_status",
          "type": "string"
        },
        {
          "internalType": "string",
          "name": "sex",
          "type": "string"
        },
        {
          "internalType": "address",
          "name": "AccountAddress",
          "type": "address"
        }
      ],
      "stateMutability": "view",
      "type": "function"
    },
    {
      "inputs": [
        {
          "internalType": "string",
          "name": "qualification",
          "type": "string"
        },
        {
          "internalType": "address",
          "name": "AccAddress",
          "type": "address"
        },
        {
          "internalType": "string",
          "name": "dob",
          "type": "string"
        },
        {
          "internalType": "string",
          "name": "sex",
          "type": "string"
        },
        {
          "internalType": "string",
          "name": "martial_status",
          "type": "string"
        },
        {
          "internalType": "string",
          "name": "_firstName",
          "type": "string"
        },
        {
          "internalType": "string",
          "name": "_lastName",
          "type": "string"
        },
        {
          "internalType": "string",
          "name": "emergency_num",
          "type": "string"
        },
        {
          "internalType": "string",
          "name": "contact_num",
          "type": "string"
        },
        {
          "internalType": "string",
          "name": "_Address",
          "type": "string"
        },
        {
          "internalType": "string",
          "name": "email",
          "type": "string"
        }
      ],
      "name": "Add_Doctor",
      "outputs": [],
      "stateMutability": "nonpayable",
      "type": "function"
    },
    {
      "inputs": [],
      "name": "hello",
      "outputs": [
        {
          "internalType": "string",
          "name": "",
          "type": "string"
        }
      ],
      "stateMutability": "pure",
      "type": "function"
    },
    {
      "inputs": [
        {
          "internalType": "string",
          "name": "doc_name",
          "type": "string"
        },
        {
          "internalType": "string",
          "name": "patient_name",
          "type": "string"
        },
        {
          "internalType": "string",
          "name": "Appoint_time",
          "type": "string"
        },
        {
          "internalType": "string",
          "name": "reason",
          "type": "string"
        },
        {
          "internalType": "string",
          "name": "doc_email",
          "type": "string"
        },
        {
          "internalType": "string",
          "name": "patient_email",
          "type": "string"
        }
      ],
      "name": "Get_appointment",
      "outputs": [],
      "stateMutability": "nonpayable",
      "type": "function"
    },
    {
      "inputs": [
        {
          "internalType": "address",
          "name": "Accaddress",
          "type": "address"
        },
        {
          "internalType": "string",
          "name": "dob",
          "type": "string"
        },
        {
          "internalType": "string",
          "name": "sex",
          "type": "string"
        },
        {
          "internalType": "string",
          "name": "martial_status",
          "type": "string"
        },
        {
          "internalType": "string",
          "name": "_firstName",
          "type": "string"
        },
        {
          "internalType": "string",
          "name": "_lastName",
          "type": "string"
        },
        {
          "internalType": "string",
          "name": "emergency_num",
          "type": "string"
        },
        {
          "internalType": "string",
          "name": "contact_num",
          "type": "string"
        },
        {
          "internalType": "string",
          "name": "_Address",
          "type": "string"
        },
        {
          "internalType": "string",
          "name": "email",
          "type": "string"
        }
      ],
      "name": "Register_patient",
      "outputs": [],
      "stateMutability": "nonpayable",
      "type": "function"
    },
    {
      "inputs": [],
      "name": "getAll_Doctors",
      "outputs": [
        {
          "components": [
            {
              "internalType": "uint256",
              "name": "doc_id",
              "type": "uint256"
            },
            {
              "internalType": "string",
              "name": "_firstName",
              "type": "string"
            },
            {
              "internalType": "string",
              "name": "_lastName",
              "type": "string"
            },
            {
              "internalType": "string",
              "name": "Contact_number",
              "type": "string"
            },
            {
              "internalType": "string",
              "name": "Emergency_number",
              "type": "string"
            },
            {
              "internalType": "string",
              "name": "_address",
              "type": "string"
            },
            {
              "internalType": "string",
              "name": "email",
              "type": "string"
            },
            {
              "internalType": "string",
              "name": "dob",
              "type": "string"
            },
            {
              "internalType": "string",
              "name": "martial_status",
              "type": "string"
            },
            {
              "internalType": "string",
              "name": "sex",
              "type": "string"
            },
            {
              "internalType": "string",
              "name": "qualification",
              "type": "string"
            },
            {
              "internalType": "address",
              "name": "AccountAddress",
              "type": "address"
            }
          ],
          "internalType": "struct hospital.Doctor[]",
          "name": "",
          "type": "tuple[]"
        }
      ],
      "stateMutability": "view",
      "type": "function"
    },
    {
      "inputs": [],
      "name": "getAll_Patients",
      "outputs": [
        {
          "components": [
            {
              "internalType": "uint256",
              "name": "_id",
              "type": "uint256"
            },
            {
              "internalType": "string",
              "name": "_firstName",
              "type": "string"
            },
            {
              "internalType": "string",
              "name": "_lastName",
              "type": "string"
            },
            {
              "internalType": "string",
              "name": "Contact_number",
              "type": "string"
            },
            {
              "internalType": "string",
              "name": "Emergency_number",
              "type": "string"
            },
            {
              "internalType": "string",
              "name": "_address",
              "type": "string"
            },
            {
              "internalType": "string",
              "name": "email",
              "type": "string"
            },
            {
              "internalType": "string",
              "name": "dob",
              "type": "string"
            },
            {
              "internalType": "string",
              "name": "martial_status",
              "type": "string"
            },
            {
              "internalType": "string",
              "name": "sex",
              "type": "string"
            },
            {
              "internalType": "address",
              "name": "AccountAddress",
              "type": "address"
            }
          ],
          "internalType": "struct hospital.Patient[]",
          "name": "",
          "type": "tuple[]"
        }
      ],
      "stateMutability": "view",
      "type": "function"
    },
    {
      "inputs": [],
      "name": "getAll_Appointments",
      "outputs": [
        {
          "components": [
            {
              "internalType": "uint256",
              "name": "_id",
              "type": "uint256"
            },
            {
              "internalType": "string",
              "name": "Doctor_name",
              "type": "string"
            },
            {
              "internalType": "string",
              "name": "Patient_name",
              "type": "string"
            },
            {
              "internalType": "string",
              "name": "doc_email",
              "type": "string"
            },
            {
              "internalType": "string",
              "name": "patient_email",
              "type": "string"
            },
            {
              "internalType": "string",
              "name": "Appointment_time",
              "type": "string"
            },
            {
              "internalType": "string",
              "name": "Appointment_reason",
              "type": "string"
            }
          ],
          "internalType": "struct hospital._Appointment[]",
          "name": "",
          "type": "tuple[]"
        }
      ],
      "stateMutability": "view",
      "type": "function"
    }
  ],
  "bytecode": "0x6080604052600080556000600155600060025534801561001e57600080fd5b50613ba68061002e6000396000f3fe608060405234801561001057600080fd5b506004361061009e5760003560e01c806350869382116100665780635086938214610170578063560df47e1461018c57806384025ebf146101aa578063e13f6575146101c6578063e47cb5ef146101fc5761009e565b80630b390d61146100a357806319ff1d21146100c157806327151672146100df5780632e2a5ea61461011a57806345e5f48614610154575b600080fd5b6100ab61021a565b6040516100b8919061352f565b60405180910390f35b6100c961069c565b6040516100d69190613551565b60405180910390f35b6100f960048036038101906100f49190612f50565b6106d9565b6040516101119c9b9a999897969594939291906136f6565b60405180910390f35b610134600480360381019061012f9190612f50565b610ca9565b60405161014b9b9a9998979695949392919061360c565b60405180910390f35b61016e60048036038101906101699190612c57565b6111eb565b005b61018a60048036038101906101859190612e37565b611409565b005b610194611530565b6040516101a1919061350d565b60405180910390f35b6101c460048036038101906101bf9190612aa4565b611bbf565b005b6101e060048036038101906101db9190612f50565b611db9565b6040516101f39796959493929190613573565b60405180910390f35b61020461212b565b60405161021191906134eb565b60405180910390f35b6060600060025467ffffffffffffffff811115610260577f4e487b7100000000000000000000000000000000000000000000000000000000600052604160045260246000fd5b60405190808252806020026020018201604052801561029957816020015b61028661284b565b81526020019060019003908161027e5790505b50905060005b60025481101561069457600560008281526020019081526020016000206040518060e0016040529081600082015481526020016001820180546102e1906139f8565b80601f016020809104026020016040519081016040528092919081815260200182805461030d906139f8565b801561035a5780601f1061032f5761010080835404028352916020019161035a565b820191906000526020600020905b81548152906001019060200180831161033d57829003601f168201915b50505050508152602001600282018054610373906139f8565b80601f016020809104026020016040519081016040528092919081815260200182805461039f906139f8565b80156103ec5780601f106103c1576101008083540402835291602001916103ec565b820191906000526020600020905b8154815290600101906020018083116103cf57829003601f168201915b50505050508152602001600382018054610405906139f8565b80601f0160208091040260200160405190810160405280929190818152602001828054610431906139f8565b801561047e5780601f106104535761010080835404028352916020019161047e565b820191906000526020600020905b81548152906001019060200180831161046157829003601f168201915b50505050508152602001600482018054610497906139f8565b80601f01602080910402602001604051908101604052809291908181526020018280546104c3906139f8565b80156105105780601f106104e557610100808354040283529160200191610510565b820191906000526020600020905b8154815290600101906020018083116104f357829003601f168201915b50505050508152602001600582018054610529906139f8565b80601f0160208091040260200160405190810160405280929190818152602001828054610555906139f8565b80156105a25780601f10610577576101008083540402835291602001916105a2565b820191906000526020600020905b81548152906001019060200180831161058557829003601f168201915b505050505081526020016006820180546105bb906139f8565b80601f01602080910402602001604051908101604052809291908181526020018280546105e7906139f8565b80156106345780601f1061060957610100808354040283529160200191610634565b820191906000526020600020905b81548152906001019060200180831161061757829003601f168201915b505050505081525050828281518110610676577f4e487b7100000000000000000000000000000000000000000000000000000000600052603260045260246000fd5b6020026020010181905250808061068c90613a5b565b91505061029f565b508091505090565b60606040518060400160405280600481526020017f5465737400000000000000000000000000000000000000000000000000000000815250905090565b6003602052806000526040600020600091509050806000015490806001018054610702906139f8565b80601f016020809104026020016040519081016040528092919081815260200182805461072e906139f8565b801561077b5780601f106107505761010080835404028352916020019161077b565b820191906000526020600020905b81548152906001019060200180831161075e57829003601f168201915b505050505090806002018054610790906139f8565b80601f01602080910402602001604051908101604052809291908181526020018280546107bc906139f8565b80156108095780601f106107de57610100808354040283529160200191610809565b820191906000526020600020905b8154815290600101906020018083116107ec57829003601f168201915b50505050509080600301805461081e906139f8565b80601f016020809104026020016040519081016040528092919081815260200182805461084a906139f8565b80156108975780601f1061086c57610100808354040283529160200191610897565b820191906000526020600020905b81548152906001019060200180831161087a57829003601f168201915b5050505050908060040180546108ac906139f8565b80601f01602080910402602001604051908101604052809291908181526020018280546108d8906139f8565b80156109255780601f106108fa57610100808354040283529160200191610925565b820191906000526020600020905b81548152906001019060200180831161090857829003601f168201915b50505050509080600501805461093a906139f8565b80601f0160208091040260200160405190810160405280929190818152602001828054610966906139f8565b80156109b35780601f10610988576101008083540402835291602001916109b3565b820191906000526020600020905b81548152906001019060200180831161099657829003601f168201915b5050505050908060060180546109c8906139f8565b80601f01602080910402602001604051908101604052809291908181526020018280546109f4906139f8565b8015610a415780601f10610a1657610100808354040283529160200191610a41565b820191906000526020600020905b815481529060010190602001808311610a2457829003601f168201915b505050505090806007018054610a56906139f8565b80601f0160208091040260200160405190810160405280929190818152602001828054610a82906139f8565b8015610acf5780601f10610aa457610100808354040283529160200191610acf565b820191906000526020600020905b815481529060010190602001808311610ab257829003601f168201915b505050505090806008018054610ae4906139f8565b80601f0160208091040260200160405190810160405280929190818152602001828054610b10906139f8565b8015610b5d5780601f10610b3257610100808354040283529160200191610b5d565b820191906000526020600020905b815481529060010190602001808311610b4057829003601f168201915b505050505090806009018054610b72906139f8565b80601f0160208091040260200160405190810160405280929190818152602001828054610b9e906139f8565b8015610beb5780601f10610bc057610100808354040283529160200191610beb565b820191906000526020600020905b815481529060010190602001808311610bce57829003601f168201915b50505050509080600a018054610c00906139f8565b80601f0160208091040260200160405190810160405280929190818152602001828054610c2c906139f8565b8015610c795780601f10610c4e57610100808354040283529160200191610c79565b820191906000526020600020905b815481529060010190602001808311610c5c57829003601f168201915b50505050509080600b0160009054906101000a900473ffffffffffffffffffffffffffffffffffffffff1690508c565b6004602052806000526040600020600091509050806000015490806001018054610cd2906139f8565b80601f0160208091040260200160405190810160405280929190818152602001828054610cfe906139f8565b8015610d4b5780601f10610d2057610100808354040283529160200191610d4b565b820191906000526020600020905b815481529060010190602001808311610d2e57829003601f168201915b505050505090806002018054610d60906139f8565b80601f0160208091040260200160405190810160405280929190818152602001828054610d8c906139f8565b8015610dd95780601f10610dae57610100808354040283529160200191610dd9565b820191906000526020600020905b815481529060010190602001808311610dbc57829003601f168201915b505050505090806003018054610dee906139f8565b80601f0160208091040260200160405190810160405280929190818152602001828054610e1a906139f8565b8015610e675780601f10610e3c57610100808354040283529160200191610e67565b820191906000526020600020905b815481529060010190602001808311610e4a57829003601f168201915b505050505090806004018054610e7c906139f8565b80601f0160208091040260200160405190810160405280929190818152602001828054610ea8906139f8565b8015610ef55780601f10610eca57610100808354040283529160200191610ef5565b820191906000526020600020905b815481529060010190602001808311610ed857829003601f168201915b505050505090806005018054610f0a906139f8565b80601f0160208091040260200160405190810160405280929190818152602001828054610f36906139f8565b8015610f835780601f10610f5857610100808354040283529160200191610f83565b820191906000526020600020905b815481529060010190602001808311610f6657829003601f168201915b505050505090806006018054610f98906139f8565b80601f0160208091040260200160405190810160405280929190818152602001828054610fc4906139f8565b80156110115780601f10610fe657610100808354040283529160200191611011565b820191906000526020600020905b815481529060010190602001808311610ff457829003601f168201915b505050505090806007018054611026906139f8565b80601f0160208091040260200160405190810160405280929190818152602001828054611052906139f8565b801561109f5780601f106110745761010080835404028352916020019161109f565b820191906000526020600020905b81548152906001019060200180831161108257829003601f168201915b5050505050908060080180546110b4906139f8565b80601f01602080910402602001604051908101604052809291908181526020018280546110e0906139f8565b801561112d5780601f106111025761010080835404028352916020019161112d565b820191906000526020600020905b81548152906001019060200180831161111057829003601f168201915b505050505090806009018054611142906139f8565b80601f016020809104026020016040519081016040528092919081815260200182805461116e906139f8565b80156111bb5780601f10611190576101008083540402835291602001916111bb565b820191906000526020600020905b81548152906001019060200180831161119e57829003601f168201915b50505050509080600a0160009054906101000a900473ffffffffffffffffffffffffffffffffffffffff1690508b565b60016000808282546111fd9190613924565b9250508190555060405180610180016040528060005481526020018781526020018681526020018481526020018581526020018381526020018281526020018a81526020018881526020018981526020018c81526020018b73ffffffffffffffffffffffffffffffffffffffff1681525060036000805481526020019081526020016000206000820151816000015560208201518160010190805190602001906112a8929190612888565b5060408201518160020190805190602001906112c5929190612888565b5060608201518160030190805190602001906112e2929190612888565b5060808201518160040190805190602001906112ff929190612888565b5060a082015181600501908051906020019061131c929190612888565b5060c0820151816006019080519060200190611339929190612888565b5060e0820151816007019080519060200190611356929190612888565b50610100820151816008019080519060200190611374929190612888565b50610120820151816009019080519060200190611392929190612888565b5061014082015181600a0190805190602001906113b0929190612888565b5061016082015181600b0160006101000a81548173ffffffffffffffffffffffffffffffffffffffff021916908373ffffffffffffffffffffffffffffffffffffffff1602179055509050505050505050505050505050565b60016002600082825461141c9190613924565b925050819055506040518060e00160405280600254815260200187815260200186815260200183815260200182815260200185815260200184815250600560006002548152602001908152602001600020600082015181600001556020820151816001019080519060200190611493929190612888565b5060408201518160020190805190602001906114b0929190612888565b5060608201518160030190805190602001906114cd929190612888565b5060808201518160040190805190602001906114ea929190612888565b5060a0820151816005019080519060200190611507929190612888565b5060c0820151816006019080519060200190611524929190612888565b50905050505050505050565b6060600060015467ffffffffffffffff811115611576577f4e487b7100000000000000000000000000000000000000000000000000000000600052604160045260246000fd5b6040519080825280602002602001820160405280156115af57816020015b61159c61290e565b8152602001906001900390816115945790505b50905060005b600154811015611bb7576004600082815260200190815260200160002060405180610160016040529081600082015481526020016001820180546115f8906139f8565b80601f0160208091040260200160405190810160405280929190818152602001828054611624906139f8565b80156116715780601f1061164657610100808354040283529160200191611671565b820191906000526020600020905b81548152906001019060200180831161165457829003601f168201915b5050505050815260200160028201805461168a906139f8565b80601f01602080910402602001604051908101604052809291908181526020018280546116b6906139f8565b80156117035780601f106116d857610100808354040283529160200191611703565b820191906000526020600020905b8154815290600101906020018083116116e657829003601f168201915b5050505050815260200160038201805461171c906139f8565b80601f0160208091040260200160405190810160405280929190818152602001828054611748906139f8565b80156117955780601f1061176a57610100808354040283529160200191611795565b820191906000526020600020905b81548152906001019060200180831161177857829003601f168201915b505050505081526020016004820180546117ae906139f8565b80601f01602080910402602001604051908101604052809291908181526020018280546117da906139f8565b80156118275780601f106117fc57610100808354040283529160200191611827565b820191906000526020600020905b81548152906001019060200180831161180a57829003601f168201915b50505050508152602001600582018054611840906139f8565b80601f016020809104026020016040519081016040528092919081815260200182805461186c906139f8565b80156118b95780601f1061188e576101008083540402835291602001916118b9565b820191906000526020600020905b81548152906001019060200180831161189c57829003601f168201915b505050505081526020016006820180546118d2906139f8565b80601f01602080910402602001604051908101604052809291908181526020018280546118fe906139f8565b801561194b5780601f106119205761010080835404028352916020019161194b565b820191906000526020600020905b81548152906001019060200180831161192e57829003601f168201915b50505050508152602001600782018054611964906139f8565b80601f0160208091040260200160405190810160405280929190818152602001828054611990906139f8565b80156119dd5780601f106119b2576101008083540402835291602001916119dd565b820191906000526020600020905b8154815290600101906020018083116119c057829003601f168201915b505050505081526020016008820180546119f6906139f8565b80601f0160208091040260200160405190810160405280929190818152602001828054611a22906139f8565b8015611a6f5780601f10611a4457610100808354040283529160200191611a6f565b820191906000526020600020905b815481529060010190602001808311611a5257829003601f168201915b50505050508152602001600982018054611a88906139f8565b80601f0160208091040260200160405190810160405280929190818152602001828054611ab4906139f8565b8015611b015780601f10611ad657610100808354040283529160200191611b01565b820191906000526020600020905b815481529060010190602001808311611ae457829003601f168201915b50505050508152602001600a820160009054906101000a900473ffffffffffffffffffffffffffffffffffffffff1673ffffffffffffffffffffffffffffffffffffffff1673ffffffffffffffffffffffffffffffffffffffff1681525050828281518110611b99577f4e487b7100000000000000000000000000000000000000000000000000000000600052603260045260246000fd5b60200260200101819052508080611baf90613a5b565b9150506115b5565b508091505090565b6001806000828254611bd19190613924565b9250508190555060405180610160016040528060015481526020018781526020018681526020018481526020018581526020018381526020018281526020018a81526020018881526020018981526020018b73ffffffffffffffffffffffffffffffffffffffff16815250600460006001548152602001908152602001600020600082015181600001556020820151816001019080519060200190611c77929190612888565b506040820151816002019080519060200190611c94929190612888565b506060820151816003019080519060200190611cb1929190612888565b506080820151816004019080519060200190611cce929190612888565b5060a0820151816005019080519060200190611ceb929190612888565b5060c0820151816006019080519060200190611d08929190612888565b5060e0820151816007019080519060200190611d25929190612888565b50610100820151816008019080519060200190611d43929190612888565b50610120820151816009019080519060200190611d61929190612888565b5061014082015181600a0160006101000a81548173ffffffffffffffffffffffffffffffffffffffff021916908373ffffffffffffffffffffffffffffffffffffffff16021790555090505050505050505050505050565b6005602052806000526040600020600091509050806000015490806001018054611de2906139f8565b80601f0160208091040260200160405190810160405280929190818152602001828054611e0e906139f8565b8015611e5b5780601f10611e3057610100808354040283529160200191611e5b565b820191906000526020600020905b815481529060010190602001808311611e3e57829003601f168201915b505050505090806002018054611e70906139f8565b80601f0160208091040260200160405190810160405280929190818152602001828054611e9c906139f8565b8015611ee95780601f10611ebe57610100808354040283529160200191611ee9565b820191906000526020600020905b815481529060010190602001808311611ecc57829003601f168201915b505050505090806003018054611efe906139f8565b80601f0160208091040260200160405190810160405280929190818152602001828054611f2a906139f8565b8015611f775780601f10611f4c57610100808354040283529160200191611f77565b820191906000526020600020905b815481529060010190602001808311611f5a57829003601f168201915b505050505090806004018054611f8c906139f8565b80601f0160208091040260200160405190810160405280929190818152602001828054611fb8906139f8565b80156120055780601f10611fda57610100808354040283529160200191612005565b820191906000526020600020905b815481529060010190602001808311611fe857829003601f168201915b50505050509080600501805461201a906139f8565b80601f0160208091040260200160405190810160405280929190818152602001828054612046906139f8565b80156120935780601f1061206857610100808354040283529160200191612093565b820191906000526020600020905b81548152906001019060200180831161207657829003601f168201915b5050505050908060060180546120a8906139f8565b80601f01602080910402602001604051908101604052809291908181526020018280546120d4906139f8565b80156121215780601f106120f657610100808354040283529160200191612121565b820191906000526020600020905b81548152906001019060200180831161210457829003601f168201915b5050505050905087565b60606000805467ffffffffffffffff811115612170577f4e487b7100000000000000000000000000000000000000000000000000000000600052604160045260246000fd5b6040519080825280602002602001820160405280156121a957816020015b61219661297e565b81526020019060019003908161218e5790505b50905060005b600054811015612843576003600082815260200190815260200160002060405180610180016040529081600082015481526020016001820180546121f2906139f8565b80601f016020809104026020016040519081016040528092919081815260200182805461221e906139f8565b801561226b5780601f106122405761010080835404028352916020019161226b565b820191906000526020600020905b81548152906001019060200180831161224e57829003601f168201915b50505050508152602001600282018054612284906139f8565b80601f01602080910402602001604051908101604052809291908181526020018280546122b0906139f8565b80156122fd5780601f106122d2576101008083540402835291602001916122fd565b820191906000526020600020905b8154815290600101906020018083116122e057829003601f168201915b50505050508152602001600382018054612316906139f8565b80601f0160208091040260200160405190810160405280929190818152602001828054612342906139f8565b801561238f5780601f106123645761010080835404028352916020019161238f565b820191906000526020600020905b81548152906001019060200180831161237257829003601f168201915b505050505081526020016004820180546123a8906139f8565b80601f01602080910402602001604051908101604052809291908181526020018280546123d4906139f8565b80156124215780601f106123f657610100808354040283529160200191612421565b820191906000526020600020905b81548152906001019060200180831161240457829003601f168201915b5050505050815260200160058201805461243a906139f8565b80601f0160208091040260200160405190810160405280929190818152602001828054612466906139f8565b80156124b35780601f10612488576101008083540402835291602001916124b3565b820191906000526020600020905b81548152906001019060200180831161249657829003601f168201915b505050505081526020016006820180546124cc906139f8565b80601f01602080910402602001604051908101604052809291908181526020018280546124f8906139f8565b80156125455780601f1061251a57610100808354040283529160200191612545565b820191906000526020600020905b81548152906001019060200180831161252857829003601f168201915b5050505050815260200160078201805461255e906139f8565b80601f016020809104026020016040519081016040528092919081815260200182805461258a906139f8565b80156125d75780601f106125ac576101008083540402835291602001916125d7565b820191906000526020600020905b8154815290600101906020018083116125ba57829003601f168201915b505050505081526020016008820180546125f0906139f8565b80601f016020809104026020016040519081016040528092919081815260200182805461261c906139f8565b80156126695780601f1061263e57610100808354040283529160200191612669565b820191906000526020600020905b81548152906001019060200180831161264c57829003601f168201915b50505050508152602001600982018054612682906139f8565b80601f01602080910402602001604051908101604052809291908181526020018280546126ae906139f8565b80156126fb5780601f106126d0576101008083540402835291602001916126fb565b820191906000526020600020905b8154815290600101906020018083116126de57829003601f168201915b50505050508152602001600a82018054612714906139f8565b80601f0160208091040260200160405190810160405280929190818152602001828054612740906139f8565b801561278d5780601f106127625761010080835404028352916020019161278d565b820191906000526020600020905b81548152906001019060200180831161277057829003601f168201915b50505050508152602001600b820160009054906101000a900473ffffffffffffffffffffffffffffffffffffffff1673ffffffffffffffffffffffffffffffffffffffff1673ffffffffffffffffffffffffffffffffffffffff1681525050828281518110612825577f4e487b7100000000000000000000000000000000000000000000000000000000600052603260045260246000fd5b6020026020010181905250808061283b90613a5b565b9150506121af565b508091505090565b6040518060e00160405280600081526020016060815260200160608152602001606081526020016060815260200160608152602001606081525090565b828054612894906139f8565b90600052602060002090601f0160209004810192826128b657600085556128fd565b82601f106128cf57805160ff19168380011785556128fd565b828001600101855582156128fd579182015b828111156128fc5782518255916020019190600101906128e1565b5b50905061290a91906129f5565b5090565b60405180610160016040528060008152602001606081526020016060815260200160608152602001606081526020016060815260200160608152602001606081526020016060815260200160608152602001600073ffffffffffffffffffffffffffffffffffffffff1681525090565b6040518061018001604052806000815260200160608152602001606081526020016060815260200160608152602001606081526020016060815260200160608152602001606081526020016060815260200160608152602001600073ffffffffffffffffffffffffffffffffffffffff1681525090565b5b80821115612a0e5760008160009055506001016129f6565b5090565b6000612a25612a208461381b565b6137f6565b905082815260208101848484011115612a3d57600080fd5b612a488482856139b6565b509392505050565b600081359050612a5f81613b42565b92915050565b600082601f830112612a7657600080fd5b8135612a86848260208601612a12565b91505092915050565b600081359050612a9e81613b59565b92915050565b6000806000806000806000806000806101408b8d031215612ac457600080fd5b6000612ad28d828e01612a50565b9a505060208b013567ffffffffffffffff811115612aef57600080fd5b612afb8d828e01612a65565b99505060408b013567ffffffffffffffff811115612b1857600080fd5b612b248d828e01612a65565b98505060608b013567ffffffffffffffff811115612b4157600080fd5b612b4d8d828e01612a65565b97505060808b013567ffffffffffffffff811115612b6a57600080fd5b612b768d828e01612a65565b96505060a08b013567ffffffffffffffff811115612b9357600080fd5b612b9f8d828e01612a65565b95505060c08b013567ffffffffffffffff811115612bbc57600080fd5b612bc88d828e01612a65565b94505060e08b013567ffffffffffffffff811115612be557600080fd5b612bf18d828e01612a65565b9350506101008b013567ffffffffffffffff811115612c0f57600080fd5b612c1b8d828e01612a65565b9250506101208b013567ffffffffffffffff811115612c3957600080fd5b612c458d828e01612a65565b9150509295989b9194979a5092959850565b60008060008060008060008060008060006101608c8e031215612c7957600080fd5b60008c013567ffffffffffffffff811115612c9357600080fd5b612c9f8e828f01612a65565b9b50506020612cb08e828f01612a50565b9a505060408c013567ffffffffffffffff811115612ccd57600080fd5b612cd98e828f01612a65565b99505060608c013567ffffffffffffffff811115612cf657600080fd5b612d028e828f01612a65565b98505060808c013567ffffffffffffffff811115612d1f57600080fd5b612d2b8e828f01612a65565b97505060a08c013567ffffffffffffffff811115612d4857600080fd5b612d548e828f01612a65565b96505060c08c013567ffffffffffffffff811115612d7157600080fd5b612d7d8e828f01612a65565b95505060e08c013567ffffffffffffffff811115612d9a57600080fd5b612da68e828f01612a65565b9450506101008c013567ffffffffffffffff811115612dc457600080fd5b612dd08e828f01612a65565b9350506101208c013567ffffffffffffffff811115612dee57600080fd5b612dfa8e828f01612a65565b9250506101408c013567ffffffffffffffff811115612e1857600080fd5b612e248e828f01612a65565b9150509295989b509295989b9093969950565b60008060008060008060c08789031215612e5057600080fd5b600087013567ffffffffffffffff811115612e6a57600080fd5b612e7689828a01612a65565b965050602087013567ffffffffffffffff811115612e9357600080fd5b612e9f89828a01612a65565b955050604087013567ffffffffffffffff811115612ebc57600080fd5b612ec889828a01612a65565b945050606087013567ffffffffffffffff811115612ee557600080fd5b612ef189828a01612a65565b935050608087013567ffffffffffffffff811115612f0e57600080fd5b612f1a89828a01612a65565b92505060a087013567ffffffffffffffff811115612f3757600080fd5b612f4389828a01612a65565b9150509295509295509295565b600060208284031215612f6257600080fd5b6000612f7084828501612a8f565b91505092915050565b6000612f8583836131a4565b905092915050565b6000612f9983836132e7565b905092915050565b6000612fad838361340e565b905092915050565b612fbe8161397a565b82525050565b612fcd8161397a565b82525050565b6000612fde8261387c565b612fe881856138cf565b935083602082028501612ffa8561384c565b8060005b8581101561303657848403895281516130178582612f79565b9450613022836138a8565b925060208a01995050600181019050612ffe565b50829750879550505050505092915050565b600061305382613887565b61305d81856138e0565b93508360208202850161306f8561385c565b8060005b858110156130ab578484038952815161308c8582612f8d565b9450613097836138b5565b925060208a01995050600181019050613073565b50829750879550505050505092915050565b60006130c882613892565b6130d281856138f1565b9350836020820285016130e48561386c565b8060005b8581101561312057848403895281516131018582612fa1565b945061310c836138c2565b925060208a019950506001810190506130e8565b50829750879550505050505092915050565b600061313d8261389d565b6131478185613902565b93506131578185602086016139c5565b61316081613b31565b840191505092915050565b60006131768261389d565b6131808185613913565b93506131908185602086016139c5565b61319981613b31565b840191505092915050565b6000610180830160008301516131bd60008601826134cd565b50602083015184820360208601526131d58282613132565b915050604083015184820360408601526131ef8282613132565b915050606083015184820360608601526132098282613132565b915050608083015184820360808601526132238282613132565b91505060a083015184820360a086015261323d8282613132565b91505060c083015184820360c08601526132578282613132565b91505060e083015184820360e08601526132718282613132565b91505061010083015184820361010086015261328d8282613132565b9150506101208301518482036101208601526132a98282613132565b9150506101408301518482036101408601526132c58282613132565b9150506101608301516132dc610160860182612fb5565b508091505092915050565b60006101608301600083015161330060008601826134cd565b50602083015184820360208601526133188282613132565b915050604083015184820360408601526133328282613132565b9150506060830151848203606086015261334c8282613132565b915050608083015184820360808601526133668282613132565b91505060a083015184820360a08601526133808282613132565b91505060c083015184820360c086015261339a8282613132565b91505060e083015184820360e08601526133b48282613132565b9150506101008301518482036101008601526133d08282613132565b9150506101208301518482036101208601526133ec8282613132565b915050610140830151613403610140860182612fb5565b508091505092915050565b600060e08301600083015161342660008601826134cd565b506020830151848203602086015261343e8282613132565b915050604083015184820360408601526134588282613132565b915050606083015184820360608601526134728282613132565b9150506080830151848203608086015261348c8282613132565b91505060a083015184820360a08601526134a68282613132565b91505060c083015184820360c08601526134c08282613132565b9150508091505092915050565b6134d6816139ac565b82525050565b6134e5816139ac565b82525050565b600060208201905081810360008301526135058184612fd3565b905092915050565b600060208201905081810360008301526135278184613048565b905092915050565b6000602082019050818103600083015261354981846130bd565b905092915050565b6000602082019050818103600083015261356b818461316b565b905092915050565b600060e082019050613588600083018a6134dc565b818103602083015261359a818961316b565b905081810360408301526135ae818861316b565b905081810360608301526135c2818761316b565b905081810360808301526135d6818661316b565b905081810360a08301526135ea818561316b565b905081810360c08301526135fe818461316b565b905098975050505050505050565b600061016082019050613622600083018e6134dc565b8181036020830152613634818d61316b565b90508181036040830152613648818c61316b565b9050818103606083015261365c818b61316b565b90508181036080830152613670818a61316b565b905081810360a0830152613684818961316b565b905081810360c0830152613698818861316b565b905081810360e08301526136ac818761316b565b90508181036101008301526136c1818661316b565b90508181036101208301526136d6818561316b565b90506136e6610140830184612fc4565b9c9b505050505050505050505050565b60006101808201905061370c600083018f6134dc565b818103602083015261371e818e61316b565b90508181036040830152613732818d61316b565b90508181036060830152613746818c61316b565b9050818103608083015261375a818b61316b565b905081810360a083015261376e818a61316b565b905081810360c0830152613782818961316b565b905081810360e0830152613796818861316b565b90508181036101008301526137ab818761316b565b90508181036101208301526137c0818661316b565b90508181036101408301526137d5818561316b565b90506137e5610160830184612fc4565b9d9c50505050505050505050505050565b6000613800613811565b905061380c8282613a2a565b919050565b6000604051905090565b600067ffffffffffffffff82111561383657613835613b02565b5b61383f82613b31565b9050602081019050919050565b6000819050602082019050919050565b6000819050602082019050919050565b6000819050602082019050919050565b600081519050919050565b600081519050919050565b600081519050919050565b600081519050919050565b6000602082019050919050565b6000602082019050919050565b6000602082019050919050565b600082825260208201905092915050565b600082825260208201905092915050565b600082825260208201905092915050565b600082825260208201905092915050565b600082825260208201905092915050565b600061392f826139ac565b915061393a836139ac565b9250827fffffffffffffffffffffffffffffffffffffffffffffffffffffffffffffffff0382111561396f5761396e613aa4565b5b828201905092915050565b60006139858261398c565b9050919050565b600073ffffffffffffffffffffffffffffffffffffffff82169050919050565b6000819050919050565b82818337600083830152505050565b60005b838110156139e35780820151818401526020810190506139c8565b838111156139f2576000848401525b50505050565b60006002820490506001821680613a1057607f821691505b60208210811415613a2457613a23613ad3565b5b50919050565b613a3382613b31565b810181811067ffffffffffffffff82111715613a5257613a51613b02565b5b80604052505050565b6000613a66826139ac565b91507fffffffffffffffffffffffffffffffffffffffffffffffffffffffffffffffff821415613a9957613a98613aa4565b5b600182019050919050565b7f4e487b7100000000000000000000000000000000000000000000000000000000600052601160045260246000fd5b7f4e487b7100000000000000000000000000000000000000000000000000000000600052602260045260246000fd5b7f4e487b7100000000000000000000000000000000000000000000000000000000600052604160045260246000fd5b6000601f19601f8301169050919050565b613b4b8161397a565b8114613b5657600080fd5b50565b613b62816139ac565b8114613b6d57600080fd5b5056fea264697066735822122071240ffb0ef0054335f60584e09779616f3252ea70f22238bee0e29858d6c5ab64736f6c63430008040033",
  "immutableReferences": {},
  "source": "// SPDX-License-Identifier: MIT\r\npragma solidity ^0.8.4;\r\n\r\ncontract hospital{\r\n    uint256 doctor_count = 0;\r\n    uint256 patient_count=0;\r\n    uint256 appointment_count=0;\r\n    mapping(uint => Doctor) public Doctors;\r\n    mapping(uint => Patient) public Patient_list;\r\n    mapping(uint => _Appointment) public Appointments;\r\n\r\n    struct Doctor {\r\n        uint doc_id;\r\n        string _firstName;\r\n        string _lastName;\r\n        string Contact_number;\r\n        string Emergency_number;\r\n        string _address;\r\n        string email;\r\n        string dob;\r\n        string martial_status;\r\n        string sex;\r\n        string qualification;\r\n        address AccountAddress;\r\n    }\r\n    struct Patient{\r\n        uint _id;\r\n        string _firstName;\r\n        string _lastName;\r\n        string Contact_number;\r\n        string Emergency_number;\r\n        string _address;\r\n        string email;\r\n        string dob;\r\n        string martial_status;\r\n        string sex;\r\n        address AccountAddress;\r\n    }\r\n\r\n    struct _Appointment{\r\n        uint _id;\r\n        string Doctor_name;\r\n        string Patient_name;\r\n        string doc_email;\r\n        string patient_email;\r\n        string Appointment_time;\r\n        string Appointment_reason;\r\n    }\r\n    \r\n    function Add_Doctor(string memory qualification,address AccAddress,string memory dob,string memory sex,string memory martial_status,string memory _firstName, string memory _lastName,string memory emergency_num,string memory contact_num, string memory _Address,string memory email)  public {\r\n    doctor_count+=1;\r\n    Doctors[doctor_count]=Doctor(doctor_count,_firstName,_lastName, contact_num,emergency_num,_Address,email,dob,martial_status,sex,qualification,AccAddress);\r\n    }\r\n\r\n     function hello() public pure returns (string memory){\r\n        return \"Test\";\r\n    }\r\n    function Get_appointment(string memory doc_name,string memory patient_name,string memory Appoint_time,string memory reason,string memory doc_email,string memory patient_email) public{\r\n        appointment_count+=1;\r\n        Appointments[appointment_count]=_Appointment(appointment_count,doc_name,patient_name,doc_email,patient_email,Appoint_time,reason);\r\n    }\r\n\r\n    function Register_patient(address Accaddress,string memory dob,string memory sex,string memory martial_status,string memory _firstName, string memory _lastName,string memory emergency_num,string memory contact_num, string memory _Address,string memory email) public{\r\n        patient_count+=1;\r\n        Patient_list[patient_count]=Patient(patient_count,_firstName,_lastName,contact_num,emergency_num,_Address,email,dob,martial_status,sex,Accaddress);\r\n    }\r\n\r\n    function getAll_Doctors() public view returns (Doctor[] memory){\r\n        Doctor[] memory ret = new Doctor[](doctor_count);\r\n        for (uint i = 0; i < doctor_count; i++) {\r\n            ret[i] = Doctors[i];\r\n        }\r\n        return ret;\r\n    }   \r\n    \r\n    function getAll_Patients() public view returns (Patient[] memory){\r\n        Patient[] memory ret = new Patient[](patient_count);\r\n        for (uint i = 0; i < patient_count; i++) {\r\n            ret[i] = Patient_list[i];\r\n        }\r\n        return ret;\r\n    }    \r\n    function getAll_Appointments() public view returns (_Appointment[] memory){\r\n        _Appointment[] memory ret = new _Appointment[](appointment_count);\r\n        for (uint i = 0; i < appointment_count; i++) {\r\n            ret[i] = Appointments[i];\r\n            }\r\n        return ret;\r\n    }    \r\n}",
  "sourcePath": "F:\\Sem 7\\IBC\\Blockchain-Project-DAPP-Healthcare\\contracts\\RegisterationContract.sol",
  "compiler": {
    "name": "solc",
    "version": "0.8.4+commit.c7e474f2.Emscripten.clang"
  },
  "schemaVersion": "3.4.3",
  "updatedAt": "2021-12-14T16:03:02.094Z",
  "devdoc": {
    "kind": "dev",
    "methods": {},
    "version": 1
  },
  "userdoc": {
    "kind": "user",
    "methods": {},
    "version": 1
  }
}