{
  "contractName": "hospital",
  "abi": [
    {
      "inputs": [
        {
          "internalType": "uint256",
          "name": "",
          "type": "uint256"
        }
      ],
      "name": "Appointments",
      "outputs": [
        {
          "internalType": "uint256",
          "name": "_id",
          "type": "uint256"
        },
        {
          "internalType": "string",
          "name": "Doctor_name",
          "type": "string"
        },
        {
          "internalType": "string",
          "name": "Patient_name",
          "type": "string"
        },
        {
          "internalType": "string",
          "name": "doc_email",
          "type": "string"
        },
        {
          "internalType": "string",
          "name": "patient_email",
          "type": "string"
        },
        {
          "internalType": "string",
          "name": "Appointment_time",
          "type": "string"
        },
        {
          "internalType": "string",
          "name": "Appointment_reason",
          "type": "string"
        }
      ],
      "stateMutability": "view",
      "type": "function",
      "constant": true
    },
    {
      "inputs": [
        {
          "internalType": "uint256",
          "name": "",
          "type": "uint256"
        }
      ],
      "name": "Doctors",
      "outputs": [
        {
          "internalType": "uint256",
          "name": "doc_id",
          "type": "uint256"
        },
        {
          "internalType": "string",
          "name": "_firstName",
          "type": "string"
        },
        {
          "internalType": "string",
          "name": "_lastName",
          "type": "string"
        },
        {
          "internalType": "string",
          "name": "Contact_number",
          "type": "string"
        },
        {
          "internalType": "string",
          "name": "Emergency_number",
          "type": "string"
        },
        {
          "internalType": "string",
          "name": "_address",
          "type": "string"
        },
        {
          "internalType": "string",
          "name": "email",
          "type": "string"
        },
        {
          "internalType": "string",
          "name": "dob",
          "type": "string"
        },
        {
          "internalType": "string",
          "name": "martial_status",
          "type": "string"
        },
        {
          "internalType": "string",
          "name": "sex",
          "type": "string"
        }
      ],
      "stateMutability": "view",
      "type": "function",
      "constant": true
    },
    {
      "inputs": [
        {
          "internalType": "uint256",
          "name": "",
          "type": "uint256"
        }
      ],
      "name": "Patient_list",
      "outputs": [
        {
          "internalType": "uint256",
          "name": "_id",
          "type": "uint256"
        },
        {
          "internalType": "string",
          "name": "_firstName",
          "type": "string"
        },
        {
          "internalType": "string",
          "name": "_lastName",
          "type": "string"
        },
        {
          "internalType": "string",
          "name": "Contact_number",
          "type": "string"
        },
        {
          "internalType": "string",
          "name": "Emergency_number",
          "type": "string"
        },
        {
          "internalType": "string",
          "name": "_address",
          "type": "string"
        },
        {
          "internalType": "string",
          "name": "email",
          "type": "string"
        },
        {
          "internalType": "string",
          "name": "dob",
          "type": "string"
        },
        {
          "internalType": "string",
          "name": "martial_status",
          "type": "string"
        },
        {
          "internalType": "string",
          "name": "sex",
          "type": "string"
        }
      ],
      "stateMutability": "view",
      "type": "function",
      "constant": true
    },
    {
      "inputs": [],
      "name": "hello",
      "outputs": [
        {
          "internalType": "string",
          "name": "",
          "type": "string"
        }
      ],
      "stateMutability": "pure",
      "type": "function",
      "constant": true
    },
    {
      "inputs": [
        {
          "internalType": "string",
          "name": "doc_name",
          "type": "string"
        },
        {
          "internalType": "string",
          "name": "patient_name",
          "type": "string"
        },
        {
          "internalType": "string",
          "name": "Appoint_time",
          "type": "string"
        },
        {
          "internalType": "string",
          "name": "reason",
          "type": "string"
        },
        {
          "internalType": "string",
          "name": "doc_email",
          "type": "string"
        },
        {
          "internalType": "string",
          "name": "patient_email",
          "type": "string"
        }
      ],
      "name": "Get_appointment",
      "outputs": [],
      "stateMutability": "nonpayable",
      "type": "function"
    },
    {
      "inputs": [
        {
          "internalType": "string",
          "name": "dob",
          "type": "string"
        },
        {
          "internalType": "string",
          "name": "sex",
          "type": "string"
        },
        {
          "internalType": "string",
          "name": "martial_status",
          "type": "string"
        },
        {
          "internalType": "string",
          "name": "_firstName",
          "type": "string"
        },
        {
          "internalType": "string",
          "name": "_lastName",
          "type": "string"
        },
        {
          "internalType": "string",
          "name": "emergency_num",
          "type": "string"
        },
        {
          "internalType": "string",
          "name": "contact_num",
          "type": "string"
        },
        {
          "internalType": "string",
          "name": "_Address",
          "type": "string"
        },
        {
          "internalType": "string",
          "name": "email",
          "type": "string"
        }
      ],
      "name": "Register_patient",
      "outputs": [],
      "stateMutability": "nonpayable",
      "type": "function"
    },
    {
      "inputs": [
        {
          "internalType": "string",
          "name": "dob",
          "type": "string"
        },
        {
          "internalType": "string",
          "name": "sex",
          "type": "string"
        },
        {
          "internalType": "string",
          "name": "martial_status",
          "type": "string"
        },
        {
          "internalType": "string",
          "name": "_firstName",
          "type": "string"
        },
        {
          "internalType": "string",
          "name": "_lastName",
          "type": "string"
        },
        {
          "internalType": "string",
          "name": "emergency_num",
          "type": "string"
        },
        {
          "internalType": "string",
          "name": "contact_num",
          "type": "string"
        },
        {
          "internalType": "string",
          "name": "_Address",
          "type": "string"
        },
        {
          "internalType": "string",
          "name": "email",
          "type": "string"
        }
      ],
      "name": "Add_Doctor",
      "outputs": [],
      "stateMutability": "nonpayable",
      "type": "function"
    },
    {
      "inputs": [],
      "name": "getAll_Doctors",
      "outputs": [
        {
          "components": [
            {
              "internalType": "uint256",
              "name": "doc_id",
              "type": "uint256"
            },
            {
              "internalType": "string",
              "name": "_firstName",
              "type": "string"
            },
            {
              "internalType": "string",
              "name": "_lastName",
              "type": "string"
            },
            {
              "internalType": "string",
              "name": "Contact_number",
              "type": "string"
            },
            {
              "internalType": "string",
              "name": "Emergency_number",
              "type": "string"
            },
            {
              "internalType": "string",
              "name": "_address",
              "type": "string"
            },
            {
              "internalType": "string",
              "name": "email",
              "type": "string"
            },
            {
              "internalType": "string",
              "name": "dob",
              "type": "string"
            },
            {
              "internalType": "string",
              "name": "martial_status",
              "type": "string"
            },
            {
              "internalType": "string",
              "name": "sex",
              "type": "string"
            }
          ],
          "internalType": "struct hospital.Doctor[]",
          "name": "",
          "type": "tuple[]"
        }
      ],
      "stateMutability": "view",
      "type": "function",
      "constant": true
    },
    {
      "inputs": [],
      "name": "getAll_Patients",
      "outputs": [
        {
          "components": [
            {
              "internalType": "uint256",
              "name": "_id",
              "type": "uint256"
            },
            {
              "internalType": "string",
              "name": "_firstName",
              "type": "string"
            },
            {
              "internalType": "string",
              "name": "_lastName",
              "type": "string"
            },
            {
              "internalType": "string",
              "name": "Contact_number",
              "type": "string"
            },
            {
              "internalType": "string",
              "name": "Emergency_number",
              "type": "string"
            },
            {
              "internalType": "string",
              "name": "_address",
              "type": "string"
            },
            {
              "internalType": "string",
              "name": "email",
              "type": "string"
            },
            {
              "internalType": "string",
              "name": "dob",
              "type": "string"
            },
            {
              "internalType": "string",
              "name": "martial_status",
              "type": "string"
            },
            {
              "internalType": "string",
              "name": "sex",
              "type": "string"
            }
          ],
          "internalType": "struct hospital.Patient[]",
          "name": "",
          "type": "tuple[]"
        }
      ],
      "stateMutability": "view",
      "type": "function",
      "constant": true
    },
    {
      "inputs": [],
      "name": "getAll_Appointments",
      "outputs": [
        {
          "components": [
            {
              "internalType": "uint256",
              "name": "_id",
              "type": "uint256"
            },
            {
              "internalType": "string",
              "name": "Doctor_name",
              "type": "string"
            },
            {
              "internalType": "string",
              "name": "Patient_name",
              "type": "string"
            },
            {
              "internalType": "string",
              "name": "doc_email",
              "type": "string"
            },
            {
              "internalType": "string",
              "name": "patient_email",
              "type": "string"
            },
            {
              "internalType": "string",
              "name": "Appointment_time",
              "type": "string"
            },
            {
              "internalType": "string",
              "name": "Appointment_reason",
              "type": "string"
            }
          ],
          "internalType": "struct hospital._Appointment[]",
          "name": "",
          "type": "tuple[]"
        }
      ],
      "stateMutability": "view",
      "type": "function",
      "constant": true
    }
  ],
  "bytecode": "0x6080604052600080556000600155600060025534801561001e57600080fd5b506134958061002e6000396000f3fe608060405234801561001057600080fd5b506004361061009e5760003560e01c8063560df47e11610066578063560df47e1461016d578063b99560301461018b578063e13f6575146101a7578063e47cb5ef146101dd578063f83e7a39146101fb5761009e565b80630b390d61146100a357806319ff1d21146100c157806327151672146100df5780632e2a5ea6146101185780635086938214610151575b600080fd5b6100ab610217565b6040516100b89190612f76565b60405180910390f35b6100c9610699565b6040516100d69190612f98565b60405180910390f35b6100f960048036038101906100f491906129fb565b6106d6565b60405161010f9a99989796959493929190613053565b60405180910390f35b610132600480360381019061012d91906129fb565b610bf2565b6040516101489a99989796959493929190613053565b60405180910390f35b61016b60048036038101906101669190612744565b61110e565b005b610175611235565b6040516101829190612f54565b60405180910390f35b6101a560048036038101906101a0919061285d565b61186e565b005b6101c160048036038101906101bc91906129fb565b611a02565b6040516101d49796959493929190612fba565b60405180910390f35b6101e5611d74565b6040516101f29190612f32565b60405180910390f35b6102156004803603810190610210919061285d565b6123ac565b005b6060600060025467ffffffffffffffff81111561025d577f4e487b7100000000000000000000000000000000000000000000000000000000600052604160045260246000fd5b60405190808252806020026020018201604052801561029657816020015b610283612541565b81526020019060019003908161027b5790505b50905060005b60025481101561069157600560008281526020019081526020016000206040518060e0016040529081600082015481526020016001820180546102de906132fe565b80601f016020809104026020016040519081016040528092919081815260200182805461030a906132fe565b80156103575780601f1061032c57610100808354040283529160200191610357565b820191906000526020600020905b81548152906001019060200180831161033a57829003601f168201915b50505050508152602001600282018054610370906132fe565b80601f016020809104026020016040519081016040528092919081815260200182805461039c906132fe565b80156103e95780601f106103be576101008083540402835291602001916103e9565b820191906000526020600020905b8154815290600101906020018083116103cc57829003601f168201915b50505050508152602001600382018054610402906132fe565b80601f016020809104026020016040519081016040528092919081815260200182805461042e906132fe565b801561047b5780601f106104505761010080835404028352916020019161047b565b820191906000526020600020905b81548152906001019060200180831161045e57829003601f168201915b50505050508152602001600482018054610494906132fe565b80601f01602080910402602001604051908101604052809291908181526020018280546104c0906132fe565b801561050d5780601f106104e25761010080835404028352916020019161050d565b820191906000526020600020905b8154815290600101906020018083116104f057829003601f168201915b50505050508152602001600582018054610526906132fe565b80601f0160208091040260200160405190810160405280929190818152602001828054610552906132fe565b801561059f5780601f106105745761010080835404028352916020019161059f565b820191906000526020600020905b81548152906001019060200180831161058257829003601f168201915b505050505081526020016006820180546105b8906132fe565b80601f01602080910402602001604051908101604052809291908181526020018280546105e4906132fe565b80156106315780601f1061060657610100808354040283529160200191610631565b820191906000526020600020905b81548152906001019060200180831161061457829003601f168201915b505050505081525050828281518110610673577f4e487b7100000000000000000000000000000000000000000000000000000000600052603260045260246000fd5b6020026020010181905250808061068990613361565b91505061029c565b508091505090565b60606040518060400160405280600481526020017f5465737400000000000000000000000000000000000000000000000000000000815250905090565b60036020528060005260406000206000915090508060000154908060010180546106ff906132fe565b80601f016020809104026020016040519081016040528092919081815260200182805461072b906132fe565b80156107785780601f1061074d57610100808354040283529160200191610778565b820191906000526020600020905b81548152906001019060200180831161075b57829003601f168201915b50505050509080600201805461078d906132fe565b80601f01602080910402602001604051908101604052809291908181526020018280546107b9906132fe565b80156108065780601f106107db57610100808354040283529160200191610806565b820191906000526020600020905b8154815290600101906020018083116107e957829003601f168201915b50505050509080600301805461081b906132fe565b80601f0160208091040260200160405190810160405280929190818152602001828054610847906132fe565b80156108945780601f1061086957610100808354040283529160200191610894565b820191906000526020600020905b81548152906001019060200180831161087757829003601f168201915b5050505050908060040180546108a9906132fe565b80601f01602080910402602001604051908101604052809291908181526020018280546108d5906132fe565b80156109225780601f106108f757610100808354040283529160200191610922565b820191906000526020600020905b81548152906001019060200180831161090557829003601f168201915b505050505090806005018054610937906132fe565b80601f0160208091040260200160405190810160405280929190818152602001828054610963906132fe565b80156109b05780601f10610985576101008083540402835291602001916109b0565b820191906000526020600020905b81548152906001019060200180831161099357829003601f168201915b5050505050908060060180546109c5906132fe565b80601f01602080910402602001604051908101604052809291908181526020018280546109f1906132fe565b8015610a3e5780601f10610a1357610100808354040283529160200191610a3e565b820191906000526020600020905b815481529060010190602001808311610a2157829003601f168201915b505050505090806007018054610a53906132fe565b80601f0160208091040260200160405190810160405280929190818152602001828054610a7f906132fe565b8015610acc5780601f10610aa157610100808354040283529160200191610acc565b820191906000526020600020905b815481529060010190602001808311610aaf57829003601f168201915b505050505090806008018054610ae1906132fe565b80601f0160208091040260200160405190810160405280929190818152602001828054610b0d906132fe565b8015610b5a5780601f10610b2f57610100808354040283529160200191610b5a565b820191906000526020600020905b815481529060010190602001808311610b3d57829003601f168201915b505050505090806009018054610b6f906132fe565b80601f0160208091040260200160405190810160405280929190818152602001828054610b9b906132fe565b8015610be85780601f10610bbd57610100808354040283529160200191610be8565b820191906000526020600020905b815481529060010190602001808311610bcb57829003601f168201915b505050505090508a565b6004602052806000526040600020600091509050806000015490806001018054610c1b906132fe565b80601f0160208091040260200160405190810160405280929190818152602001828054610c47906132fe565b8015610c945780601f10610c6957610100808354040283529160200191610c94565b820191906000526020600020905b815481529060010190602001808311610c7757829003601f168201915b505050505090806002018054610ca9906132fe565b80601f0160208091040260200160405190810160405280929190818152602001828054610cd5906132fe565b8015610d225780601f10610cf757610100808354040283529160200191610d22565b820191906000526020600020905b815481529060010190602001808311610d0557829003601f168201915b505050505090806003018054610d37906132fe565b80601f0160208091040260200160405190810160405280929190818152602001828054610d63906132fe565b8015610db05780601f10610d8557610100808354040283529160200191610db0565b820191906000526020600020905b815481529060010190602001808311610d9357829003601f168201915b505050505090806004018054610dc5906132fe565b80601f0160208091040260200160405190810160405280929190818152602001828054610df1906132fe565b8015610e3e5780601f10610e1357610100808354040283529160200191610e3e565b820191906000526020600020905b815481529060010190602001808311610e2157829003601f168201915b505050505090806005018054610e53906132fe565b80601f0160208091040260200160405190810160405280929190818152602001828054610e7f906132fe565b8015610ecc5780601f10610ea157610100808354040283529160200191610ecc565b820191906000526020600020905b815481529060010190602001808311610eaf57829003601f168201915b505050505090806006018054610ee1906132fe565b80601f0160208091040260200160405190810160405280929190818152602001828054610f0d906132fe565b8015610f5a5780601f10610f2f57610100808354040283529160200191610f5a565b820191906000526020600020905b815481529060010190602001808311610f3d57829003601f168201915b505050505090806007018054610f6f906132fe565b80601f0160208091040260200160405190810160405280929190818152602001828054610f9b906132fe565b8015610fe85780601f10610fbd57610100808354040283529160200191610fe8565b820191906000526020600020905b815481529060010190602001808311610fcb57829003601f168201915b505050505090806008018054610ffd906132fe565b80601f0160208091040260200160405190810160405280929190818152602001828054611029906132fe565b80156110765780601f1061104b57610100808354040283529160200191611076565b820191906000526020600020905b81548152906001019060200180831161105957829003601f168201915b50505050509080600901805461108b906132fe565b80601f01602080910402602001604051908101604052809291908181526020018280546110b7906132fe565b80156111045780601f106110d957610100808354040283529160200191611104565b820191906000526020600020905b8154815290600101906020018083116110e757829003601f168201915b505050505090508a565b600160026000828254611121919061325c565b925050819055506040518060e0016040528060025481526020018781526020018681526020018381526020018281526020018581526020018481525060056000600254815260200190815260200160002060008201518160000155602082015181600101908051906020019061119892919061257e565b5060408201518160020190805190602001906111b592919061257e565b5060608201518160030190805190602001906111d292919061257e565b5060808201518160040190805190602001906111ef92919061257e565b5060a082015181600501908051906020019061120c92919061257e565b5060c082015181600601908051906020019061122992919061257e565b50905050505050505050565b6060600060015467ffffffffffffffff81111561127b577f4e487b7100000000000000000000000000000000000000000000000000000000600052604160045260246000fd5b6040519080825280602002602001820160405280156112b457816020015b6112a1612604565b8152602001906001900390816112995790505b50905060005b600154811015611866576004600082815260200190815260200160002060405180610140016040529081600082015481526020016001820180546112fd906132fe565b80601f0160208091040260200160405190810160405280929190818152602001828054611329906132fe565b80156113765780601f1061134b57610100808354040283529160200191611376565b820191906000526020600020905b81548152906001019060200180831161135957829003601f168201915b5050505050815260200160028201805461138f906132fe565b80601f01602080910402602001604051908101604052809291908181526020018280546113bb906132fe565b80156114085780601f106113dd57610100808354040283529160200191611408565b820191906000526020600020905b8154815290600101906020018083116113eb57829003601f168201915b50505050508152602001600382018054611421906132fe565b80601f016020809104026020016040519081016040528092919081815260200182805461144d906132fe565b801561149a5780601f1061146f5761010080835404028352916020019161149a565b820191906000526020600020905b81548152906001019060200180831161147d57829003601f168201915b505050505081526020016004820180546114b3906132fe565b80601f01602080910402602001604051908101604052809291908181526020018280546114df906132fe565b801561152c5780601f106115015761010080835404028352916020019161152c565b820191906000526020600020905b81548152906001019060200180831161150f57829003601f168201915b50505050508152602001600582018054611545906132fe565b80601f0160208091040260200160405190810160405280929190818152602001828054611571906132fe565b80156115be5780601f10611593576101008083540402835291602001916115be565b820191906000526020600020905b8154815290600101906020018083116115a157829003601f168201915b505050505081526020016006820180546115d7906132fe565b80601f0160208091040260200160405190810160405280929190818152602001828054611603906132fe565b80156116505780601f1061162557610100808354040283529160200191611650565b820191906000526020600020905b81548152906001019060200180831161163357829003601f168201915b50505050508152602001600782018054611669906132fe565b80601f0160208091040260200160405190810160405280929190818152602001828054611695906132fe565b80156116e25780601f106116b7576101008083540402835291602001916116e2565b820191906000526020600020905b8154815290600101906020018083116116c557829003601f168201915b505050505081526020016008820180546116fb906132fe565b80601f0160208091040260200160405190810160405280929190818152602001828054611727906132fe565b80156117745780601f1061174957610100808354040283529160200191611774565b820191906000526020600020905b81548152906001019060200180831161175757829003601f168201915b5050505050815260200160098201805461178d906132fe565b80601f01602080910402602001604051908101604052809291908181526020018280546117b9906132fe565b80156118065780601f106117db57610100808354040283529160200191611806565b820191906000526020600020905b8154815290600101906020018083116117e957829003601f168201915b505050505081525050828281518110611848577f4e487b7100000000000000000000000000000000000000000000000000000000600052603260045260246000fd5b6020026020010181905250808061185e90613361565b9150506112ba565b508091505090565b6001600080828254611880919061325c565b9250508190555060405180610140016040528060005481526020018781526020018681526020018481526020018581526020018381526020018281526020018a815260200188815260200189815250600360008054815260200190815260200160002060008201518160000155602082015181600101908051906020019061190992919061257e565b50604082015181600201908051906020019061192692919061257e565b50606082015181600301908051906020019061194392919061257e565b50608082015181600401908051906020019061196092919061257e565b5060a082015181600501908051906020019061197d92919061257e565b5060c082015181600601908051906020019061199a92919061257e565b5060e08201518160070190805190602001906119b792919061257e565b506101008201518160080190805190602001906119d592919061257e565b506101208201518160090190805190602001906119f392919061257e565b50905050505050505050505050565b6005602052806000526040600020600091509050806000015490806001018054611a2b906132fe565b80601f0160208091040260200160405190810160405280929190818152602001828054611a57906132fe565b8015611aa45780601f10611a7957610100808354040283529160200191611aa4565b820191906000526020600020905b815481529060010190602001808311611a8757829003601f168201915b505050505090806002018054611ab9906132fe565b80601f0160208091040260200160405190810160405280929190818152602001828054611ae5906132fe565b8015611b325780601f10611b0757610100808354040283529160200191611b32565b820191906000526020600020905b815481529060010190602001808311611b1557829003601f168201915b505050505090806003018054611b47906132fe565b80601f0160208091040260200160405190810160405280929190818152602001828054611b73906132fe565b8015611bc05780601f10611b9557610100808354040283529160200191611bc0565b820191906000526020600020905b815481529060010190602001808311611ba357829003601f168201915b505050505090806004018054611bd5906132fe565b80601f0160208091040260200160405190810160405280929190818152602001828054611c01906132fe565b8015611c4e5780601f10611c2357610100808354040283529160200191611c4e565b820191906000526020600020905b815481529060010190602001808311611c3157829003601f168201915b505050505090806005018054611c63906132fe565b80601f0160208091040260200160405190810160405280929190818152602001828054611c8f906132fe565b8015611cdc5780601f10611cb157610100808354040283529160200191611cdc565b820191906000526020600020905b815481529060010190602001808311611cbf57829003601f168201915b505050505090806006018054611cf1906132fe565b80601f0160208091040260200160405190810160405280929190818152602001828054611d1d906132fe565b8015611d6a5780601f10611d3f57610100808354040283529160200191611d6a565b820191906000526020600020905b815481529060010190602001808311611d4d57829003601f168201915b5050505050905087565b60606000805467ffffffffffffffff811115611db9577f4e487b7100000000000000000000000000000000000000000000000000000000600052604160045260246000fd5b604051908082528060200260200182016040528015611df257816020015b611ddf612657565b815260200190600190039081611dd75790505b50905060005b6000548110156123a457600360008281526020019081526020016000206040518061014001604052908160008201548152602001600182018054611e3b906132fe565b80601f0160208091040260200160405190810160405280929190818152602001828054611e67906132fe565b8015611eb45780601f10611e8957610100808354040283529160200191611eb4565b820191906000526020600020905b815481529060010190602001808311611e9757829003601f168201915b50505050508152602001600282018054611ecd906132fe565b80601f0160208091040260200160405190810160405280929190818152602001828054611ef9906132fe565b8015611f465780601f10611f1b57610100808354040283529160200191611f46565b820191906000526020600020905b815481529060010190602001808311611f2957829003601f168201915b50505050508152602001600382018054611f5f906132fe565b80601f0160208091040260200160405190810160405280929190818152602001828054611f8b906132fe565b8015611fd85780601f10611fad57610100808354040283529160200191611fd8565b820191906000526020600020905b815481529060010190602001808311611fbb57829003601f168201915b50505050508152602001600482018054611ff1906132fe565b80601f016020809104026020016040519081016040528092919081815260200182805461201d906132fe565b801561206a5780601f1061203f5761010080835404028352916020019161206a565b820191906000526020600020905b81548152906001019060200180831161204d57829003601f168201915b50505050508152602001600582018054612083906132fe565b80601f01602080910402602001604051908101604052809291908181526020018280546120af906132fe565b80156120fc5780601f106120d1576101008083540402835291602001916120fc565b820191906000526020600020905b8154815290600101906020018083116120df57829003601f168201915b50505050508152602001600682018054612115906132fe565b80601f0160208091040260200160405190810160405280929190818152602001828054612141906132fe565b801561218e5780601f106121635761010080835404028352916020019161218e565b820191906000526020600020905b81548152906001019060200180831161217157829003601f168201915b505050505081526020016007820180546121a7906132fe565b80601f01602080910402602001604051908101604052809291908181526020018280546121d3906132fe565b80156122205780601f106121f557610100808354040283529160200191612220565b820191906000526020600020905b81548152906001019060200180831161220357829003601f168201915b50505050508152602001600882018054612239906132fe565b80601f0160208091040260200160405190810160405280929190818152602001828054612265906132fe565b80156122b25780601f10612287576101008083540402835291602001916122b2565b820191906000526020600020905b81548152906001019060200180831161229557829003601f168201915b505050505081526020016009820180546122cb906132fe565b80601f01602080910402602001604051908101604052809291908181526020018280546122f7906132fe565b80156123445780601f1061231957610100808354040283529160200191612344565b820191906000526020600020905b81548152906001019060200180831161232757829003601f168201915b505050505081525050828281518110612386577f4e487b7100000000000000000000000000000000000000000000000000000000600052603260045260246000fd5b6020026020010181905250808061239c90613361565b915050611df8565b508091505090565b60018060008282546123be919061325c565b9250508190555060405180610140016040528060015481526020018781526020018681526020018481526020018581526020018381526020018281526020018a81526020018881526020018981525060046000600154815260200190815260200160002060008201518160000155602082015181600101908051906020019061244892919061257e565b50604082015181600201908051906020019061246592919061257e565b50606082015181600301908051906020019061248292919061257e565b50608082015181600401908051906020019061249f92919061257e565b5060a08201518160050190805190602001906124bc92919061257e565b5060c08201518160060190805190602001906124d992919061257e565b5060e08201518160070190805190602001906124f692919061257e565b5061010082015181600801908051906020019061251492919061257e565b5061012082015181600901908051906020019061253292919061257e565b50905050505050505050505050565b6040518060e00160405280600081526020016060815260200160608152602001606081526020016060815260200160608152602001606081525090565b82805461258a906132fe565b90600052602060002090601f0160209004810192826125ac57600085556125f3565b82601f106125c557805160ff19168380011785556125f3565b828001600101855582156125f3579182015b828111156125f25782518255916020019190600101906125d7565b5b50905061260091906126aa565b5090565b604051806101400160405280600081526020016060815260200160608152602001606081526020016060815260200160608152602001606081526020016060815260200160608152602001606081525090565b604051806101400160405280600081526020016060815260200160608152602001606081526020016060815260200160608152602001606081526020016060815260200160608152602001606081525090565b5b808211156126c35760008160009055506001016126ab565b5090565b60006126da6126d584613153565b61312e565b9050828152602081018484840111156126f257600080fd5b6126fd8482856132bc565b509392505050565b600082601f83011261271657600080fd5b81356127268482602086016126c7565b91505092915050565b60008135905061273e81613448565b92915050565b60008060008060008060c0878903121561275d57600080fd5b600087013567ffffffffffffffff81111561277757600080fd5b61278389828a01612705565b965050602087013567ffffffffffffffff8111156127a057600080fd5b6127ac89828a01612705565b955050604087013567ffffffffffffffff8111156127c957600080fd5b6127d589828a01612705565b945050606087013567ffffffffffffffff8111156127f257600080fd5b6127fe89828a01612705565b935050608087013567ffffffffffffffff81111561281b57600080fd5b61282789828a01612705565b92505060a087013567ffffffffffffffff81111561284457600080fd5b61285089828a01612705565b9150509295509295509295565b60008060008060008060008060006101208a8c03121561287c57600080fd5b60008a013567ffffffffffffffff81111561289657600080fd5b6128a28c828d01612705565b99505060208a013567ffffffffffffffff8111156128bf57600080fd5b6128cb8c828d01612705565b98505060408a013567ffffffffffffffff8111156128e857600080fd5b6128f48c828d01612705565b97505060608a013567ffffffffffffffff81111561291157600080fd5b61291d8c828d01612705565b96505060808a013567ffffffffffffffff81111561293a57600080fd5b6129468c828d01612705565b95505060a08a013567ffffffffffffffff81111561296357600080fd5b61296f8c828d01612705565b94505060c08a013567ffffffffffffffff81111561298c57600080fd5b6129988c828d01612705565b93505060e08a013567ffffffffffffffff8111156129b557600080fd5b6129c18c828d01612705565b9250506101008a013567ffffffffffffffff8111156129df57600080fd5b6129eb8c828d01612705565b9150509295985092959850929598565b600060208284031215612a0d57600080fd5b6000612a1b8482850161272f565b91505092915050565b6000612a308383612c31565b905092915050565b6000612a448383612d43565b905092915050565b6000612a588383612e55565b905092915050565b6000612a6b826131b4565b612a758185613207565b935083602082028501612a8785613184565b8060005b85811015612ac35784840389528151612aa48582612a24565b9450612aaf836131e0565b925060208a01995050600181019050612a8b565b50829750879550505050505092915050565b6000612ae0826131bf565b612aea8185613218565b935083602082028501612afc85613194565b8060005b85811015612b385784840389528151612b198582612a38565b9450612b24836131ed565b925060208a01995050600181019050612b00565b50829750879550505050505092915050565b6000612b55826131ca565b612b5f8185613229565b935083602082028501612b71856131a4565b8060005b85811015612bad5784840389528151612b8e8582612a4c565b9450612b99836131fa565b925060208a01995050600181019050612b75565b50829750879550505050505092915050565b6000612bca826131d5565b612bd4818561323a565b9350612be48185602086016132cb565b612bed81613437565b840191505092915050565b6000612c03826131d5565b612c0d818561324b565b9350612c1d8185602086016132cb565b612c2681613437565b840191505092915050565b600061014083016000830151612c4a6000860182612f14565b5060208301518482036020860152612c628282612bbf565b91505060408301518482036040860152612c7c8282612bbf565b91505060608301518482036060860152612c968282612bbf565b91505060808301518482036080860152612cb08282612bbf565b91505060a083015184820360a0860152612cca8282612bbf565b91505060c083015184820360c0860152612ce48282612bbf565b91505060e083015184820360e0860152612cfe8282612bbf565b915050610100830151848203610100860152612d1a8282612bbf565b915050610120830151848203610120860152612d368282612bbf565b9150508091505092915050565b600061014083016000830151612d5c6000860182612f14565b5060208301518482036020860152612d748282612bbf565b91505060408301518482036040860152612d8e8282612bbf565b91505060608301518482036060860152612da88282612bbf565b91505060808301518482036080860152612dc28282612bbf565b91505060a083015184820360a0860152612ddc8282612bbf565b91505060c083015184820360c0860152612df68282612bbf565b91505060e083015184820360e0860152612e108282612bbf565b915050610100830151848203610100860152612e2c8282612bbf565b915050610120830151848203610120860152612e488282612bbf565b9150508091505092915050565b600060e083016000830151612e6d6000860182612f14565b5060208301518482036020860152612e858282612bbf565b91505060408301518482036040860152612e9f8282612bbf565b91505060608301518482036060860152612eb98282612bbf565b91505060808301518482036080860152612ed38282612bbf565b91505060a083015184820360a0860152612eed8282612bbf565b91505060c083015184820360c0860152612f078282612bbf565b9150508091505092915050565b612f1d816132b2565b82525050565b612f2c816132b2565b82525050565b60006020820190508181036000830152612f4c8184612a60565b905092915050565b60006020820190508181036000830152612f6e8184612ad5565b905092915050565b60006020820190508181036000830152612f908184612b4a565b905092915050565b60006020820190508181036000830152612fb28184612bf8565b905092915050565b600060e082019050612fcf600083018a612f23565b8181036020830152612fe18189612bf8565b90508181036040830152612ff58188612bf8565b905081810360608301526130098187612bf8565b9050818103608083015261301d8186612bf8565b905081810360a08301526130318185612bf8565b905081810360c08301526130458184612bf8565b905098975050505050505050565b600061014082019050613069600083018d612f23565b818103602083015261307b818c612bf8565b9050818103604083015261308f818b612bf8565b905081810360608301526130a3818a612bf8565b905081810360808301526130b78189612bf8565b905081810360a08301526130cb8188612bf8565b905081810360c08301526130df8187612bf8565b905081810360e08301526130f38186612bf8565b90508181036101008301526131088185612bf8565b905081810361012083015261311d8184612bf8565b90509b9a5050505050505050505050565b6000613138613149565b90506131448282613330565b919050565b6000604051905090565b600067ffffffffffffffff82111561316e5761316d613408565b5b61317782613437565b9050602081019050919050565b6000819050602082019050919050565b6000819050602082019050919050565b6000819050602082019050919050565b600081519050919050565b600081519050919050565b600081519050919050565b600081519050919050565b6000602082019050919050565b6000602082019050919050565b6000602082019050919050565b600082825260208201905092915050565b600082825260208201905092915050565b600082825260208201905092915050565b600082825260208201905092915050565b600082825260208201905092915050565b6000613267826132b2565b9150613272836132b2565b9250827fffffffffffffffffffffffffffffffffffffffffffffffffffffffffffffffff038211156132a7576132a66133aa565b5b828201905092915050565b6000819050919050565b82818337600083830152505050565b60005b838110156132e95780820151818401526020810190506132ce565b838111156132f8576000848401525b50505050565b6000600282049050600182168061331657607f821691505b6020821081141561332a576133296133d9565b5b50919050565b61333982613437565b810181811067ffffffffffffffff8211171561335857613357613408565b5b80604052505050565b600061336c826132b2565b91507fffffffffffffffffffffffffffffffffffffffffffffffffffffffffffffffff82141561339f5761339e6133aa565b5b600182019050919050565b7f4e487b7100000000000000000000000000000000000000000000000000000000600052601160045260246000fd5b7f4e487b7100000000000000000000000000000000000000000000000000000000600052602260045260246000fd5b7f4e487b7100000000000000000000000000000000000000000000000000000000600052604160045260246000fd5b6000601f19601f8301169050919050565b613451816132b2565b811461345c57600080fd5b5056fea26469706673582212207bdcee805dd8efcbe84ae941d20fcacf4f3a08942283e0c47c384e156752954264736f6c63430008040033",
  "immutableReferences": {},
  "source": "// SPDX-License-Identifier: MIT\r\npragma solidity ^0.8.4;\r\n\r\ncontract hospital{\r\n    uint256 doctor_count = 0;\r\n    uint256 patient_count=0;\r\n    uint256 appointment_count=0;\r\n    mapping(uint => Doctor) public Doctors;\r\n    mapping(uint => Patient) public Patient_list;\r\n    mapping(uint => _Appointment) public Appointments;\r\n\r\n    struct Doctor {\r\n        uint doc_id;\r\n        string _firstName;\r\n        string _lastName;\r\n        string Contact_number;\r\n        string Emergency_number;\r\n        string _address;\r\n        string email;\r\n        string dob;\r\n        string martial_status;\r\n        string sex;\r\n    }\r\n    struct Patient{\r\n        uint _id;\r\n        string _firstName;\r\n        string _lastName;\r\n        string Contact_number;\r\n        string Emergency_number;\r\n        string _address;\r\n        string email;\r\n        string dob;\r\n        string martial_status;\r\n        string sex;\r\n    }\r\n\r\n    struct _Appointment{\r\n        uint _id;\r\n        string Doctor_name;\r\n        string Patient_name;\r\n        string doc_email;\r\n        string patient_email;\r\n        string Appointment_time;\r\n        string Appointment_reason;\r\n    }\r\n     function hello() public pure returns (string memory){\r\n        return \"Test\";\r\n    }\r\n    function Get_appointment(string memory doc_name,string memory patient_name,string memory Appoint_time,string memory reason,string memory doc_email,string memory patient_email) public{\r\n        appointment_count+=1;\r\n        Appointments[appointment_count]=_Appointment(appointment_count,doc_name,patient_name,doc_email,patient_email,Appoint_time,reason);\r\n    }\r\n\r\n    function Register_patient(string memory dob,string memory sex,string memory martial_status,string memory _firstName, string memory _lastName,string memory emergency_num,string memory contact_num, string memory _Address,string memory email) public{\r\n        patient_count+=1;\r\n        Patient_list[patient_count]=Patient(patient_count,_firstName,_lastName,contact_num,emergency_num,_Address,email,dob,martial_status,sex);\r\n    }\r\n    function Add_Doctor(string memory dob,string memory sex,string memory martial_status,string memory _firstName, string memory _lastName,string memory emergency_num,string memory contact_num, string memory _Address,string memory email)  public {\r\n        doctor_count+=1;\r\n        Doctors[doctor_count]=Doctor(doctor_count,_firstName,_lastName,contact_num,emergency_num,_Address,email,dob,martial_status,sex);\r\n    }\r\n\r\n    function getAll_Doctors() public view returns (Doctor[] memory){\r\n        Doctor[] memory ret = new Doctor[](doctor_count);\r\n        for (uint i = 0; i < doctor_count; i++) {\r\n            ret[i] = Doctors[i];\r\n        }\r\n        return ret;\r\n    }   \r\n    \r\n    function getAll_Patients() public view returns (Patient[] memory){\r\n        Patient[] memory ret = new Patient[](patient_count);\r\n        for (uint i = 0; i < patient_count; i++) {\r\n            ret[i] = Patient_list[i];\r\n        }\r\n        return ret;\r\n    }    \r\n    function getAll_Appointments() public view returns (_Appointment[] memory){\r\n        _Appointment[] memory ret = new _Appointment[](appointment_count);\r\n        for (uint i = 0; i < appointment_count; i++) {\r\n            ret[i] = Appointments[i];\r\n            }\r\n        return ret;\r\n    }    \r\n}",
  "sourcePath": "F:\\Sem 7\\IBC\\Asg2\\smartcontract\\contracts\\hospital.sol",
  "compiler": {
    "name": "solc",
    "version": "0.8.4+commit.c7e474f2.Emscripten.clang"
  },
  "schemaVersion": "3.4.3",
  "updatedAt": "2021-12-05T20:14:57.628Z",
  "networkType": "ethereum",
  "devdoc": {
    "kind": "dev",
    "methods": {},
    "version": 1
  },
  "userdoc": {
    "kind": "user",
    "methods": {},
    "version": 1
  }
}