{
  "contractName": "Kit",
  "abi": [
    {
      "inputs": [
        {
          "internalType": "uint256",
          "name": "",
          "type": "uint256"
        }
      ],
      "name": "MedicalKits",
      "outputs": [
        {
          "internalType": "uint256",
          "name": "_id",
          "type": "uint256"
        },
        {
          "internalType": "string",
          "name": "Nurse_name",
          "type": "string"
        },
        {
          "internalType": "string",
          "name": "nurse_email",
          "type": "string"
        },
        {
          "internalType": "string",
          "name": "time_taken",
          "type": "string"
        },
        {
          "internalType": "string",
          "name": "reason",
          "type": "string"
        },
        {
          "internalType": "bytes32",
          "name": "photo_hash",
          "type": "bytes32"
        }
      ],
      "stateMutability": "view",
      "type": "function",
      "constant": true
    },
    {
      "inputs": [
        {
          "internalType": "uint256",
          "name": "",
          "type": "uint256"
        }
      ],
      "name": "Nurses",
      "outputs": [
        {
          "internalType": "uint256",
          "name": "nurse_id",
          "type": "uint256"
        },
        {
          "internalType": "string",
          "name": "_firstName",
          "type": "string"
        },
        {
          "internalType": "string",
          "name": "_lastName",
          "type": "string"
        },
        {
          "internalType": "string",
          "name": "Contact_number",
          "type": "string"
        },
        {
          "internalType": "string",
          "name": "Emergency_number",
          "type": "string"
        },
        {
          "internalType": "string",
          "name": "_address",
          "type": "string"
        },
        {
          "internalType": "string",
          "name": "email",
          "type": "string"
        },
        {
          "internalType": "string",
          "name": "dob",
          "type": "string"
        },
        {
          "internalType": "string",
          "name": "martial_status",
          "type": "string"
        },
        {
          "internalType": "string",
          "name": "sex",
          "type": "string"
        },
        {
          "internalType": "address",
          "name": "AccountAddress",
          "type": "address"
        }
      ],
      "stateMutability": "view",
      "type": "function",
      "constant": true
    },
    {
      "inputs": [
        {
          "internalType": "string",
          "name": "dob",
          "type": "string"
        },
        {
          "internalType": "string",
          "name": "sex",
          "type": "string"
        },
        {
          "internalType": "string",
          "name": "martial_status",
          "type": "string"
        },
        {
          "internalType": "string",
          "name": "_firstName",
          "type": "string"
        },
        {
          "internalType": "string",
          "name": "_lastName",
          "type": "string"
        },
        {
          "internalType": "string",
          "name": "emergency_num",
          "type": "string"
        },
        {
          "internalType": "string",
          "name": "contact_num",
          "type": "string"
        },
        {
          "internalType": "string",
          "name": "_Address",
          "type": "string"
        },
        {
          "internalType": "string",
          "name": "email",
          "type": "string"
        }
      ],
      "name": "Add_Nurse",
      "outputs": [],
      "stateMutability": "nonpayable",
      "type": "function"
    },
    {
      "inputs": [
        {
          "internalType": "bytes32",
          "name": "photohash",
          "type": "bytes32"
        },
        {
          "internalType": "string",
          "name": "Nurse_name",
          "type": "string"
        },
        {
          "internalType": "string",
          "name": "time_taken",
          "type": "string"
        },
        {
          "internalType": "string",
          "name": "reason",
          "type": "string"
        },
        {
          "internalType": "string",
          "name": "nurse_email",
          "type": "string"
        }
      ],
      "name": "Get_MedicalKit",
      "outputs": [],
      "stateMutability": "nonpayable",
      "type": "function"
    },
    {
      "inputs": [],
      "name": "getAll_MedicalKits",
      "outputs": [
        {
          "components": [
            {
              "internalType": "uint256",
              "name": "_id",
              "type": "uint256"
            },
            {
              "internalType": "string",
              "name": "Nurse_name",
              "type": "string"
            },
            {
              "internalType": "string",
              "name": "nurse_email",
              "type": "string"
            },
            {
              "internalType": "string",
              "name": "time_taken",
              "type": "string"
            },
            {
              "internalType": "string",
              "name": "reason",
              "type": "string"
            },
            {
              "internalType": "bytes32",
              "name": "photo_hash",
              "type": "bytes32"
            }
          ],
          "internalType": "struct Kit.MedicalKit[]",
          "name": "",
          "type": "tuple[]"
        }
      ],
      "stateMutability": "view",
      "type": "function",
      "constant": true
    }
  ],
  "bytecode": "0x608060405260008055600a60015534801561001957600080fd5b50611a0f806100296000396000f3fe608060405234801561001057600080fd5b50600436106100575760003560e01c80630441edcc1461005c578063235e80da1461007a57806345e7e8a914610096578063655db535146100cb5780639f442e03146100e7575b600080fd5b610064610121565b604051610071919061150a565b60405180910390f35b610094600480360381019061008f9190611088565b610489565b005b6100b060048036038101906100ab91906112fd565b610584565b6040516100c29695949392919061152c565b60405180910390f35b6100e560048036038101906100e0919061115f565b6107e0565b005b61010160048036038101906100fc91906112fd565b6109d8565b6040516101189b9a999897969594939291906115a9565b60405180910390f35b6060600060015467ffffffffffffffff811115610167577f4e487b7100000000000000000000000000000000000000000000000000000000600052604160045260246000fd5b6040519080825280602002602001820160405280156101a057816020015b61018d610f1a565b8152602001906001900390816101855790505b50905060005b60015481101561048157600360008281526020019081526020016000206040518060c0016040529081600082015481526020016001820180546101e890611861565b80601f016020809104026020016040519081016040528092919081815260200182805461021490611861565b80156102615780601f1061023657610100808354040283529160200191610261565b820191906000526020600020905b81548152906001019060200180831161024457829003601f168201915b5050505050815260200160028201805461027a90611861565b80601f01602080910402602001604051908101604052809291908181526020018280546102a690611861565b80156102f35780601f106102c8576101008083540402835291602001916102f3565b820191906000526020600020905b8154815290600101906020018083116102d657829003601f168201915b5050505050815260200160038201805461030c90611861565b80601f016020809104026020016040519081016040528092919081815260200182805461033890611861565b80156103855780601f1061035a57610100808354040283529160200191610385565b820191906000526020600020905b81548152906001019060200180831161036857829003601f168201915b5050505050815260200160048201805461039e90611861565b80601f01602080910402602001604051908101604052809291908181526020018280546103ca90611861565b80156104175780601f106103ec57610100808354040283529160200191610417565b820191906000526020600020905b8154815290600101906020018083116103fa57829003601f168201915b50505050508152602001600582015481525050828281518110610463577f4e487b7100000000000000000000000000000000000000000000000000000000600052603260045260246000fd5b60200260200101819052508080610479906118c4565b9150506101a6565b508091505090565b600060015411156104ae5760018060008282546104a691906117a5565b925050819055505b6040518060c00160405280600154815260200185815260200182815260200184815260200183815260200186815250600360006001548152602001908152602001600020600082015181600001556020820151816001019080519060200190610518929190610f53565b506040820151816002019080519060200190610535929190610f53565b506060820151816003019080519060200190610552929190610f53565b50608082015181600401908051906020019061056f929190610f53565b5060a082015181600501559050505050505050565b60036020528060005260406000206000915090508060000154908060010180546105ad90611861565b80601f01602080910402602001604051908101604052809291908181526020018280546105d990611861565b80156106265780601f106105fb57610100808354040283529160200191610626565b820191906000526020600020905b81548152906001019060200180831161060957829003601f168201915b50505050509080600201805461063b90611861565b80601f016020809104026020016040519081016040528092919081815260200182805461066790611861565b80156106b45780601f10610689576101008083540402835291602001916106b4565b820191906000526020600020905b81548152906001019060200180831161069757829003601f168201915b5050505050908060030180546106c990611861565b80601f01602080910402602001604051908101604052809291908181526020018280546106f590611861565b80156107425780601f1061071757610100808354040283529160200191610742565b820191906000526020600020905b81548152906001019060200180831161072557829003601f168201915b50505050509080600401805461075790611861565b80601f016020809104026020016040519081016040528092919081815260200182805461078390611861565b80156107d05780601f106107a5576101008083540402835291602001916107d0565b820191906000526020600020905b8154815290600101906020018083116107b357829003601f168201915b5050505050908060050154905086565b60016000808282546107f2919061174f565b9250508190555060405180610160016040528060005481526020018781526020018681526020018481526020018581526020018381526020018281526020018a81526020018881526020018981526020013373ffffffffffffffffffffffffffffffffffffffff168152506002600080548152602001908152602001600020600082015181600001556020820151816001019080519060200190610897929190610f53565b5060408201518160020190805190602001906108b4929190610f53565b5060608201518160030190805190602001906108d1929190610f53565b5060808201518160040190805190602001906108ee929190610f53565b5060a082015181600501908051906020019061090b929190610f53565b5060c0820151816006019080519060200190610928929190610f53565b5060e0820151816007019080519060200190610945929190610f53565b50610100820151816008019080519060200190610963929190610f53565b50610120820151816009019080519060200190610981929190610f53565b5061014082015181600a0160006101000a81548173ffffffffffffffffffffffffffffffffffffffff021916908373ffffffffffffffffffffffffffffffffffffffff160217905550905050505050505050505050565b6002602052806000526040600020600091509050806000015490806001018054610a0190611861565b80601f0160208091040260200160405190810160405280929190818152602001828054610a2d90611861565b8015610a7a5780601f10610a4f57610100808354040283529160200191610a7a565b820191906000526020600020905b815481529060010190602001808311610a5d57829003601f168201915b505050505090806002018054610a8f90611861565b80601f0160208091040260200160405190810160405280929190818152602001828054610abb90611861565b8015610b085780601f10610add57610100808354040283529160200191610b08565b820191906000526020600020905b815481529060010190602001808311610aeb57829003601f168201915b505050505090806003018054610b1d90611861565b80601f0160208091040260200160405190810160405280929190818152602001828054610b4990611861565b8015610b965780601f10610b6b57610100808354040283529160200191610b96565b820191906000526020600020905b815481529060010190602001808311610b7957829003601f168201915b505050505090806004018054610bab90611861565b80601f0160208091040260200160405190810160405280929190818152602001828054610bd790611861565b8015610c245780601f10610bf957610100808354040283529160200191610c24565b820191906000526020600020905b815481529060010190602001808311610c0757829003601f168201915b505050505090806005018054610c3990611861565b80601f0160208091040260200160405190810160405280929190818152602001828054610c6590611861565b8015610cb25780601f10610c8757610100808354040283529160200191610cb2565b820191906000526020600020905b815481529060010190602001808311610c9557829003601f168201915b505050505090806006018054610cc790611861565b80601f0160208091040260200160405190810160405280929190818152602001828054610cf390611861565b8015610d405780601f10610d1557610100808354040283529160200191610d40565b820191906000526020600020905b815481529060010190602001808311610d2357829003601f168201915b505050505090806007018054610d5590611861565b80601f0160208091040260200160405190810160405280929190818152602001828054610d8190611861565b8015610dce5780601f10610da357610100808354040283529160200191610dce565b820191906000526020600020905b815481529060010190602001808311610db157829003601f168201915b505050505090806008018054610de390611861565b80601f0160208091040260200160405190810160405280929190818152602001828054610e0f90611861565b8015610e5c5780601f10610e3157610100808354040283529160200191610e5c565b820191906000526020600020905b815481529060010190602001808311610e3f57829003601f168201915b505050505090806009018054610e7190611861565b80601f0160208091040260200160405190810160405280929190818152602001828054610e9d90611861565b8015610eea5780601f10610ebf57610100808354040283529160200191610eea565b820191906000526020600020905b815481529060010190602001808311610ecd57829003601f168201915b50505050509080600a0160009054906101000a900473ffffffffffffffffffffffffffffffffffffffff1690508b565b6040518060c001604052806000815260200160608152602001606081526020016060815260200160608152602001600080191681525090565b828054610f5f90611861565b90600052602060002090601f016020900481019282610f815760008555610fc8565b82601f10610f9a57805160ff1916838001178555610fc8565b82800160010185558215610fc8579182015b82811115610fc7578251825591602001919060010190610fac565b5b509050610fd59190610fd9565b5090565b5b80821115610ff2576000816000905550600101610fda565b5090565b6000611009611004846116b8565b611693565b90508281526020810184848401111561102157600080fd5b61102c84828561181f565b509392505050565b600081359050611043816119ab565b92915050565b600082601f83011261105a57600080fd5b813561106a848260208601610ff6565b91505092915050565b600081359050611082816119c2565b92915050565b600080600080600060a086880312156110a057600080fd5b60006110ae88828901611034565b955050602086013567ffffffffffffffff8111156110cb57600080fd5b6110d788828901611049565b945050604086013567ffffffffffffffff8111156110f457600080fd5b61110088828901611049565b935050606086013567ffffffffffffffff81111561111d57600080fd5b61112988828901611049565b925050608086013567ffffffffffffffff81111561114657600080fd5b61115288828901611049565b9150509295509295909350565b60008060008060008060008060006101208a8c03121561117e57600080fd5b60008a013567ffffffffffffffff81111561119857600080fd5b6111a48c828d01611049565b99505060208a013567ffffffffffffffff8111156111c157600080fd5b6111cd8c828d01611049565b98505060408a013567ffffffffffffffff8111156111ea57600080fd5b6111f68c828d01611049565b97505060608a013567ffffffffffffffff81111561121357600080fd5b61121f8c828d01611049565b96505060808a013567ffffffffffffffff81111561123c57600080fd5b6112488c828d01611049565b95505060a08a013567ffffffffffffffff81111561126557600080fd5b6112718c828d01611049565b94505060c08a013567ffffffffffffffff81111561128e57600080fd5b61129a8c828d01611049565b93505060e08a013567ffffffffffffffff8111156112b757600080fd5b6112c38c828d01611049565b9250506101008a013567ffffffffffffffff8111156112e157600080fd5b6112ed8c828d01611049565b9150509295985092959850929598565b60006020828403121561130f57600080fd5b600061131d84828501611073565b91505092915050565b6000611332838361144e565b905092915050565b611343816117d9565b82525050565b6000611354826116f9565b61135e818561171c565b935083602082028501611370856116e9565b8060005b858110156113ac578484038952815161138d8582611326565b94506113988361170f565b925060208a01995050600181019050611374565b50829750879550505050505092915050565b6113c7816117eb565b82525050565b6113d6816117eb565b82525050565b60006113e782611704565b6113f1818561172d565b935061140181856020860161182e565b61140a8161199a565b840191505092915050565b600061142082611704565b61142a818561173e565b935061143a81856020860161182e565b6114438161199a565b840191505092915050565b600060c08301600083015161146660008601826114ec565b506020830151848203602086015261147e82826113dc565b9150506040830151848203604086015261149882826113dc565b915050606083015184820360608601526114b282826113dc565b915050608083015184820360808601526114cc82826113dc565b91505060a08301516114e160a08601826113be565b508091505092915050565b6114f581611815565b82525050565b61150481611815565b82525050565b600060208201905081810360008301526115248184611349565b905092915050565b600060c08201905061154160008301896114fb565b81810360208301526115538188611415565b905081810360408301526115678187611415565b9050818103606083015261157b8186611415565b9050818103608083015261158f8185611415565b905061159e60a08301846113cd565b979650505050505050565b6000610160820190506115bf600083018e6114fb565b81810360208301526115d1818d611415565b905081810360408301526115e5818c611415565b905081810360608301526115f9818b611415565b9050818103608083015261160d818a611415565b905081810360a08301526116218189611415565b905081810360c08301526116358188611415565b905081810360e08301526116498187611415565b905081810361010083015261165e8186611415565b90508181036101208301526116738185611415565b905061168361014083018461133a565b9c9b505050505050505050505050565b600061169d6116ae565b90506116a98282611893565b919050565b6000604051905090565b600067ffffffffffffffff8211156116d3576116d261196b565b5b6116dc8261199a565b9050602081019050919050565b6000819050602082019050919050565b600081519050919050565b600081519050919050565b6000602082019050919050565b600082825260208201905092915050565b600082825260208201905092915050565b600082825260208201905092915050565b600061175a82611815565b915061176583611815565b9250827fffffffffffffffffffffffffffffffffffffffffffffffffffffffffffffffff0382111561179a5761179961190d565b5b828201905092915050565b60006117b082611815565b91506117bb83611815565b9250828210156117ce576117cd61190d565b5b828203905092915050565b60006117e4826117f5565b9050919050565b6000819050919050565b600073ffffffffffffffffffffffffffffffffffffffff82169050919050565b6000819050919050565b82818337600083830152505050565b60005b8381101561184c578082015181840152602081019050611831565b8381111561185b576000848401525b50505050565b6000600282049050600182168061187957607f821691505b6020821081141561188d5761188c61193c565b5b50919050565b61189c8261199a565b810181811067ffffffffffffffff821117156118bb576118ba61196b565b5b80604052505050565b60006118cf82611815565b91507fffffffffffffffffffffffffffffffffffffffffffffffffffffffffffffffff8214156119025761190161190d565b5b600182019050919050565b7f4e487b7100000000000000000000000000000000000000000000000000000000600052601160045260246000fd5b7f4e487b7100000000000000000000000000000000000000000000000000000000600052602260045260246000fd5b7f4e487b7100000000000000000000000000000000000000000000000000000000600052604160045260246000fd5b6000601f19601f8301169050919050565b6119b4816117eb565b81146119bf57600080fd5b50565b6119cb81611815565b81146119d657600080fd5b5056fea264697066735822122026ecf2977dc695f9b12dd844d7119a800e3fea885458e6749edf05f34b8c50c664736f6c63430008040033",
  "immutableReferences": {},
  "source": "// SPDX-License-Identifier: MIT\r\npragma solidity ^0.8.4;\r\n\r\ncontract Kit{\r\n    uint256 nurse_count = 0;\r\n    uint256 kit_count = 10;\r\n    mapping(uint => Nurse) public Nurses;\r\n    mapping(uint => MedicalKit) public MedicalKits;\r\n\r\n    struct Nurse {\r\n        uint nurse_id;\r\n        string _firstName;\r\n        string _lastName;\r\n        string Contact_number;\r\n        string Emergency_number;\r\n        string _address;\r\n        string email;\r\n        string dob;\r\n        string martial_status;\r\n        string sex;\r\n        // Account address needed for identification\r\n        address AccountAddress;\r\n    }\r\n\r\n    struct MedicalKit{\r\n        uint _id;\r\n        string Nurse_name;\r\n        string nurse_email;\r\n        string time_taken;\r\n        string reason;\r\n        bytes32 photo_hash;\r\n    }\r\n\r\n    function Add_Nurse(string memory dob, string memory sex, string memory martial_status, string memory _firstName, string memory _lastName, string memory emergency_num, string memory contact_num, string memory _Address, string memory email)  public {\r\n        nurse_count += 1;\r\n        Nurses[nurse_count]=Nurse(nurse_count, _firstName, _lastName, contact_num, emergency_num, _Address, email, dob, martial_status, sex, msg.sender);\r\n    }\r\n\r\n    function Get_MedicalKit(bytes32 photohash,string memory Nurse_name, string memory time_taken, string memory reason, string memory nurse_email) public{\r\n        if( kit_count > 0 ) {\r\n            kit_count -= 1;\r\n        }\r\n        MedicalKits[kit_count] = MedicalKit(kit_count, Nurse_name, nurse_email, time_taken, reason,photohash);\r\n    }\r\n\r\n    function getAll_MedicalKits() public view returns (MedicalKit[] memory){\r\n        MedicalKit[] memory ret = new MedicalKit[](kit_count);\r\n        for (uint i = 0; i < kit_count; i++) {\r\n            ret[i] = MedicalKits[i];\r\n        }\r\n        return ret;\r\n    }\r\n}",
  "sourcePath": "F:\\Sem 7\\IBC\\Blockchain-Project-DAPP-Healthcare\\contracts\\Kit.sol",
  "compiler": {
    "name": "solc",
    "version": "0.8.4+commit.c7e474f2.Emscripten.clang"
  },
  "schemaVersion": "3.4.3",
  "updatedAt": "2021-12-21T20:27:26.817Z",
  "networkType": "ethereum",
  "devdoc": {
    "kind": "dev",
    "methods": {},
    "version": 1
  },
  "userdoc": {
    "kind": "user",
    "methods": {},
    "version": 1
  }
}