{
  "contractName": "kits",
  "abi": [
    {
      "inputs": [
        {
          "internalType": "uint256",
          "name": "",
          "type": "uint256"
        }
      ],
      "name": "MedicalKits",
      "outputs": [
        {
          "internalType": "uint256",
          "name": "_id",
          "type": "uint256"
        },
        {
          "internalType": "string",
          "name": "Nurse_name",
          "type": "string"
        },
        {
          "internalType": "string",
          "name": "nurse_email",
          "type": "string"
        },
        {
          "internalType": "string",
          "name": "time_taken",
          "type": "string"
        },
        {
          "internalType": "string",
          "name": "reason",
          "type": "string"
        }
      ],
      "stateMutability": "view",
      "type": "function"
    },
    {
      "inputs": [
        {
          "internalType": "uint256",
          "name": "",
          "type": "uint256"
        }
      ],
      "name": "Nurses",
      "outputs": [
        {
          "internalType": "uint256",
          "name": "nurse_id",
          "type": "uint256"
        },
        {
          "internalType": "string",
          "name": "_firstName",
          "type": "string"
        },
        {
          "internalType": "string",
          "name": "_lastName",
          "type": "string"
        },
        {
          "internalType": "string",
          "name": "Contact_number",
          "type": "string"
        },
        {
          "internalType": "string",
          "name": "Emergency_number",
          "type": "string"
        },
        {
          "internalType": "string",
          "name": "_address",
          "type": "string"
        },
        {
          "internalType": "string",
          "name": "email",
          "type": "string"
        },
        {
          "internalType": "string",
          "name": "dob",
          "type": "string"
        },
        {
          "internalType": "string",
          "name": "martial_status",
          "type": "string"
        },
        {
          "internalType": "string",
          "name": "sex",
          "type": "string"
        },
        {
          "internalType": "address",
          "name": "AccountAddress",
          "type": "address"
        }
      ],
      "stateMutability": "view",
      "type": "function"
    },
    {
      "inputs": [
        {
          "internalType": "address",
          "name": "AccAddress",
          "type": "address"
        },
        {
          "internalType": "string",
          "name": "dob",
          "type": "string"
        },
        {
          "internalType": "string",
          "name": "sex",
          "type": "string"
        },
        {
          "internalType": "string",
          "name": "martial_status",
          "type": "string"
        },
        {
          "internalType": "string",
          "name": "_firstName",
          "type": "string"
        },
        {
          "internalType": "string",
          "name": "_lastName",
          "type": "string"
        },
        {
          "internalType": "string",
          "name": "emergency_num",
          "type": "string"
        },
        {
          "internalType": "string",
          "name": "contact_num",
          "type": "string"
        },
        {
          "internalType": "string",
          "name": "_Address",
          "type": "string"
        },
        {
          "internalType": "string",
          "name": "email",
          "type": "string"
        }
      ],
      "name": "Add_Nurse",
      "outputs": [],
      "stateMutability": "nonpayable",
      "type": "function"
    },
    {
      "inputs": [
        {
          "internalType": "string",
          "name": "Nurse_name",
          "type": "string"
        },
        {
          "internalType": "string",
          "name": "time_taken",
          "type": "string"
        },
        {
          "internalType": "string",
          "name": "reason",
          "type": "string"
        },
        {
          "internalType": "string",
          "name": "nurse_email",
          "type": "string"
        }
      ],
      "name": "Get_MedicalKit",
      "outputs": [],
      "stateMutability": "nonpayable",
      "type": "function"
    },
    {
      "inputs": [],
      "name": "getAll_MedicalKits",
      "outputs": [
        {
          "components": [
            {
              "internalType": "uint256",
              "name": "_id",
              "type": "uint256"
            },
            {
              "internalType": "string",
              "name": "Nurse_name",
              "type": "string"
            },
            {
              "internalType": "string",
              "name": "nurse_email",
              "type": "string"
            },
            {
              "internalType": "string",
              "name": "time_taken",
              "type": "string"
            },
            {
              "internalType": "string",
              "name": "reason",
              "type": "string"
            }
          ],
          "internalType": "struct kits.MedicalKit[]",
          "name": "",
          "type": "tuple[]"
        }
      ],
      "stateMutability": "view",
      "type": "function"
    }
  ],
  "bytecode": "0x608060405260008055600a60015534801561001957600080fd5b5061199c806100296000396000f3fe608060405234801561001057600080fd5b50600436106100575760003560e01c80630441edcc1461005c5780633cd790601461007a57806345e7e8a9146100965780639f442e03146100ca578063cea9c96c14610104575b600080fd5b610064610120565b60405161007191906114af565b60405180910390f35b610094600480360381019061008f919061105d565b61047e565b005b6100b060048036038101906100ab91906112d3565b610677565b6040516100c19594939291906114d1565b60405180910390f35b6100e460048036038101906100df91906112d3565b6108cd565b6040516100fb9b9a99989796959493929190611540565b60405180910390f35b61011e60048036038101906101199190611210565b610e0f565b005b6060600060015467ffffffffffffffff811115610166577f4e487b7100000000000000000000000000000000000000000000000000000000600052604160045260246000fd5b60405190808252806020026020018201604052801561019f57816020015b61018c610ef9565b8152602001906001900390816101845790505b50905060005b60015481101561047657600360008281526020019081526020016000206040518060a0016040529081600082015481526020016001820180546101e7906117ee565b80601f0160208091040260200160405190810160405280929190818152602001828054610213906117ee565b80156102605780601f1061023557610100808354040283529160200191610260565b820191906000526020600020905b81548152906001019060200180831161024357829003601f168201915b50505050508152602001600282018054610279906117ee565b80601f01602080910402602001604051908101604052809291908181526020018280546102a5906117ee565b80156102f25780601f106102c7576101008083540402835291602001916102f2565b820191906000526020600020905b8154815290600101906020018083116102d557829003601f168201915b5050505050815260200160038201805461030b906117ee565b80601f0160208091040260200160405190810160405280929190818152602001828054610337906117ee565b80156103845780601f1061035957610100808354040283529160200191610384565b820191906000526020600020905b81548152906001019060200180831161036757829003601f168201915b5050505050815260200160048201805461039d906117ee565b80601f01602080910402602001604051908101604052809291908181526020018280546103c9906117ee565b80156104165780601f106103eb57610100808354040283529160200191610416565b820191906000526020600020905b8154815290600101906020018083116103f957829003601f168201915b505050505081525050828281518110610458577f4e487b7100000000000000000000000000000000000000000000000000000000600052603260045260246000fd5b6020026020010181905250808061046e90611851565b9150506101a5565b508091505090565b600160008082825461049091906116e6565b9250508190555060405180610160016040528060005481526020018781526020018681526020018481526020018581526020018381526020018281526020018a81526020018881526020018981526020018b73ffffffffffffffffffffffffffffffffffffffff168152506002600080548152602001908152602001600020600082015181600001556020820151816001019080519060200190610535929190610f28565b506040820151816002019080519060200190610552929190610f28565b50606082015181600301908051906020019061056f929190610f28565b50608082015181600401908051906020019061058c929190610f28565b5060a08201518160050190805190602001906105a9929190610f28565b5060c08201518160060190805190602001906105c6929190610f28565b5060e08201518160070190805190602001906105e3929190610f28565b50610100820151816008019080519060200190610601929190610f28565b5061012082015181600901908051906020019061061f929190610f28565b5061014082015181600a0160006101000a81548173ffffffffffffffffffffffffffffffffffffffff021916908373ffffffffffffffffffffffffffffffffffffffff16021790555090505050505050505050505050565b60036020528060005260406000206000915090508060000154908060010180546106a0906117ee565b80601f01602080910402602001604051908101604052809291908181526020018280546106cc906117ee565b80156107195780601f106106ee57610100808354040283529160200191610719565b820191906000526020600020905b8154815290600101906020018083116106fc57829003601f168201915b50505050509080600201805461072e906117ee565b80601f016020809104026020016040519081016040528092919081815260200182805461075a906117ee565b80156107a75780601f1061077c576101008083540402835291602001916107a7565b820191906000526020600020905b81548152906001019060200180831161078a57829003601f168201915b5050505050908060030180546107bc906117ee565b80601f01602080910402602001604051908101604052809291908181526020018280546107e8906117ee565b80156108355780601f1061080a57610100808354040283529160200191610835565b820191906000526020600020905b81548152906001019060200180831161081857829003601f168201915b50505050509080600401805461084a906117ee565b80601f0160208091040260200160405190810160405280929190818152602001828054610876906117ee565b80156108c35780601f10610898576101008083540402835291602001916108c3565b820191906000526020600020905b8154815290600101906020018083116108a657829003601f168201915b5050505050905085565b60026020528060005260406000206000915090508060000154908060010180546108f6906117ee565b80601f0160208091040260200160405190810160405280929190818152602001828054610922906117ee565b801561096f5780601f106109445761010080835404028352916020019161096f565b820191906000526020600020905b81548152906001019060200180831161095257829003601f168201915b505050505090806002018054610984906117ee565b80601f01602080910402602001604051908101604052809291908181526020018280546109b0906117ee565b80156109fd5780601f106109d2576101008083540402835291602001916109fd565b820191906000526020600020905b8154815290600101906020018083116109e057829003601f168201915b505050505090806003018054610a12906117ee565b80601f0160208091040260200160405190810160405280929190818152602001828054610a3e906117ee565b8015610a8b5780601f10610a6057610100808354040283529160200191610a8b565b820191906000526020600020905b815481529060010190602001808311610a6e57829003601f168201915b505050505090806004018054610aa0906117ee565b80601f0160208091040260200160405190810160405280929190818152602001828054610acc906117ee565b8015610b195780601f10610aee57610100808354040283529160200191610b19565b820191906000526020600020905b815481529060010190602001808311610afc57829003601f168201915b505050505090806005018054610b2e906117ee565b80601f0160208091040260200160405190810160405280929190818152602001828054610b5a906117ee565b8015610ba75780601f10610b7c57610100808354040283529160200191610ba7565b820191906000526020600020905b815481529060010190602001808311610b8a57829003601f168201915b505050505090806006018054610bbc906117ee565b80601f0160208091040260200160405190810160405280929190818152602001828054610be8906117ee565b8015610c355780601f10610c0a57610100808354040283529160200191610c35565b820191906000526020600020905b815481529060010190602001808311610c1857829003601f168201915b505050505090806007018054610c4a906117ee565b80601f0160208091040260200160405190810160405280929190818152602001828054610c76906117ee565b8015610cc35780601f10610c9857610100808354040283529160200191610cc3565b820191906000526020600020905b815481529060010190602001808311610ca657829003601f168201915b505050505090806008018054610cd8906117ee565b80601f0160208091040260200160405190810160405280929190818152602001828054610d04906117ee565b8015610d515780601f10610d2657610100808354040283529160200191610d51565b820191906000526020600020905b815481529060010190602001808311610d3457829003601f168201915b505050505090806009018054610d66906117ee565b80601f0160208091040260200160405190810160405280929190818152602001828054610d92906117ee565b8015610ddf5780601f10610db457610100808354040283529160200191610ddf565b820191906000526020600020905b815481529060010190602001808311610dc257829003601f168201915b50505050509080600a0160009054906101000a900473ffffffffffffffffffffffffffffffffffffffff1690508b565b60006001541115610e34576001806000828254610e2c919061173c565b925050819055505b6040518060a00160405280600154815260200185815260200182815260200184815260200183815250600360006001548152602001908152602001600020600082015181600001556020820151816001019080519060200190610e98929190610f28565b506040820151816002019080519060200190610eb5929190610f28565b506060820151816003019080519060200190610ed2929190610f28565b506080820151816004019080519060200190610eef929190610f28565b5090505050505050565b6040518060a0016040528060008152602001606081526020016060815260200160608152602001606081525090565b828054610f34906117ee565b90600052602060002090601f016020900481019282610f565760008555610f9d565b82601f10610f6f57805160ff1916838001178555610f9d565b82800160010185558215610f9d579182015b82811115610f9c578251825591602001919060010190610f81565b5b509050610faa9190610fae565b5090565b5b80821115610fc7576000816000905550600101610faf565b5090565b6000610fde610fd98461164f565b61162a565b905082815260208101848484011115610ff657600080fd5b6110018482856117ac565b509392505050565b60008135905061101881611938565b92915050565b600082601f83011261102f57600080fd5b813561103f848260208601610fcb565b91505092915050565b6000813590506110578161194f565b92915050565b6000806000806000806000806000806101408b8d03121561107d57600080fd5b600061108b8d828e01611009565b9a505060208b013567ffffffffffffffff8111156110a857600080fd5b6110b48d828e0161101e565b99505060408b013567ffffffffffffffff8111156110d157600080fd5b6110dd8d828e0161101e565b98505060608b013567ffffffffffffffff8111156110fa57600080fd5b6111068d828e0161101e565b97505060808b013567ffffffffffffffff81111561112357600080fd5b61112f8d828e0161101e565b96505060a08b013567ffffffffffffffff81111561114c57600080fd5b6111588d828e0161101e565b95505060c08b013567ffffffffffffffff81111561117557600080fd5b6111818d828e0161101e565b94505060e08b013567ffffffffffffffff81111561119e57600080fd5b6111aa8d828e0161101e565b9350506101008b013567ffffffffffffffff8111156111c857600080fd5b6111d48d828e0161101e565b9250506101208b013567ffffffffffffffff8111156111f257600080fd5b6111fe8d828e0161101e565b9150509295989b9194979a5092959850565b6000806000806080858703121561122657600080fd5b600085013567ffffffffffffffff81111561124057600080fd5b61124c8782880161101e565b945050602085013567ffffffffffffffff81111561126957600080fd5b6112758782880161101e565b935050604085013567ffffffffffffffff81111561129257600080fd5b61129e8782880161101e565b925050606085013567ffffffffffffffff8111156112bb57600080fd5b6112c78782880161101e565b91505092959194509250565b6000602082840312156112e557600080fd5b60006112f384828501611048565b91505092915050565b60006113088383611406565b905092915050565b61131981611770565b82525050565b600061132a82611690565b61133481856116b3565b93508360208202850161134685611680565b8060005b85811015611382578484038952815161136385826112fc565b945061136e836116a6565b925060208a0199505060018101905061134a565b50829750879550505050505092915050565b600061139f8261169b565b6113a981856116c4565b93506113b98185602086016117bb565b6113c281611927565b840191505092915050565b60006113d88261169b565b6113e281856116d5565b93506113f28185602086016117bb565b6113fb81611927565b840191505092915050565b600060a08301600083015161141e6000860182611491565b50602083015184820360208601526114368282611394565b915050604083015184820360408601526114508282611394565b9150506060830151848203606086015261146a8282611394565b915050608083015184820360808601526114848282611394565b9150508091505092915050565b61149a816117a2565b82525050565b6114a9816117a2565b82525050565b600060208201905081810360008301526114c9818461131f565b905092915050565b600060a0820190506114e660008301886114a0565b81810360208301526114f881876113cd565b9050818103604083015261150c81866113cd565b9050818103606083015261152081856113cd565b9050818103608083015261153481846113cd565b90509695505050505050565b600061016082019050611556600083018e6114a0565b8181036020830152611568818d6113cd565b9050818103604083015261157c818c6113cd565b90508181036060830152611590818b6113cd565b905081810360808301526115a4818a6113cd565b905081810360a08301526115b881896113cd565b905081810360c08301526115cc81886113cd565b905081810360e08301526115e081876113cd565b90508181036101008301526115f581866113cd565b905081810361012083015261160a81856113cd565b905061161a610140830184611310565b9c9b505050505050505050505050565b6000611634611645565b90506116408282611820565b919050565b6000604051905090565b600067ffffffffffffffff82111561166a576116696118f8565b5b61167382611927565b9050602081019050919050565b6000819050602082019050919050565b600081519050919050565b600081519050919050565b6000602082019050919050565b600082825260208201905092915050565b600082825260208201905092915050565b600082825260208201905092915050565b60006116f1826117a2565b91506116fc836117a2565b9250827fffffffffffffffffffffffffffffffffffffffffffffffffffffffffffffffff038211156117315761173061189a565b5b828201905092915050565b6000611747826117a2565b9150611752836117a2565b9250828210156117655761176461189a565b5b828203905092915050565b600061177b82611782565b9050919050565b600073ffffffffffffffffffffffffffffffffffffffff82169050919050565b6000819050919050565b82818337600083830152505050565b60005b838110156117d95780820151818401526020810190506117be565b838111156117e8576000848401525b50505050565b6000600282049050600182168061180657607f821691505b6020821081141561181a576118196118c9565b5b50919050565b61182982611927565b810181811067ffffffffffffffff82111715611848576118476118f8565b5b80604052505050565b600061185c826117a2565b91507fffffffffffffffffffffffffffffffffffffffffffffffffffffffffffffffff82141561188f5761188e61189a565b5b600182019050919050565b7f4e487b7100000000000000000000000000000000000000000000000000000000600052601160045260246000fd5b7f4e487b7100000000000000000000000000000000000000000000000000000000600052602260045260246000fd5b7f4e487b7100000000000000000000000000000000000000000000000000000000600052604160045260246000fd5b6000601f19601f8301169050919050565b61194181611770565b811461194c57600080fd5b50565b611958816117a2565b811461196357600080fd5b5056fea26469706673582212209c57ba121c10ebd20fa0c8f40f544b81a3c55a8dc806baa6a0412135ad72d91564736f6c63430008040033",
  "immutableReferences": {},
  "source": "// SPDX-License-Identifier: MIT\r\npragma solidity ^0.8.4;\r\n\r\ncontract kits{\r\n    uint256 nurse_count = 0;\r\n    uint256 kit_count = 10;\r\n    mapping(uint => Nurse) public Nurses;\r\n    mapping(uint => MedicalKit) public MedicalKits;\r\n\r\n    struct Nurse {\r\n        uint nurse_id;\r\n        string _firstName;\r\n        string _lastName;\r\n        string Contact_number;\r\n        string Emergency_number;\r\n        string _address;\r\n        string email;\r\n        string dob;\r\n        string martial_status;\r\n        string sex;\r\n        // Account address needed for identification\r\n        address AccountAddress;\r\n    }\r\n\r\n    struct MedicalKit{\r\n        uint _id;\r\n        string Nurse_name;\r\n        string nurse_email;\r\n        string time_taken;\r\n        string reason;\r\n    }\r\n\r\n    function Add_Nurse(address AccAddress,string memory dob, string memory sex, string memory martial_status, string memory _firstName, string memory _lastName, string memory emergency_num, string memory contact_num, string memory _Address, string memory email)  public {\r\n        nurse_count += 1;\r\n        Nurses[nurse_count]=Nurse(nurse_count, _firstName, _lastName, contact_num, emergency_num, _Address, email, dob, martial_status, sex, AccAddress);\r\n    }\r\n\r\n    function Get_MedicalKit(string memory Nurse_name, string memory time_taken, string memory reason, string memory nurse_email) public{\r\n        if( kit_count > 0 ) {\r\n            kit_count -= 1;\r\n        }\r\n        MedicalKits[kit_count] = MedicalKit(kit_count, Nurse_name, nurse_email, time_taken, reason);\r\n    }\r\n\r\n    function getAll_MedicalKits() public view returns (MedicalKit[] memory){\r\n        MedicalKit[] memory ret = new MedicalKit[](kit_count);\r\n        for (uint i = 0; i < kit_count; i++) {\r\n            ret[i] = MedicalKits[i];\r\n        }\r\n        return ret;\r\n    }    \r\n}\r\n",
  "sourcePath": "F:\\Sem 7\\IBC\\Blockchain-Project-DAPP-Healthcare\\contracts\\MedicalKit.sol",
  "compiler": {
    "name": "solc",
    "version": "0.8.4+commit.c7e474f2.Emscripten.clang"
  },
  "schemaVersion": "3.4.3",
  "updatedAt": "2021-12-14T16:03:02.065Z",
  "devdoc": {
    "kind": "dev",
    "methods": {},
    "version": 1
  },
  "userdoc": {
    "kind": "user",
    "methods": {},
    "version": 1
  }
}