{
  "contractName": "kits",
  "abi": [
    {
      "inputs": [
        {
          "internalType": "uint256",
          "name": "",
          "type": "uint256"
        }
      ],
      "name": "MedicalKits",
      "outputs": [
        {
          "internalType": "uint256",
          "name": "_id",
          "type": "uint256"
        },
        {
          "internalType": "string",
          "name": "Nurse_name",
          "type": "string"
        },
        {
          "internalType": "string",
          "name": "nurse_email",
          "type": "string"
        },
        {
          "internalType": "string",
          "name": "time_taken",
          "type": "string"
        },
        {
          "internalType": "string",
          "name": "reason",
          "type": "string"
        },
        {
          "internalType": "bytes32",
          "name": "photo_hash",
          "type": "bytes32"
        }
      ],
      "stateMutability": "view",
      "type": "function"
    },
    {
      "inputs": [
        {
          "internalType": "uint256",
          "name": "",
          "type": "uint256"
        }
      ],
      "name": "Nurses",
      "outputs": [
        {
          "internalType": "uint256",
          "name": "nurse_id",
          "type": "uint256"
        },
        {
          "internalType": "string",
          "name": "_firstName",
          "type": "string"
        },
        {
          "internalType": "string",
          "name": "_lastName",
          "type": "string"
        },
        {
          "internalType": "string",
          "name": "Contact_number",
          "type": "string"
        },
        {
          "internalType": "string",
          "name": "Emergency_number",
          "type": "string"
        },
        {
          "internalType": "string",
          "name": "_address",
          "type": "string"
        },
        {
          "internalType": "string",
          "name": "email",
          "type": "string"
        },
        {
          "internalType": "string",
          "name": "dob",
          "type": "string"
        },
        {
          "internalType": "string",
          "name": "martial_status",
          "type": "string"
        },
        {
          "internalType": "string",
          "name": "sex",
          "type": "string"
        },
        {
          "internalType": "address",
          "name": "AccountAddress",
          "type": "address"
        }
      ],
      "stateMutability": "view",
      "type": "function"
    },
    {
      "inputs": [
        {
          "internalType": "address",
          "name": "AccAddress",
          "type": "address"
        },
        {
          "internalType": "string",
          "name": "dob",
          "type": "string"
        },
        {
          "internalType": "string",
          "name": "sex",
          "type": "string"
        },
        {
          "internalType": "string",
          "name": "martial_status",
          "type": "string"
        },
        {
          "internalType": "string",
          "name": "_firstName",
          "type": "string"
        },
        {
          "internalType": "string",
          "name": "_lastName",
          "type": "string"
        },
        {
          "internalType": "string",
          "name": "emergency_num",
          "type": "string"
        },
        {
          "internalType": "string",
          "name": "contact_num",
          "type": "string"
        },
        {
          "internalType": "string",
          "name": "_Address",
          "type": "string"
        },
        {
          "internalType": "string",
          "name": "email",
          "type": "string"
        }
      ],
      "name": "Add_Nurse",
      "outputs": [],
      "stateMutability": "nonpayable",
      "type": "function"
    },
    {
      "inputs": [
        {
          "internalType": "bytes32",
          "name": "photohash",
          "type": "bytes32"
        },
        {
          "internalType": "string",
          "name": "Nurse_name",
          "type": "string"
        },
        {
          "internalType": "string",
          "name": "time_taken",
          "type": "string"
        },
        {
          "internalType": "string",
          "name": "reason",
          "type": "string"
        },
        {
          "internalType": "string",
          "name": "nurse_email",
          "type": "string"
        }
      ],
      "name": "Get_MedicalKit",
      "outputs": [],
      "stateMutability": "nonpayable",
      "type": "function"
    },
    {
      "inputs": [],
      "name": "getAll_MedicalKits",
      "outputs": [
        {
          "components": [
            {
              "internalType": "uint256",
              "name": "_id",
              "type": "uint256"
            },
            {
              "internalType": "string",
              "name": "Nurse_name",
              "type": "string"
            },
            {
              "internalType": "string",
              "name": "nurse_email",
              "type": "string"
            },
            {
              "internalType": "string",
              "name": "time_taken",
              "type": "string"
            },
            {
              "internalType": "string",
              "name": "reason",
              "type": "string"
            },
            {
              "internalType": "bytes32",
              "name": "photo_hash",
              "type": "bytes32"
            }
          ],
          "internalType": "struct kits.MedicalKit[]",
          "name": "",
          "type": "tuple[]"
        }
      ],
      "stateMutability": "view",
      "type": "function"
    }
  ],
  "bytecode": "0x608060405260008055600a60015534801561001957600080fd5b50611a51806100296000396000f3fe608060405234801561001057600080fd5b50600436106100575760003560e01c80630441edcc1461005c578063235e80da1461007a5780633cd790601461009657806345e7e8a9146100b25780639f442e03146100e7575b600080fd5b610064610121565b6040516100719190611535565b60405180910390f35b610094600480360381019061008f9190611251565b610489565b005b6100b060048036038101906100ab919061109e565b610584565b005b6100cc60048036038101906100c79190611328565b61077d565b6040516100de96959493929190611557565b60405180910390f35b61010160048036038101906100fc9190611328565b6109d9565b6040516101189b9a999897969594939291906115d4565b60405180910390f35b6060600060015467ffffffffffffffff811115610167577f4e487b7100000000000000000000000000000000000000000000000000000000600052604160045260246000fd5b6040519080825280602002602001820160405280156101a057816020015b61018d610f1b565b8152602001906001900390816101855790505b50905060005b60015481101561048157600360008281526020019081526020016000206040518060c0016040529081600082015481526020016001820180546101e89061188c565b80601f01602080910402602001604051908101604052809291908181526020018280546102149061188c565b80156102615780601f1061023657610100808354040283529160200191610261565b820191906000526020600020905b81548152906001019060200180831161024457829003601f168201915b5050505050815260200160028201805461027a9061188c565b80601f01602080910402602001604051908101604052809291908181526020018280546102a69061188c565b80156102f35780601f106102c8576101008083540402835291602001916102f3565b820191906000526020600020905b8154815290600101906020018083116102d657829003601f168201915b5050505050815260200160038201805461030c9061188c565b80601f01602080910402602001604051908101604052809291908181526020018280546103389061188c565b80156103855780601f1061035a57610100808354040283529160200191610385565b820191906000526020600020905b81548152906001019060200180831161036857829003601f168201915b5050505050815260200160048201805461039e9061188c565b80601f01602080910402602001604051908101604052809291908181526020018280546103ca9061188c565b80156104175780601f106103ec57610100808354040283529160200191610417565b820191906000526020600020905b8154815290600101906020018083116103fa57829003601f168201915b50505050508152602001600582015481525050828281518110610463577f4e487b7100000000000000000000000000000000000000000000000000000000600052603260045260246000fd5b60200260200101819052508080610479906118ef565b9150506101a6565b508091505090565b600060015411156104ae5760018060008282546104a691906117d0565b925050819055505b6040518060c00160405280600154815260200185815260200182815260200184815260200183815260200186815250600360006001548152602001908152602001600020600082015181600001556020820151816001019080519060200190610518929190610f54565b506040820151816002019080519060200190610535929190610f54565b506060820151816003019080519060200190610552929190610f54565b50608082015181600401908051906020019061056f929190610f54565b5060a082015181600501559050505050505050565b6001600080828254610596919061177a565b9250508190555060405180610160016040528060005481526020018781526020018681526020018481526020018581526020018381526020018281526020018a81526020018881526020018981526020018b73ffffffffffffffffffffffffffffffffffffffff16815250600260008054815260200190815260200160002060008201518160000155602082015181600101908051906020019061063b929190610f54565b506040820151816002019080519060200190610658929190610f54565b506060820151816003019080519060200190610675929190610f54565b506080820151816004019080519060200190610692929190610f54565b5060a08201518160050190805190602001906106af929190610f54565b5060c08201518160060190805190602001906106cc929190610f54565b5060e08201518160070190805190602001906106e9929190610f54565b50610100820151816008019080519060200190610707929190610f54565b50610120820151816009019080519060200190610725929190610f54565b5061014082015181600a0160006101000a81548173ffffffffffffffffffffffffffffffffffffffff021916908373ffffffffffffffffffffffffffffffffffffffff16021790555090505050505050505050505050565b60036020528060005260406000206000915090508060000154908060010180546107a69061188c565b80601f01602080910402602001604051908101604052809291908181526020018280546107d29061188c565b801561081f5780601f106107f45761010080835404028352916020019161081f565b820191906000526020600020905b81548152906001019060200180831161080257829003601f168201915b5050505050908060020180546108349061188c565b80601f01602080910402602001604051908101604052809291908181526020018280546108609061188c565b80156108ad5780601f10610882576101008083540402835291602001916108ad565b820191906000526020600020905b81548152906001019060200180831161089057829003601f168201915b5050505050908060030180546108c29061188c565b80601f01602080910402602001604051908101604052809291908181526020018280546108ee9061188c565b801561093b5780601f106109105761010080835404028352916020019161093b565b820191906000526020600020905b81548152906001019060200180831161091e57829003601f168201915b5050505050908060040180546109509061188c565b80601f016020809104026020016040519081016040528092919081815260200182805461097c9061188c565b80156109c95780601f1061099e576101008083540402835291602001916109c9565b820191906000526020600020905b8154815290600101906020018083116109ac57829003601f168201915b5050505050908060050154905086565b6002602052806000526040600020600091509050806000015490806001018054610a029061188c565b80601f0160208091040260200160405190810160405280929190818152602001828054610a2e9061188c565b8015610a7b5780601f10610a5057610100808354040283529160200191610a7b565b820191906000526020600020905b815481529060010190602001808311610a5e57829003601f168201915b505050505090806002018054610a909061188c565b80601f0160208091040260200160405190810160405280929190818152602001828054610abc9061188c565b8015610b095780601f10610ade57610100808354040283529160200191610b09565b820191906000526020600020905b815481529060010190602001808311610aec57829003601f168201915b505050505090806003018054610b1e9061188c565b80601f0160208091040260200160405190810160405280929190818152602001828054610b4a9061188c565b8015610b975780601f10610b6c57610100808354040283529160200191610b97565b820191906000526020600020905b815481529060010190602001808311610b7a57829003601f168201915b505050505090806004018054610bac9061188c565b80601f0160208091040260200160405190810160405280929190818152602001828054610bd89061188c565b8015610c255780601f10610bfa57610100808354040283529160200191610c25565b820191906000526020600020905b815481529060010190602001808311610c0857829003601f168201915b505050505090806005018054610c3a9061188c565b80601f0160208091040260200160405190810160405280929190818152602001828054610c669061188c565b8015610cb35780601f10610c8857610100808354040283529160200191610cb3565b820191906000526020600020905b815481529060010190602001808311610c9657829003601f168201915b505050505090806006018054610cc89061188c565b80601f0160208091040260200160405190810160405280929190818152602001828054610cf49061188c565b8015610d415780601f10610d1657610100808354040283529160200191610d41565b820191906000526020600020905b815481529060010190602001808311610d2457829003601f168201915b505050505090806007018054610d569061188c565b80601f0160208091040260200160405190810160405280929190818152602001828054610d829061188c565b8015610dcf5780601f10610da457610100808354040283529160200191610dcf565b820191906000526020600020905b815481529060010190602001808311610db257829003601f168201915b505050505090806008018054610de49061188c565b80601f0160208091040260200160405190810160405280929190818152602001828054610e109061188c565b8015610e5d5780601f10610e3257610100808354040283529160200191610e5d565b820191906000526020600020905b815481529060010190602001808311610e4057829003601f168201915b505050505090806009018054610e729061188c565b80601f0160208091040260200160405190810160405280929190818152602001828054610e9e9061188c565b8015610eeb5780601f10610ec057610100808354040283529160200191610eeb565b820191906000526020600020905b815481529060010190602001808311610ece57829003601f168201915b50505050509080600a0160009054906101000a900473ffffffffffffffffffffffffffffffffffffffff1690508b565b6040518060c001604052806000815260200160608152602001606081526020016060815260200160608152602001600080191681525090565b828054610f609061188c565b90600052602060002090601f016020900481019282610f825760008555610fc9565b82601f10610f9b57805160ff1916838001178555610fc9565b82800160010185558215610fc9579182015b82811115610fc8578251825591602001919060010190610fad565b5b509050610fd69190610fda565b5090565b5b80821115610ff3576000816000905550600101610fdb565b5090565b600061100a611005846116e3565b6116be565b90508281526020810184848401111561102257600080fd5b61102d84828561184a565b509392505050565b600081359050611044816119d6565b92915050565b600081359050611059816119ed565b92915050565b600082601f83011261107057600080fd5b8135611080848260208601610ff7565b91505092915050565b60008135905061109881611a04565b92915050565b6000806000806000806000806000806101408b8d0312156110be57600080fd5b60006110cc8d828e01611035565b9a505060208b013567ffffffffffffffff8111156110e957600080fd5b6110f58d828e0161105f565b99505060408b013567ffffffffffffffff81111561111257600080fd5b61111e8d828e0161105f565b98505060608b013567ffffffffffffffff81111561113b57600080fd5b6111478d828e0161105f565b97505060808b013567ffffffffffffffff81111561116457600080fd5b6111708d828e0161105f565b96505060a08b013567ffffffffffffffff81111561118d57600080fd5b6111998d828e0161105f565b95505060c08b013567ffffffffffffffff8111156111b657600080fd5b6111c28d828e0161105f565b94505060e08b013567ffffffffffffffff8111156111df57600080fd5b6111eb8d828e0161105f565b9350506101008b013567ffffffffffffffff81111561120957600080fd5b6112158d828e0161105f565b9250506101208b013567ffffffffffffffff81111561123357600080fd5b61123f8d828e0161105f565b9150509295989b9194979a5092959850565b600080600080600060a0868803121561126957600080fd5b60006112778882890161104a565b955050602086013567ffffffffffffffff81111561129457600080fd5b6112a08882890161105f565b945050604086013567ffffffffffffffff8111156112bd57600080fd5b6112c98882890161105f565b935050606086013567ffffffffffffffff8111156112e657600080fd5b6112f28882890161105f565b925050608086013567ffffffffffffffff81111561130f57600080fd5b61131b8882890161105f565b9150509295509295909350565b60006020828403121561133a57600080fd5b600061134884828501611089565b91505092915050565b600061135d8383611479565b905092915050565b61136e81611804565b82525050565b600061137f82611724565b6113898185611747565b93508360208202850161139b85611714565b8060005b858110156113d757848403895281516113b88582611351565b94506113c38361173a565b925060208a0199505060018101905061139f565b50829750879550505050505092915050565b6113f281611816565b82525050565b61140181611816565b82525050565b60006114128261172f565b61141c8185611758565b935061142c818560208601611859565b611435816119c5565b840191505092915050565b600061144b8261172f565b6114558185611769565b9350611465818560208601611859565b61146e816119c5565b840191505092915050565b600060c0830160008301516114916000860182611517565b50602083015184820360208601526114a98282611407565b915050604083015184820360408601526114c38282611407565b915050606083015184820360608601526114dd8282611407565b915050608083015184820360808601526114f78282611407565b91505060a083015161150c60a08601826113e9565b508091505092915050565b61152081611840565b82525050565b61152f81611840565b82525050565b6000602082019050818103600083015261154f8184611374565b905092915050565b600060c08201905061156c6000830189611526565b818103602083015261157e8188611440565b905081810360408301526115928187611440565b905081810360608301526115a68186611440565b905081810360808301526115ba8185611440565b90506115c960a08301846113f8565b979650505050505050565b6000610160820190506115ea600083018e611526565b81810360208301526115fc818d611440565b90508181036040830152611610818c611440565b90508181036060830152611624818b611440565b90508181036080830152611638818a611440565b905081810360a083015261164c8189611440565b905081810360c08301526116608188611440565b905081810360e08301526116748187611440565b90508181036101008301526116898186611440565b905081810361012083015261169e8185611440565b90506116ae610140830184611365565b9c9b505050505050505050505050565b60006116c86116d9565b90506116d482826118be565b919050565b6000604051905090565b600067ffffffffffffffff8211156116fe576116fd611996565b5b611707826119c5565b9050602081019050919050565b6000819050602082019050919050565b600081519050919050565b600081519050919050565b6000602082019050919050565b600082825260208201905092915050565b600082825260208201905092915050565b600082825260208201905092915050565b600061178582611840565b915061179083611840565b9250827fffffffffffffffffffffffffffffffffffffffffffffffffffffffffffffffff038211156117c5576117c4611938565b5b828201905092915050565b60006117db82611840565b91506117e683611840565b9250828210156117f9576117f8611938565b5b828203905092915050565b600061180f82611820565b9050919050565b6000819050919050565b600073ffffffffffffffffffffffffffffffffffffffff82169050919050565b6000819050919050565b82818337600083830152505050565b60005b8381101561187757808201518184015260208101905061185c565b83811115611886576000848401525b50505050565b600060028204905060018216806118a457607f821691505b602082108114156118b8576118b7611967565b5b50919050565b6118c7826119c5565b810181811067ffffffffffffffff821117156118e6576118e5611996565b5b80604052505050565b60006118fa82611840565b91507fffffffffffffffffffffffffffffffffffffffffffffffffffffffffffffffff82141561192d5761192c611938565b5b600182019050919050565b7f4e487b7100000000000000000000000000000000000000000000000000000000600052601160045260246000fd5b7f4e487b7100000000000000000000000000000000000000000000000000000000600052602260045260246000fd5b7f4e487b7100000000000000000000000000000000000000000000000000000000600052604160045260246000fd5b6000601f19601f8301169050919050565b6119df81611804565b81146119ea57600080fd5b50565b6119f681611816565b8114611a0157600080fd5b50565b611a0d81611840565b8114611a1857600080fd5b5056fea2646970667358221220a76c26c77b564d99d110404ba5d4207b4b47ab673a71d8418b66ba52790261df64736f6c63430008040033",
  "immutableReferences": {},
  "source": "// SPDX-License-Identifier: MIT\r\npragma solidity ^0.8.4;\r\n\r\ncontract kits{\r\n    uint256 nurse_count = 0;\r\n    uint256 kit_count = 10;\r\n    mapping(uint => Nurse) public Nurses;\r\n    mapping(uint => MedicalKit) public MedicalKits;\r\n\r\n    struct Nurse {\r\n        uint nurse_id;\r\n        string _firstName;\r\n        string _lastName;\r\n        string Contact_number;\r\n        string Emergency_number;\r\n        string _address;\r\n        string email;\r\n        string dob;\r\n        string martial_status;\r\n        string sex;\r\n        // Account address needed for identification\r\n        address AccountAddress;\r\n    }\r\n\r\n    struct MedicalKit{\r\n        uint _id;\r\n        string Nurse_name;\r\n        string nurse_email;\r\n        string time_taken;\r\n        string reason;\r\n        bytes32 photo_hash;\r\n    }\r\n\r\n    function Add_Nurse(address AccAddress,string memory dob, string memory sex, string memory martial_status, string memory _firstName, string memory _lastName, string memory emergency_num, string memory contact_num, string memory _Address, string memory email)  public {\r\n        nurse_count += 1;\r\n        Nurses[nurse_count]=Nurse(nurse_count, _firstName, _lastName, contact_num, emergency_num, _Address, email, dob, martial_status, sex, AccAddress);\r\n    }\r\n\r\n    function Get_MedicalKit(bytes32 photohash,string memory Nurse_name, string memory time_taken, string memory reason, string memory nurse_email) public{\r\n        if( kit_count > 0 ) {\r\n            kit_count -= 1;\r\n        }\r\n        MedicalKits[kit_count] = MedicalKit(kit_count, Nurse_name, nurse_email, time_taken, reason,photohash);\r\n    }\r\n\r\n    function getAll_MedicalKits() public view returns (MedicalKit[] memory){\r\n        MedicalKit[] memory ret = new MedicalKit[](kit_count);\r\n        for (uint i = 0; i < kit_count; i++) {\r\n            ret[i] = MedicalKits[i];\r\n        }\r\n        return ret;\r\n    }    \r\n}\r\n",
  "sourcePath": "F:\\Sem 7\\IBC\\Blockchain-Project-DAPP-Healthcare\\contracts\\MedicalKit.sol",
  "compiler": {
    "name": "solc",
    "version": "0.8.4+commit.c7e474f2.Emscripten.clang"
  },
  "schemaVersion": "3.4.3",
  "updatedAt": "2021-12-21T17:04:07.684Z",
  "devdoc": {
    "kind": "dev",
    "methods": {},
    "version": 1
  },
  "userdoc": {
    "kind": "user",
    "methods": {},
    "version": 1
  }
}