{
  "contractName": "RegisterationContract",
  "abi": [
    {
      "inputs": [
        {
          "internalType": "uint256",
          "name": "",
          "type": "uint256"
        }
      ],
      "name": "Appointments",
      "outputs": [
        {
          "internalType": "uint256",
          "name": "_id",
          "type": "uint256"
        },
        {
          "internalType": "string",
          "name": "Doctor_name",
          "type": "string"
        },
        {
          "internalType": "string",
          "name": "Patient_name",
          "type": "string"
        },
        {
          "internalType": "string",
          "name": "doc_email",
          "type": "string"
        },
        {
          "internalType": "string",
          "name": "patient_email",
          "type": "string"
        },
        {
          "internalType": "string",
          "name": "Appointment_time",
          "type": "string"
        },
        {
          "internalType": "string",
          "name": "Appointment_reason",
          "type": "string"
        }
      ],
      "stateMutability": "view",
      "type": "function",
      "constant": true
    },
    {
      "inputs": [
        {
          "internalType": "uint256",
          "name": "",
          "type": "uint256"
        }
      ],
      "name": "Doctors",
      "outputs": [
        {
          "internalType": "uint256",
          "name": "doc_id",
          "type": "uint256"
        },
        {
          "internalType": "string",
          "name": "_firstName",
          "type": "string"
        },
        {
          "internalType": "string",
          "name": "_lastName",
          "type": "string"
        },
        {
          "internalType": "string",
          "name": "Contact_number",
          "type": "string"
        },
        {
          "internalType": "string",
          "name": "Emergency_number",
          "type": "string"
        },
        {
          "internalType": "string",
          "name": "_address",
          "type": "string"
        },
        {
          "internalType": "string",
          "name": "email",
          "type": "string"
        },
        {
          "internalType": "string",
          "name": "dob",
          "type": "string"
        },
        {
          "internalType": "string",
          "name": "martial_status",
          "type": "string"
        },
        {
          "internalType": "string",
          "name": "sex",
          "type": "string"
        },
        {
          "internalType": "string",
          "name": "qualification",
          "type": "string"
        },
        {
          "internalType": "address",
          "name": "AccountAddress",
          "type": "address"
        }
      ],
      "stateMutability": "view",
      "type": "function",
      "constant": true
    },
    {
      "inputs": [
        {
          "internalType": "uint256",
          "name": "",
          "type": "uint256"
        }
      ],
      "name": "Patient_list",
      "outputs": [
        {
          "internalType": "uint256",
          "name": "_id",
          "type": "uint256"
        },
        {
          "internalType": "string",
          "name": "_firstName",
          "type": "string"
        },
        {
          "internalType": "string",
          "name": "_lastName",
          "type": "string"
        },
        {
          "internalType": "string",
          "name": "Contact_number",
          "type": "string"
        },
        {
          "internalType": "string",
          "name": "Emergency_number",
          "type": "string"
        },
        {
          "internalType": "string",
          "name": "_address",
          "type": "string"
        },
        {
          "internalType": "string",
          "name": "email",
          "type": "string"
        },
        {
          "internalType": "string",
          "name": "dob",
          "type": "string"
        },
        {
          "internalType": "string",
          "name": "martial_status",
          "type": "string"
        },
        {
          "internalType": "string",
          "name": "sex",
          "type": "string"
        },
        {
          "internalType": "address",
          "name": "AccountAddress",
          "type": "address"
        }
      ],
      "stateMutability": "view",
      "type": "function",
      "constant": true
    },
    {
      "inputs": [
        {
          "internalType": "string",
          "name": "qualification",
          "type": "string"
        },
        {
          "internalType": "string",
          "name": "dob",
          "type": "string"
        },
        {
          "internalType": "string",
          "name": "sex",
          "type": "string"
        },
        {
          "internalType": "string",
          "name": "martial_status",
          "type": "string"
        },
        {
          "internalType": "string",
          "name": "_firstName",
          "type": "string"
        },
        {
          "internalType": "string",
          "name": "_lastName",
          "type": "string"
        },
        {
          "internalType": "string",
          "name": "emergency_num",
          "type": "string"
        },
        {
          "internalType": "string",
          "name": "contact_num",
          "type": "string"
        },
        {
          "internalType": "string",
          "name": "_Address",
          "type": "string"
        },
        {
          "internalType": "string",
          "name": "email",
          "type": "string"
        }
      ],
      "name": "Add_Doctor",
      "outputs": [],
      "stateMutability": "nonpayable",
      "type": "function"
    },
    {
      "inputs": [],
      "name": "hello",
      "outputs": [
        {
          "internalType": "string",
          "name": "",
          "type": "string"
        }
      ],
      "stateMutability": "pure",
      "type": "function",
      "constant": true
    },
    {
      "inputs": [
        {
          "internalType": "string",
          "name": "doc_name",
          "type": "string"
        },
        {
          "internalType": "string",
          "name": "patient_name",
          "type": "string"
        },
        {
          "internalType": "string",
          "name": "Appoint_time",
          "type": "string"
        },
        {
          "internalType": "string",
          "name": "reason",
          "type": "string"
        },
        {
          "internalType": "string",
          "name": "doc_email",
          "type": "string"
        },
        {
          "internalType": "string",
          "name": "patient_email",
          "type": "string"
        }
      ],
      "name": "Get_appointment",
      "outputs": [],
      "stateMutability": "nonpayable",
      "type": "function"
    },
    {
      "inputs": [
        {
          "internalType": "string",
          "name": "dob",
          "type": "string"
        },
        {
          "internalType": "string",
          "name": "sex",
          "type": "string"
        },
        {
          "internalType": "string",
          "name": "martial_status",
          "type": "string"
        },
        {
          "internalType": "string",
          "name": "_firstName",
          "type": "string"
        },
        {
          "internalType": "string",
          "name": "_lastName",
          "type": "string"
        },
        {
          "internalType": "string",
          "name": "emergency_num",
          "type": "string"
        },
        {
          "internalType": "string",
          "name": "contact_num",
          "type": "string"
        },
        {
          "internalType": "string",
          "name": "_Address",
          "type": "string"
        },
        {
          "internalType": "string",
          "name": "email",
          "type": "string"
        }
      ],
      "name": "Register_patient",
      "outputs": [],
      "stateMutability": "nonpayable",
      "type": "function"
    },
    {
      "inputs": [
        {
          "internalType": "uint256",
          "name": "id",
          "type": "uint256"
        }
      ],
      "name": "GetDoctor",
      "outputs": [
        {
          "internalType": "string",
          "name": "fname",
          "type": "string"
        },
        {
          "internalType": "string",
          "name": "lname",
          "type": "string"
        },
        {
          "internalType": "string",
          "name": "qual",
          "type": "string"
        },
        {
          "internalType": "string",
          "name": "contact",
          "type": "string"
        }
      ],
      "stateMutability": "nonpayable",
      "type": "function"
    },
    {
      "inputs": [],
      "name": "getAll_Doctors",
      "outputs": [
        {
          "components": [
            {
              "internalType": "uint256",
              "name": "doc_id",
              "type": "uint256"
            },
            {
              "internalType": "string",
              "name": "_firstName",
              "type": "string"
            },
            {
              "internalType": "string",
              "name": "_lastName",
              "type": "string"
            },
            {
              "internalType": "string",
              "name": "Contact_number",
              "type": "string"
            },
            {
              "internalType": "string",
              "name": "Emergency_number",
              "type": "string"
            },
            {
              "internalType": "string",
              "name": "_address",
              "type": "string"
            },
            {
              "internalType": "string",
              "name": "email",
              "type": "string"
            },
            {
              "internalType": "string",
              "name": "dob",
              "type": "string"
            },
            {
              "internalType": "string",
              "name": "martial_status",
              "type": "string"
            },
            {
              "internalType": "string",
              "name": "sex",
              "type": "string"
            },
            {
              "internalType": "string",
              "name": "qualification",
              "type": "string"
            },
            {
              "internalType": "address",
              "name": "AccountAddress",
              "type": "address"
            }
          ],
          "internalType": "struct RegisterationContract.Doctor[]",
          "name": "",
          "type": "tuple[]"
        }
      ],
      "stateMutability": "view",
      "type": "function",
      "constant": true
    },
    {
      "inputs": [],
      "name": "getAll_Patients",
      "outputs": [
        {
          "components": [
            {
              "internalType": "uint256",
              "name": "_id",
              "type": "uint256"
            },
            {
              "internalType": "string",
              "name": "_firstName",
              "type": "string"
            },
            {
              "internalType": "string",
              "name": "_lastName",
              "type": "string"
            },
            {
              "internalType": "string",
              "name": "Contact_number",
              "type": "string"
            },
            {
              "internalType": "string",
              "name": "Emergency_number",
              "type": "string"
            },
            {
              "internalType": "string",
              "name": "_address",
              "type": "string"
            },
            {
              "internalType": "string",
              "name": "email",
              "type": "string"
            },
            {
              "internalType": "string",
              "name": "dob",
              "type": "string"
            },
            {
              "internalType": "string",
              "name": "martial_status",
              "type": "string"
            },
            {
              "internalType": "string",
              "name": "sex",
              "type": "string"
            },
            {
              "internalType": "address",
              "name": "AccountAddress",
              "type": "address"
            }
          ],
          "internalType": "struct RegisterationContract.Patient[]",
          "name": "",
          "type": "tuple[]"
        }
      ],
      "stateMutability": "view",
      "type": "function",
      "constant": true
    },
    {
      "inputs": [],
      "name": "getAll_Appointments",
      "outputs": [
        {
          "components": [
            {
              "internalType": "uint256",
              "name": "_id",
              "type": "uint256"
            },
            {
              "internalType": "string",
              "name": "Doctor_name",
              "type": "string"
            },
            {
              "internalType": "string",
              "name": "Patient_name",
              "type": "string"
            },
            {
              "internalType": "string",
              "name": "doc_email",
              "type": "string"
            },
            {
              "internalType": "string",
              "name": "patient_email",
              "type": "string"
            },
            {
              "internalType": "string",
              "name": "Appointment_time",
              "type": "string"
            },
            {
              "internalType": "string",
              "name": "Appointment_reason",
              "type": "string"
            }
          ],
          "internalType": "struct RegisterationContract._Appointment[]",
          "name": "",
          "type": "tuple[]"
        }
      ],
      "stateMutability": "view",
      "type": "function",
      "constant": true
    }
  ],
  "bytecode": "0x6080604052600080556000600155600060025534801561001e57600080fd5b5061424f8061002e6000396000f3fe608060405234801561001057600080fd5b50600436106100a95760003560e01c8063560df47e11610071578063560df47e1461017b578063897a84f414610199578063deb3f445146101b5578063e13f6575146101e8578063e47cb5ef1461021e578063f83e7a391461023c576100a9565b80630b390d61146100ae57806319ff1d21146100cc57806327151672146100ea5780632e2a5ea614610125578063508693821461015f575b600080fd5b6100b6610258565b6040516100c39190613b8e565b60405180910390f35b6100d46106da565b6040516100e19190613bb0565b60405180910390f35b61010460048036038101906100ff91906135af565b610717565b60405161011c9c9b9a99989796959493929190613db6565b60405180910390f35b61013f600480360381019061013a91906135af565b610ce7565b6040516101569b9a99989796959493929190613ccc565b60405180910390f35b6101796004803603810190610174919061312d565b611229565b005b610183611350565b6040516101909190613b6c565b60405180910390f35b6101b360048036038101906101ae91906133e4565b6119df565b005b6101cf60048036038101906101ca91906135af565b611bfc565b6040516101df9493929190613bd2565b60405180910390f35b61020260048036038101906101fd91906135af565b61225e565b6040516102159796959493929190613c33565b60405180910390f35b6102266125d0565b6040516102339190613b4a565b60405180910390f35b61025660048036038101906102519190613246565b612cf0565b005b6060600060025467ffffffffffffffff81111561029e577f4e487b7100000000000000000000000000000000000000000000000000000000600052604160045260246000fd5b6040519080825280602002602001820160405280156102d757816020015b6102c4612ee9565b8152602001906001900390816102bc5790505b50905060005b6002548110156106d257600560008281526020019081526020016000206040518060e00160405290816000820154815260200160018201805461031f906140b8565b80601f016020809104026020016040519081016040528092919081815260200182805461034b906140b8565b80156103985780601f1061036d57610100808354040283529160200191610398565b820191906000526020600020905b81548152906001019060200180831161037b57829003601f168201915b505050505081526020016002820180546103b1906140b8565b80601f01602080910402602001604051908101604052809291908181526020018280546103dd906140b8565b801561042a5780601f106103ff5761010080835404028352916020019161042a565b820191906000526020600020905b81548152906001019060200180831161040d57829003601f168201915b50505050508152602001600382018054610443906140b8565b80601f016020809104026020016040519081016040528092919081815260200182805461046f906140b8565b80156104bc5780601f10610491576101008083540402835291602001916104bc565b820191906000526020600020905b81548152906001019060200180831161049f57829003601f168201915b505050505081526020016004820180546104d5906140b8565b80601f0160208091040260200160405190810160405280929190818152602001828054610501906140b8565b801561054e5780601f106105235761010080835404028352916020019161054e565b820191906000526020600020905b81548152906001019060200180831161053157829003601f168201915b50505050508152602001600582018054610567906140b8565b80601f0160208091040260200160405190810160405280929190818152602001828054610593906140b8565b80156105e05780601f106105b5576101008083540402835291602001916105e0565b820191906000526020600020905b8154815290600101906020018083116105c357829003601f168201915b505050505081526020016006820180546105f9906140b8565b80601f0160208091040260200160405190810160405280929190818152602001828054610625906140b8565b80156106725780601f1061064757610100808354040283529160200191610672565b820191906000526020600020905b81548152906001019060200180831161065557829003601f168201915b5050505050815250508282815181106106b4577f4e487b7100000000000000000000000000000000000000000000000000000000600052603260045260246000fd5b602002602001018190525080806106ca9061411b565b9150506102dd565b508091505090565b60606040518060400160405280600481526020017f5465737400000000000000000000000000000000000000000000000000000000815250905090565b6003602052806000526040600020600091509050806000015490806001018054610740906140b8565b80601f016020809104026020016040519081016040528092919081815260200182805461076c906140b8565b80156107b95780601f1061078e576101008083540402835291602001916107b9565b820191906000526020600020905b81548152906001019060200180831161079c57829003601f168201915b5050505050908060020180546107ce906140b8565b80601f01602080910402602001604051908101604052809291908181526020018280546107fa906140b8565b80156108475780601f1061081c57610100808354040283529160200191610847565b820191906000526020600020905b81548152906001019060200180831161082a57829003601f168201915b50505050509080600301805461085c906140b8565b80601f0160208091040260200160405190810160405280929190818152602001828054610888906140b8565b80156108d55780601f106108aa576101008083540402835291602001916108d5565b820191906000526020600020905b8154815290600101906020018083116108b857829003601f168201915b5050505050908060040180546108ea906140b8565b80601f0160208091040260200160405190810160405280929190818152602001828054610916906140b8565b80156109635780601f1061093857610100808354040283529160200191610963565b820191906000526020600020905b81548152906001019060200180831161094657829003601f168201915b505050505090806005018054610978906140b8565b80601f01602080910402602001604051908101604052809291908181526020018280546109a4906140b8565b80156109f15780601f106109c6576101008083540402835291602001916109f1565b820191906000526020600020905b8154815290600101906020018083116109d457829003601f168201915b505050505090806006018054610a06906140b8565b80601f0160208091040260200160405190810160405280929190818152602001828054610a32906140b8565b8015610a7f5780601f10610a5457610100808354040283529160200191610a7f565b820191906000526020600020905b815481529060010190602001808311610a6257829003601f168201915b505050505090806007018054610a94906140b8565b80601f0160208091040260200160405190810160405280929190818152602001828054610ac0906140b8565b8015610b0d5780601f10610ae257610100808354040283529160200191610b0d565b820191906000526020600020905b815481529060010190602001808311610af057829003601f168201915b505050505090806008018054610b22906140b8565b80601f0160208091040260200160405190810160405280929190818152602001828054610b4e906140b8565b8015610b9b5780601f10610b7057610100808354040283529160200191610b9b565b820191906000526020600020905b815481529060010190602001808311610b7e57829003601f168201915b505050505090806009018054610bb0906140b8565b80601f0160208091040260200160405190810160405280929190818152602001828054610bdc906140b8565b8015610c295780601f10610bfe57610100808354040283529160200191610c29565b820191906000526020600020905b815481529060010190602001808311610c0c57829003601f168201915b50505050509080600a018054610c3e906140b8565b80601f0160208091040260200160405190810160405280929190818152602001828054610c6a906140b8565b8015610cb75780601f10610c8c57610100808354040283529160200191610cb7565b820191906000526020600020905b815481529060010190602001808311610c9a57829003601f168201915b50505050509080600b0160009054906101000a900473ffffffffffffffffffffffffffffffffffffffff1690508c565b6004602052806000526040600020600091509050806000015490806001018054610d10906140b8565b80601f0160208091040260200160405190810160405280929190818152602001828054610d3c906140b8565b8015610d895780601f10610d5e57610100808354040283529160200191610d89565b820191906000526020600020905b815481529060010190602001808311610d6c57829003601f168201915b505050505090806002018054610d9e906140b8565b80601f0160208091040260200160405190810160405280929190818152602001828054610dca906140b8565b8015610e175780601f10610dec57610100808354040283529160200191610e17565b820191906000526020600020905b815481529060010190602001808311610dfa57829003601f168201915b505050505090806003018054610e2c906140b8565b80601f0160208091040260200160405190810160405280929190818152602001828054610e58906140b8565b8015610ea55780601f10610e7a57610100808354040283529160200191610ea5565b820191906000526020600020905b815481529060010190602001808311610e8857829003601f168201915b505050505090806004018054610eba906140b8565b80601f0160208091040260200160405190810160405280929190818152602001828054610ee6906140b8565b8015610f335780601f10610f0857610100808354040283529160200191610f33565b820191906000526020600020905b815481529060010190602001808311610f1657829003601f168201915b505050505090806005018054610f48906140b8565b80601f0160208091040260200160405190810160405280929190818152602001828054610f74906140b8565b8015610fc15780601f10610f9657610100808354040283529160200191610fc1565b820191906000526020600020905b815481529060010190602001808311610fa457829003601f168201915b505050505090806006018054610fd6906140b8565b80601f0160208091040260200160405190810160405280929190818152602001828054611002906140b8565b801561104f5780601f106110245761010080835404028352916020019161104f565b820191906000526020600020905b81548152906001019060200180831161103257829003601f168201915b505050505090806007018054611064906140b8565b80601f0160208091040260200160405190810160405280929190818152602001828054611090906140b8565b80156110dd5780601f106110b2576101008083540402835291602001916110dd565b820191906000526020600020905b8154815290600101906020018083116110c057829003601f168201915b5050505050908060080180546110f2906140b8565b80601f016020809104026020016040519081016040528092919081815260200182805461111e906140b8565b801561116b5780601f106111405761010080835404028352916020019161116b565b820191906000526020600020905b81548152906001019060200180831161114e57829003601f168201915b505050505090806009018054611180906140b8565b80601f01602080910402602001604051908101604052809291908181526020018280546111ac906140b8565b80156111f95780601f106111ce576101008083540402835291602001916111f9565b820191906000526020600020905b8154815290600101906020018083116111dc57829003601f168201915b50505050509080600a0160009054906101000a900473ffffffffffffffffffffffffffffffffffffffff1690508b565b60016002600082825461123c9190613fe4565b925050819055506040518060e001604052806002548152602001878152602001868152602001838152602001828152602001858152602001848152506005600060025481526020019081526020016000206000820151816000015560208201518160010190805190602001906112b3929190612f26565b5060408201518160020190805190602001906112d0929190612f26565b5060608201518160030190805190602001906112ed929190612f26565b50608082015181600401908051906020019061130a929190612f26565b5060a0820151816005019080519060200190611327929190612f26565b5060c0820151816006019080519060200190611344929190612f26565b50905050505050505050565b6060600060015467ffffffffffffffff811115611396577f4e487b7100000000000000000000000000000000000000000000000000000000600052604160045260246000fd5b6040519080825280602002602001820160405280156113cf57816020015b6113bc612fac565b8152602001906001900390816113b45790505b50905060005b6001548110156119d757600460008281526020019081526020016000206040518061016001604052908160008201548152602001600182018054611418906140b8565b80601f0160208091040260200160405190810160405280929190818152602001828054611444906140b8565b80156114915780601f1061146657610100808354040283529160200191611491565b820191906000526020600020905b81548152906001019060200180831161147457829003601f168201915b505050505081526020016002820180546114aa906140b8565b80601f01602080910402602001604051908101604052809291908181526020018280546114d6906140b8565b80156115235780601f106114f857610100808354040283529160200191611523565b820191906000526020600020905b81548152906001019060200180831161150657829003601f168201915b5050505050815260200160038201805461153c906140b8565b80601f0160208091040260200160405190810160405280929190818152602001828054611568906140b8565b80156115b55780601f1061158a576101008083540402835291602001916115b5565b820191906000526020600020905b81548152906001019060200180831161159857829003601f168201915b505050505081526020016004820180546115ce906140b8565b80601f01602080910402602001604051908101604052809291908181526020018280546115fa906140b8565b80156116475780601f1061161c57610100808354040283529160200191611647565b820191906000526020600020905b81548152906001019060200180831161162a57829003601f168201915b50505050508152602001600582018054611660906140b8565b80601f016020809104026020016040519081016040528092919081815260200182805461168c906140b8565b80156116d95780601f106116ae576101008083540402835291602001916116d9565b820191906000526020600020905b8154815290600101906020018083116116bc57829003601f168201915b505050505081526020016006820180546116f2906140b8565b80601f016020809104026020016040519081016040528092919081815260200182805461171e906140b8565b801561176b5780601f106117405761010080835404028352916020019161176b565b820191906000526020600020905b81548152906001019060200180831161174e57829003601f168201915b50505050508152602001600782018054611784906140b8565b80601f01602080910402602001604051908101604052809291908181526020018280546117b0906140b8565b80156117fd5780601f106117d2576101008083540402835291602001916117fd565b820191906000526020600020905b8154815290600101906020018083116117e057829003601f168201915b50505050508152602001600882018054611816906140b8565b80601f0160208091040260200160405190810160405280929190818152602001828054611842906140b8565b801561188f5780601f106118645761010080835404028352916020019161188f565b820191906000526020600020905b81548152906001019060200180831161187257829003601f168201915b505050505081526020016009820180546118a8906140b8565b80601f01602080910402602001604051908101604052809291908181526020018280546118d4906140b8565b80156119215780601f106118f657610100808354040283529160200191611921565b820191906000526020600020905b81548152906001019060200180831161190457829003601f168201915b50505050508152602001600a820160009054906101000a900473ffffffffffffffffffffffffffffffffffffffff1673ffffffffffffffffffffffffffffffffffffffff1673ffffffffffffffffffffffffffffffffffffffff16815250508282815181106119b9577f4e487b7100000000000000000000000000000000000000000000000000000000600052603260045260246000fd5b602002602001018190525080806119cf9061411b565b9150506113d5565b508091505090565b60016000808282546119f19190613fe4565b9250508190555060405180610180016040528060005481526020018781526020018681526020018481526020018581526020018381526020018281526020018a81526020018881526020018981526020018b81526020013373ffffffffffffffffffffffffffffffffffffffff168152506003600080548152602001908152602001600020600082015181600001556020820151816001019080519060200190611a9c929190612f26565b506040820151816002019080519060200190611ab9929190612f26565b506060820151816003019080519060200190611ad6929190612f26565b506080820151816004019080519060200190611af3929190612f26565b5060a0820151816005019080519060200190611b10929190612f26565b5060c0820151816006019080519060200190611b2d929190612f26565b5060e0820151816007019080519060200190611b4a929190612f26565b50610100820151816008019080519060200190611b68929190612f26565b50610120820151816009019080519060200190611b86929190612f26565b5061014082015181600a019080519060200190611ba4929190612f26565b5061016082015181600b0160006101000a81548173ffffffffffffffffffffffffffffffffffffffff021916908373ffffffffffffffffffffffffffffffffffffffff16021790555090505050505050505050505050565b6060806060806000600360008781526020019081526020016000206040518061018001604052908160008201548152602001600182018054611c3d906140b8565b80601f0160208091040260200160405190810160405280929190818152602001828054611c69906140b8565b8015611cb65780601f10611c8b57610100808354040283529160200191611cb6565b820191906000526020600020905b815481529060010190602001808311611c9957829003601f168201915b50505050508152602001600282018054611ccf906140b8565b80601f0160208091040260200160405190810160405280929190818152602001828054611cfb906140b8565b8015611d485780601f10611d1d57610100808354040283529160200191611d48565b820191906000526020600020905b815481529060010190602001808311611d2b57829003601f168201915b50505050508152602001600382018054611d61906140b8565b80601f0160208091040260200160405190810160405280929190818152602001828054611d8d906140b8565b8015611dda5780601f10611daf57610100808354040283529160200191611dda565b820191906000526020600020905b815481529060010190602001808311611dbd57829003601f168201915b50505050508152602001600482018054611df3906140b8565b80601f0160208091040260200160405190810160405280929190818152602001828054611e1f906140b8565b8015611e6c5780601f10611e4157610100808354040283529160200191611e6c565b820191906000526020600020905b815481529060010190602001808311611e4f57829003601f168201915b50505050508152602001600582018054611e85906140b8565b80601f0160208091040260200160405190810160405280929190818152602001828054611eb1906140b8565b8015611efe5780601f10611ed357610100808354040283529160200191611efe565b820191906000526020600020905b815481529060010190602001808311611ee157829003601f168201915b50505050508152602001600682018054611f17906140b8565b80601f0160208091040260200160405190810160405280929190818152602001828054611f43906140b8565b8015611f905780601f10611f6557610100808354040283529160200191611f90565b820191906000526020600020905b815481529060010190602001808311611f7357829003601f168201915b50505050508152602001600782018054611fa9906140b8565b80601f0160208091040260200160405190810160405280929190818152602001828054611fd5906140b8565b80156120225780601f10611ff757610100808354040283529160200191612022565b820191906000526020600020905b81548152906001019060200180831161200557829003601f168201915b5050505050815260200160088201805461203b906140b8565b80601f0160208091040260200160405190810160405280929190818152602001828054612067906140b8565b80156120b45780601f10612089576101008083540402835291602001916120b4565b820191906000526020600020905b81548152906001019060200180831161209757829003601f168201915b505050505081526020016009820180546120cd906140b8565b80601f01602080910402602001604051908101604052809291908181526020018280546120f9906140b8565b80156121465780601f1061211b57610100808354040283529160200191612146565b820191906000526020600020905b81548152906001019060200180831161212957829003601f168201915b50505050508152602001600a8201805461215f906140b8565b80601f016020809104026020016040519081016040528092919081815260200182805461218b906140b8565b80156121d85780601f106121ad576101008083540402835291602001916121d8565b820191906000526020600020905b8154815290600101906020018083116121bb57829003601f168201915b50505050508152602001600b820160009054906101000a900473ffffffffffffffffffffffffffffffffffffffff1673ffffffffffffffffffffffffffffffffffffffff1673ffffffffffffffffffffffffffffffffffffffff168152505090508060200151816040015182610140015183606001519450945094509450509193509193565b6005602052806000526040600020600091509050806000015490806001018054612287906140b8565b80601f01602080910402602001604051908101604052809291908181526020018280546122b3906140b8565b80156123005780601f106122d557610100808354040283529160200191612300565b820191906000526020600020905b8154815290600101906020018083116122e357829003601f168201915b505050505090806002018054612315906140b8565b80601f0160208091040260200160405190810160405280929190818152602001828054612341906140b8565b801561238e5780601f106123635761010080835404028352916020019161238e565b820191906000526020600020905b81548152906001019060200180831161237157829003601f168201915b5050505050908060030180546123a3906140b8565b80601f01602080910402602001604051908101604052809291908181526020018280546123cf906140b8565b801561241c5780601f106123f15761010080835404028352916020019161241c565b820191906000526020600020905b8154815290600101906020018083116123ff57829003601f168201915b505050505090806004018054612431906140b8565b80601f016020809104026020016040519081016040528092919081815260200182805461245d906140b8565b80156124aa5780601f1061247f576101008083540402835291602001916124aa565b820191906000526020600020905b81548152906001019060200180831161248d57829003601f168201915b5050505050908060050180546124bf906140b8565b80601f01602080910402602001604051908101604052809291908181526020018280546124eb906140b8565b80156125385780601f1061250d57610100808354040283529160200191612538565b820191906000526020600020905b81548152906001019060200180831161251b57829003601f168201915b50505050509080600601805461254d906140b8565b80601f0160208091040260200160405190810160405280929190818152602001828054612579906140b8565b80156125c65780601f1061259b576101008083540402835291602001916125c6565b820191906000526020600020905b8154815290600101906020018083116125a957829003601f168201915b5050505050905087565b60606000805467ffffffffffffffff811115612615577f4e487b7100000000000000000000000000000000000000000000000000000000600052604160045260246000fd5b60405190808252806020026020018201604052801561264e57816020015b61263b61301c565b8152602001906001900390816126335790505b50905060005b600054811015612ce857600360008281526020019081526020016000206040518061018001604052908160008201548152602001600182018054612697906140b8565b80601f01602080910402602001604051908101604052809291908181526020018280546126c3906140b8565b80156127105780601f106126e557610100808354040283529160200191612710565b820191906000526020600020905b8154815290600101906020018083116126f357829003601f168201915b50505050508152602001600282018054612729906140b8565b80601f0160208091040260200160405190810160405280929190818152602001828054612755906140b8565b80156127a25780601f10612777576101008083540402835291602001916127a2565b820191906000526020600020905b81548152906001019060200180831161278557829003601f168201915b505050505081526020016003820180546127bb906140b8565b80601f01602080910402602001604051908101604052809291908181526020018280546127e7906140b8565b80156128345780601f1061280957610100808354040283529160200191612834565b820191906000526020600020905b81548152906001019060200180831161281757829003601f168201915b5050505050815260200160048201805461284d906140b8565b80601f0160208091040260200160405190810160405280929190818152602001828054612879906140b8565b80156128c65780601f1061289b576101008083540402835291602001916128c6565b820191906000526020600020905b8154815290600101906020018083116128a957829003601f168201915b505050505081526020016005820180546128df906140b8565b80601f016020809104026020016040519081016040528092919081815260200182805461290b906140b8565b80156129585780601f1061292d57610100808354040283529160200191612958565b820191906000526020600020905b81548152906001019060200180831161293b57829003601f168201915b50505050508152602001600682018054612971906140b8565b80601f016020809104026020016040519081016040528092919081815260200182805461299d906140b8565b80156129ea5780601f106129bf576101008083540402835291602001916129ea565b820191906000526020600020905b8154815290600101906020018083116129cd57829003601f168201915b50505050508152602001600782018054612a03906140b8565b80601f0160208091040260200160405190810160405280929190818152602001828054612a2f906140b8565b8015612a7c5780601f10612a5157610100808354040283529160200191612a7c565b820191906000526020600020905b815481529060010190602001808311612a5f57829003601f168201915b50505050508152602001600882018054612a95906140b8565b80601f0160208091040260200160405190810160405280929190818152602001828054612ac1906140b8565b8015612b0e5780601f10612ae357610100808354040283529160200191612b0e565b820191906000526020600020905b815481529060010190602001808311612af157829003601f168201915b50505050508152602001600982018054612b27906140b8565b80601f0160208091040260200160405190810160405280929190818152602001828054612b53906140b8565b8015612ba05780601f10612b7557610100808354040283529160200191612ba0565b820191906000526020600020905b815481529060010190602001808311612b8357829003601f168201915b50505050508152602001600a82018054612bb9906140b8565b80601f0160208091040260200160405190810160405280929190818152602001828054612be5906140b8565b8015612c325780601f10612c0757610100808354040283529160200191612c32565b820191906000526020600020905b815481529060010190602001808311612c1557829003601f168201915b50505050508152602001600b820160009054906101000a900473ffffffffffffffffffffffffffffffffffffffff1673ffffffffffffffffffffffffffffffffffffffff1673ffffffffffffffffffffffffffffffffffffffff1681525050828281518110612cca577f4e487b7100000000000000000000000000000000000000000000000000000000600052603260045260246000fd5b60200260200101819052508080612ce09061411b565b915050612654565b508091505090565b6001806000828254612d029190613fe4565b9250508190555060405180610160016040528060015481526020018781526020018681526020018481526020018581526020018381526020018281526020018a81526020018881526020018981526020013373ffffffffffffffffffffffffffffffffffffffff16815250600460006001548152602001908152602001600020600082015181600001556020820151816001019080519060200190612da8929190612f26565b506040820151816002019080519060200190612dc5929190612f26565b506060820151816003019080519060200190612de2929190612f26565b506080820151816004019080519060200190612dff929190612f26565b5060a0820151816005019080519060200190612e1c929190612f26565b5060c0820151816006019080519060200190612e39929190612f26565b5060e0820151816007019080519060200190612e56929190612f26565b50610100820151816008019080519060200190612e74929190612f26565b50610120820151816009019080519060200190612e92929190612f26565b5061014082015181600a0160006101000a81548173ffffffffffffffffffffffffffffffffffffffff021916908373ffffffffffffffffffffffffffffffffffffffff160217905550905050505050505050505050565b6040518060e00160405280600081526020016060815260200160608152602001606081526020016060815260200160608152602001606081525090565b828054612f32906140b8565b90600052602060002090601f016020900481019282612f545760008555612f9b565b82601f10612f6d57805160ff1916838001178555612f9b565b82800160010185558215612f9b579182015b82811115612f9a578251825591602001919060010190612f7f565b5b509050612fa89190613093565b5090565b60405180610160016040528060008152602001606081526020016060815260200160608152602001606081526020016060815260200160608152602001606081526020016060815260200160608152602001600073ffffffffffffffffffffffffffffffffffffffff1681525090565b6040518061018001604052806000815260200160608152602001606081526020016060815260200160608152602001606081526020016060815260200160608152602001606081526020016060815260200160608152602001600073ffffffffffffffffffffffffffffffffffffffff1681525090565b5b808211156130ac576000816000905550600101613094565b5090565b60006130c36130be84613edb565b613eb6565b9050828152602081018484840111156130db57600080fd5b6130e6848285614076565b509392505050565b600082601f8301126130ff57600080fd5b813561310f8482602086016130b0565b91505092915050565b60008135905061312781614202565b92915050565b60008060008060008060c0878903121561314657600080fd5b600087013567ffffffffffffffff81111561316057600080fd5b61316c89828a016130ee565b965050602087013567ffffffffffffffff81111561318957600080fd5b61319589828a016130ee565b955050604087013567ffffffffffffffff8111156131b257600080fd5b6131be89828a016130ee565b945050606087013567ffffffffffffffff8111156131db57600080fd5b6131e789828a016130ee565b935050608087013567ffffffffffffffff81111561320457600080fd5b61321089828a016130ee565b92505060a087013567ffffffffffffffff81111561322d57600080fd5b61323989828a016130ee565b9150509295509295509295565b60008060008060008060008060006101208a8c03121561326557600080fd5b60008a013567ffffffffffffffff81111561327f57600080fd5b61328b8c828d016130ee565b99505060208a013567ffffffffffffffff8111156132a857600080fd5b6132b48c828d016130ee565b98505060408a013567ffffffffffffffff8111156132d157600080fd5b6132dd8c828d016130ee565b97505060608a013567ffffffffffffffff8111156132fa57600080fd5b6133068c828d016130ee565b96505060808a013567ffffffffffffffff81111561332357600080fd5b61332f8c828d016130ee565b95505060a08a013567ffffffffffffffff81111561334c57600080fd5b6133588c828d016130ee565b94505060c08a013567ffffffffffffffff81111561337557600080fd5b6133818c828d016130ee565b93505060e08a013567ffffffffffffffff81111561339e57600080fd5b6133aa8c828d016130ee565b9250506101008a013567ffffffffffffffff8111156133c857600080fd5b6133d48c828d016130ee565b9150509295985092959850929598565b6000806000806000806000806000806101408b8d03121561340457600080fd5b60008b013567ffffffffffffffff81111561341e57600080fd5b61342a8d828e016130ee565b9a505060208b013567ffffffffffffffff81111561344757600080fd5b6134538d828e016130ee565b99505060408b013567ffffffffffffffff81111561347057600080fd5b61347c8d828e016130ee565b98505060608b013567ffffffffffffffff81111561349957600080fd5b6134a58d828e016130ee565b97505060808b013567ffffffffffffffff8111156134c257600080fd5b6134ce8d828e016130ee565b96505060a08b013567ffffffffffffffff8111156134eb57600080fd5b6134f78d828e016130ee565b95505060c08b013567ffffffffffffffff81111561351457600080fd5b6135208d828e016130ee565b94505060e08b013567ffffffffffffffff81111561353d57600080fd5b6135498d828e016130ee565b9350506101008b013567ffffffffffffffff81111561356757600080fd5b6135738d828e016130ee565b9250506101208b013567ffffffffffffffff81111561359157600080fd5b61359d8d828e016130ee565b9150509295989b9194979a5092959850565b6000602082840312156135c157600080fd5b60006135cf84828501613118565b91505092915050565b60006135e48383613803565b905092915050565b60006135f88383613946565b905092915050565b600061360c8383613a6d565b905092915050565b61361d8161403a565b82525050565b61362c8161403a565b82525050565b600061363d82613f3c565b6136478185613f8f565b93508360208202850161365985613f0c565b8060005b85811015613695578484038952815161367685826135d8565b945061368183613f68565b925060208a0199505060018101905061365d565b50829750879550505050505092915050565b60006136b282613f47565b6136bc8185613fa0565b9350836020820285016136ce85613f1c565b8060005b8581101561370a57848403895281516136eb85826135ec565b94506136f683613f75565b925060208a019950506001810190506136d2565b50829750879550505050505092915050565b600061372782613f52565b6137318185613fb1565b93508360208202850161374385613f2c565b8060005b8581101561377f57848403895281516137608582613600565b945061376b83613f82565b925060208a01995050600181019050613747565b50829750879550505050505092915050565b600061379c82613f5d565b6137a68185613fc2565b93506137b6818560208601614085565b6137bf816141f1565b840191505092915050565b60006137d582613f5d565b6137df8185613fd3565b93506137ef818560208601614085565b6137f8816141f1565b840191505092915050565b60006101808301600083015161381c6000860182613b2c565b50602083015184820360208601526138348282613791565b9150506040830151848203604086015261384e8282613791565b915050606083015184820360608601526138688282613791565b915050608083015184820360808601526138828282613791565b91505060a083015184820360a086015261389c8282613791565b91505060c083015184820360c08601526138b68282613791565b91505060e083015184820360e08601526138d08282613791565b9150506101008301518482036101008601526138ec8282613791565b9150506101208301518482036101208601526139088282613791565b9150506101408301518482036101408601526139248282613791565b91505061016083015161393b610160860182613614565b508091505092915050565b60006101608301600083015161395f6000860182613b2c565b50602083015184820360208601526139778282613791565b915050604083015184820360408601526139918282613791565b915050606083015184820360608601526139ab8282613791565b915050608083015184820360808601526139c58282613791565b91505060a083015184820360a08601526139df8282613791565b91505060c083015184820360c08601526139f98282613791565b91505060e083015184820360e0860152613a138282613791565b915050610100830151848203610100860152613a2f8282613791565b915050610120830151848203610120860152613a4b8282613791565b915050610140830151613a62610140860182613614565b508091505092915050565b600060e083016000830151613a856000860182613b2c565b5060208301518482036020860152613a9d8282613791565b91505060408301518482036040860152613ab78282613791565b91505060608301518482036060860152613ad18282613791565b91505060808301518482036080860152613aeb8282613791565b91505060a083015184820360a0860152613b058282613791565b91505060c083015184820360c0860152613b1f8282613791565b9150508091505092915050565b613b358161406c565b82525050565b613b448161406c565b82525050565b60006020820190508181036000830152613b648184613632565b905092915050565b60006020820190508181036000830152613b8681846136a7565b905092915050565b60006020820190508181036000830152613ba8818461371c565b905092915050565b60006020820190508181036000830152613bca81846137ca565b905092915050565b60006080820190508181036000830152613bec81876137ca565b90508181036020830152613c0081866137ca565b90508181036040830152613c1481856137ca565b90508181036060830152613c2881846137ca565b905095945050505050565b600060e082019050613c48600083018a613b3b565b8181036020830152613c5a81896137ca565b90508181036040830152613c6e81886137ca565b90508181036060830152613c8281876137ca565b90508181036080830152613c9681866137ca565b905081810360a0830152613caa81856137ca565b905081810360c0830152613cbe81846137ca565b905098975050505050505050565b600061016082019050613ce2600083018e613b3b565b8181036020830152613cf4818d6137ca565b90508181036040830152613d08818c6137ca565b90508181036060830152613d1c818b6137ca565b90508181036080830152613d30818a6137ca565b905081810360a0830152613d4481896137ca565b905081810360c0830152613d5881886137ca565b905081810360e0830152613d6c81876137ca565b9050818103610100830152613d8181866137ca565b9050818103610120830152613d9681856137ca565b9050613da6610140830184613623565b9c9b505050505050505050505050565b600061018082019050613dcc600083018f613b3b565b8181036020830152613dde818e6137ca565b90508181036040830152613df2818d6137ca565b90508181036060830152613e06818c6137ca565b90508181036080830152613e1a818b6137ca565b905081810360a0830152613e2e818a6137ca565b905081810360c0830152613e4281896137ca565b905081810360e0830152613e5681886137ca565b9050818103610100830152613e6b81876137ca565b9050818103610120830152613e8081866137ca565b9050818103610140830152613e9581856137ca565b9050613ea5610160830184613623565b9d9c50505050505050505050505050565b6000613ec0613ed1565b9050613ecc82826140ea565b919050565b6000604051905090565b600067ffffffffffffffff821115613ef657613ef56141c2565b5b613eff826141f1565b9050602081019050919050565b6000819050602082019050919050565b6000819050602082019050919050565b6000819050602082019050919050565b600081519050919050565b600081519050919050565b600081519050919050565b600081519050919050565b6000602082019050919050565b6000602082019050919050565b6000602082019050919050565b600082825260208201905092915050565b600082825260208201905092915050565b600082825260208201905092915050565b600082825260208201905092915050565b600082825260208201905092915050565b6000613fef8261406c565b9150613ffa8361406c565b9250827fffffffffffffffffffffffffffffffffffffffffffffffffffffffffffffffff0382111561402f5761402e614164565b5b828201905092915050565b60006140458261404c565b9050919050565b600073ffffffffffffffffffffffffffffffffffffffff82169050919050565b6000819050919050565b82818337600083830152505050565b60005b838110156140a3578082015181840152602081019050614088565b838111156140b2576000848401525b50505050565b600060028204905060018216806140d057607f821691505b602082108114156140e4576140e3614193565b5b50919050565b6140f3826141f1565b810181811067ffffffffffffffff82111715614112576141116141c2565b5b80604052505050565b60006141268261406c565b91507fffffffffffffffffffffffffffffffffffffffffffffffffffffffffffffffff82141561415957614158614164565b5b600182019050919050565b7f4e487b7100000000000000000000000000000000000000000000000000000000600052601160045260246000fd5b7f4e487b7100000000000000000000000000000000000000000000000000000000600052602260045260246000fd5b7f4e487b7100000000000000000000000000000000000000000000000000000000600052604160045260246000fd5b6000601f19601f8301169050919050565b61420b8161406c565b811461421657600080fd5b5056fea26469706673582212203f4474cce3c80fb189a4e3820ba3fd0311404d31a0fc4218ea060904d9ab3c2164736f6c63430008040033",
  "immutableReferences": {},
  "source": "// SPDX-License-Identifier: MIT\r\npragma solidity ^0.8.4;\r\n\r\ncontract RegisterationContract{\r\n    uint256 doctor_count = 0;\r\n    uint256 patient_count=0;\r\n    uint256 appointment_count=0;\r\n    mapping(uint => Doctor) public Doctors;\r\n    mapping(uint => Patient) public Patient_list;\r\n    mapping(uint => _Appointment) public Appointments;\r\n\r\n    struct Doctor {\r\n        uint doc_id;\r\n        string _firstName;\r\n        string _lastName;\r\n        string Contact_number;\r\n        string Emergency_number;\r\n        string _address;\r\n        string email;\r\n        string dob;\r\n        string martial_status;\r\n        string sex;\r\n        string qualification;\r\n        address AccountAddress;\r\n    }\r\n    struct Patient{\r\n        uint _id;\r\n        string _firstName;\r\n        string _lastName;\r\n        string Contact_number;\r\n        string Emergency_number;\r\n        string _address;\r\n        string email;\r\n        string dob;\r\n        string martial_status;\r\n        string sex;\r\n        address AccountAddress;\r\n    }\r\n\r\n    struct _Appointment{\r\n        uint _id;\r\n        string Doctor_name;\r\n        string Patient_name;\r\n        string doc_email;\r\n        string patient_email;\r\n        string Appointment_time;\r\n        string Appointment_reason;\r\n    }\r\n    \r\n    function Add_Doctor(string memory qualification,string memory dob,string memory sex,string memory martial_status,string memory _firstName, string memory _lastName,string memory emergency_num,string memory contact_num, string memory _Address,string memory email)  \r\n    public {\r\n    // address senderAddress=msg.sender;\r\n    doctor_count+=1;\r\n    Doctors[doctor_count]=Doctor(doctor_count,_firstName,_lastName, contact_num,emergency_num,_Address,email,dob,martial_status,sex,qualification,msg.sender);\r\n    }\r\n\r\n     function hello() public pure returns (string memory){\r\n        return \"Test\";\r\n    }\r\n    function Get_appointment(string memory doc_name,string memory patient_name,string memory Appoint_time,string memory reason,string memory doc_email,string memory patient_email) \r\n    public{\r\n        appointment_count+=1;\r\n        Appointments[appointment_count]=_Appointment(appointment_count,doc_name,patient_name,doc_email,patient_email,Appoint_time,reason);\r\n    }\r\n\r\n    function Register_patient(string memory dob,string memory sex,string memory martial_status,string memory _firstName, string memory _lastName,string memory emergency_num,string memory contact_num, string memory _Address,string memory email) public{\r\n        patient_count+=1;\r\n        Patient_list[patient_count]=Patient(patient_count,_firstName,_lastName,contact_num,emergency_num,_Address,email,dob,martial_status,sex,msg.sender);\r\n    }\r\n    function GetDoctor(uint id) public\r\n    returns(string memory fname,string memory lname,string memory qual,string memory contact)\r\n    {\r\n        Doctor memory p=Doctors[id];\r\n        return (p._firstName,p._lastName,p.qualification,p.Contact_number);\r\n    }\r\n    function getAll_Doctors() public view returns (Doctor[] memory){\r\n        Doctor[] memory ret = new Doctor[](doctor_count);\r\n        for (uint i = 0; i < doctor_count; i++) {\r\n            ret[i] = Doctors[i];\r\n        }\r\n        return ret;\r\n    }   \r\n    \r\n    function getAll_Patients() public view returns (Patient[] memory){\r\n        Patient[] memory ret = new Patient[](patient_count);\r\n        for (uint i = 0; i < patient_count; i++) {\r\n            ret[i] = Patient_list[i];\r\n        }\r\n        return ret;\r\n    }    \r\n    function getAll_Appointments() public view returns (_Appointment[] memory){\r\n        _Appointment[] memory ret = new _Appointment[](appointment_count);\r\n        for (uint i = 0; i < appointment_count; i++) {\r\n            ret[i] = Appointments[i];\r\n            }\r\n        return ret;\r\n    }    \r\n}",
  "sourcePath": "F:\\Sem 7\\IBC\\Blockchain-Project-DAPP-Healthcare\\contracts\\RegisterationContract.sol",
  "compiler": {
    "name": "solc",
    "version": "0.8.4+commit.c7e474f2.Emscripten.clang"
  },
  "schemaVersion": "3.4.3",
  "updatedAt": "2021-12-21T17:04:12.842Z",
  "networkType": "ethereum",
  "devdoc": {
    "kind": "dev",
    "methods": {},
    "version": 1
  },
  "userdoc": {
    "kind": "user",
    "methods": {},
    "version": 1
  }
}