{
  "contractName": "RegisterationContract",
  "abi": [
    {
      "inputs": [
        {
          "internalType": "uint256",
          "name": "",
          "type": "uint256"
        }
      ],
      "name": "Appointments",
      "outputs": [
        {
          "internalType": "uint256",
          "name": "_id",
          "type": "uint256"
        },
        {
          "internalType": "string",
          "name": "Doctor_name",
          "type": "string"
        },
        {
          "internalType": "string",
          "name": "Patient_name",
          "type": "string"
        },
        {
          "internalType": "string",
          "name": "doc_email",
          "type": "string"
        },
        {
          "internalType": "string",
          "name": "patient_email",
          "type": "string"
        },
        {
          "internalType": "string",
          "name": "Appointment_time",
          "type": "string"
        },
        {
          "internalType": "string",
          "name": "Appointment_reason",
          "type": "string"
        }
      ],
      "stateMutability": "view",
      "type": "function"
    },
    {
      "inputs": [
        {
          "internalType": "uint256",
          "name": "",
          "type": "uint256"
        }
      ],
      "name": "Doctors",
      "outputs": [
        {
          "internalType": "uint256",
          "name": "doc_id",
          "type": "uint256"
        },
        {
          "internalType": "string",
          "name": "_firstName",
          "type": "string"
        },
        {
          "internalType": "string",
          "name": "_lastName",
          "type": "string"
        },
        {
          "internalType": "string",
          "name": "Contact_number",
          "type": "string"
        },
        {
          "internalType": "string",
          "name": "Emergency_number",
          "type": "string"
        },
        {
          "internalType": "string",
          "name": "_address",
          "type": "string"
        },
        {
          "internalType": "string",
          "name": "email",
          "type": "string"
        },
        {
          "internalType": "string",
          "name": "dob",
          "type": "string"
        },
        {
          "internalType": "string",
          "name": "martial_status",
          "type": "string"
        },
        {
          "internalType": "string",
          "name": "sex",
          "type": "string"
        },
        {
          "internalType": "string",
          "name": "qualification",
          "type": "string"
        },
        {
          "internalType": "address",
          "name": "AccountAddress",
          "type": "address"
        }
      ],
      "stateMutability": "view",
      "type": "function"
    },
    {
      "inputs": [
        {
          "internalType": "uint256",
          "name": "",
          "type": "uint256"
        }
      ],
      "name": "Patient_list",
      "outputs": [
        {
          "internalType": "uint256",
          "name": "_id",
          "type": "uint256"
        },
        {
          "internalType": "string",
          "name": "_firstName",
          "type": "string"
        },
        {
          "internalType": "string",
          "name": "_lastName",
          "type": "string"
        },
        {
          "internalType": "string",
          "name": "Contact_number",
          "type": "string"
        },
        {
          "internalType": "string",
          "name": "Emergency_number",
          "type": "string"
        },
        {
          "internalType": "string",
          "name": "_address",
          "type": "string"
        },
        {
          "internalType": "string",
          "name": "email",
          "type": "string"
        },
        {
          "internalType": "string",
          "name": "dob",
          "type": "string"
        },
        {
          "internalType": "string",
          "name": "martial_status",
          "type": "string"
        },
        {
          "internalType": "string",
          "name": "sex",
          "type": "string"
        },
        {
          "internalType": "address",
          "name": "AccountAddress",
          "type": "address"
        }
      ],
      "stateMutability": "view",
      "type": "function"
    },
    {
      "inputs": [
        {
          "internalType": "string",
          "name": "qualification",
          "type": "string"
        },
        {
          "internalType": "string",
          "name": "dob",
          "type": "string"
        },
        {
          "internalType": "string",
          "name": "sex",
          "type": "string"
        },
        {
          "internalType": "string",
          "name": "martial_status",
          "type": "string"
        },
        {
          "internalType": "string",
          "name": "_firstName",
          "type": "string"
        },
        {
          "internalType": "string",
          "name": "_lastName",
          "type": "string"
        },
        {
          "internalType": "string",
          "name": "emergency_num",
          "type": "string"
        },
        {
          "internalType": "string",
          "name": "contact_num",
          "type": "string"
        },
        {
          "internalType": "string",
          "name": "_Address",
          "type": "string"
        },
        {
          "internalType": "string",
          "name": "email",
          "type": "string"
        }
      ],
      "name": "Add_Doctor",
      "outputs": [],
      "stateMutability": "nonpayable",
      "type": "function"
    },
    {
      "inputs": [],
      "name": "hello",
      "outputs": [
        {
          "internalType": "string",
          "name": "",
          "type": "string"
        }
      ],
      "stateMutability": "pure",
      "type": "function"
    },
    {
      "inputs": [
        {
          "internalType": "string",
          "name": "doc_name",
          "type": "string"
        },
        {
          "internalType": "string",
          "name": "patient_name",
          "type": "string"
        },
        {
          "internalType": "string",
          "name": "Appoint_time",
          "type": "string"
        },
        {
          "internalType": "string",
          "name": "reason",
          "type": "string"
        },
        {
          "internalType": "string",
          "name": "doc_email",
          "type": "string"
        },
        {
          "internalType": "string",
          "name": "patient_email",
          "type": "string"
        }
      ],
      "name": "Get_appointment",
      "outputs": [],
      "stateMutability": "nonpayable",
      "type": "function"
    },
    {
      "inputs": [
        {
          "internalType": "string",
          "name": "dob",
          "type": "string"
        },
        {
          "internalType": "string",
          "name": "sex",
          "type": "string"
        },
        {
          "internalType": "string",
          "name": "martial_status",
          "type": "string"
        },
        {
          "internalType": "string",
          "name": "_firstName",
          "type": "string"
        },
        {
          "internalType": "string",
          "name": "_lastName",
          "type": "string"
        },
        {
          "internalType": "string",
          "name": "emergency_num",
          "type": "string"
        },
        {
          "internalType": "string",
          "name": "contact_num",
          "type": "string"
        },
        {
          "internalType": "string",
          "name": "_Address",
          "type": "string"
        },
        {
          "internalType": "string",
          "name": "email",
          "type": "string"
        }
      ],
      "name": "Register_patient",
      "outputs": [],
      "stateMutability": "nonpayable",
      "type": "function"
    },
    {
      "inputs": [
        {
          "internalType": "uint256",
          "name": "id",
          "type": "uint256"
        }
      ],
      "name": "GetDoctor",
      "outputs": [
        {
          "internalType": "string",
          "name": "fname",
          "type": "string"
        },
        {
          "internalType": "string",
          "name": "lname",
          "type": "string"
        },
        {
          "internalType": "string",
          "name": "qual",
          "type": "string"
        },
        {
          "internalType": "string",
          "name": "contact",
          "type": "string"
        }
      ],
      "stateMutability": "nonpayable",
      "type": "function"
    },
    {
      "inputs": [
        {
          "internalType": "uint256",
          "name": "id",
          "type": "uint256"
        }
      ],
      "name": "AppointmentInfo",
      "outputs": [
        {
          "internalType": "string",
          "name": "dname",
          "type": "string"
        },
        {
          "internalType": "string",
          "name": "pname",
          "type": "string"
        },
        {
          "internalType": "string",
          "name": "email",
          "type": "string"
        },
        {
          "internalType": "string",
          "name": "time",
          "type": "string"
        },
        {
          "internalType": "string",
          "name": "reason",
          "type": "string"
        }
      ],
      "stateMutability": "nonpayable",
      "type": "function"
    },
    {
      "inputs": [],
      "name": "getAll_Doctors",
      "outputs": [
        {
          "components": [
            {
              "internalType": "uint256",
              "name": "doc_id",
              "type": "uint256"
            },
            {
              "internalType": "string",
              "name": "_firstName",
              "type": "string"
            },
            {
              "internalType": "string",
              "name": "_lastName",
              "type": "string"
            },
            {
              "internalType": "string",
              "name": "Contact_number",
              "type": "string"
            },
            {
              "internalType": "string",
              "name": "Emergency_number",
              "type": "string"
            },
            {
              "internalType": "string",
              "name": "_address",
              "type": "string"
            },
            {
              "internalType": "string",
              "name": "email",
              "type": "string"
            },
            {
              "internalType": "string",
              "name": "dob",
              "type": "string"
            },
            {
              "internalType": "string",
              "name": "martial_status",
              "type": "string"
            },
            {
              "internalType": "string",
              "name": "sex",
              "type": "string"
            },
            {
              "internalType": "string",
              "name": "qualification",
              "type": "string"
            },
            {
              "internalType": "address",
              "name": "AccountAddress",
              "type": "address"
            }
          ],
          "internalType": "struct RegisterationContract.Doctor[]",
          "name": "",
          "type": "tuple[]"
        }
      ],
      "stateMutability": "view",
      "type": "function"
    },
    {
      "inputs": [],
      "name": "getAll_Patients",
      "outputs": [
        {
          "components": [
            {
              "internalType": "uint256",
              "name": "_id",
              "type": "uint256"
            },
            {
              "internalType": "string",
              "name": "_firstName",
              "type": "string"
            },
            {
              "internalType": "string",
              "name": "_lastName",
              "type": "string"
            },
            {
              "internalType": "string",
              "name": "Contact_number",
              "type": "string"
            },
            {
              "internalType": "string",
              "name": "Emergency_number",
              "type": "string"
            },
            {
              "internalType": "string",
              "name": "_address",
              "type": "string"
            },
            {
              "internalType": "string",
              "name": "email",
              "type": "string"
            },
            {
              "internalType": "string",
              "name": "dob",
              "type": "string"
            },
            {
              "internalType": "string",
              "name": "martial_status",
              "type": "string"
            },
            {
              "internalType": "string",
              "name": "sex",
              "type": "string"
            },
            {
              "internalType": "address",
              "name": "AccountAddress",
              "type": "address"
            }
          ],
          "internalType": "struct RegisterationContract.Patient[]",
          "name": "",
          "type": "tuple[]"
        }
      ],
      "stateMutability": "view",
      "type": "function"
    },
    {
      "inputs": [],
      "name": "getAll_Appointments",
      "outputs": [
        {
          "components": [
            {
              "internalType": "uint256",
              "name": "_id",
              "type": "uint256"
            },
            {
              "internalType": "string",
              "name": "Doctor_name",
              "type": "string"
            },
            {
              "internalType": "string",
              "name": "Patient_name",
              "type": "string"
            },
            {
              "internalType": "string",
              "name": "doc_email",
              "type": "string"
            },
            {
              "internalType": "string",
              "name": "patient_email",
              "type": "string"
            },
            {
              "internalType": "string",
              "name": "Appointment_time",
              "type": "string"
            },
            {
              "internalType": "string",
              "name": "Appointment_reason",
              "type": "string"
            }
          ],
          "internalType": "struct RegisterationContract._Appointment[]",
          "name": "",
          "type": "tuple[]"
        }
      ],
      "stateMutability": "view",
      "type": "function"
    }
  ],
  "bytecode": "0x6080604052600080556000600155600060025534801561001e57600080fd5b506146d18061002e6000396000f3fe608060405234801561001057600080fd5b50600436106100b45760003560e01c806366a336261161007157806366a33626146101a4578063897a84f4146101d8578063deb3f445146101f4578063e13f657514610227578063e47cb5ef1461025d578063f83e7a391461027b576100b4565b80630b390d61146100b957806319ff1d21146100d757806327151672146100f55780632e2a5ea614610130578063508693821461016a578063560df47e14610186575b600080fd5b6100c1610297565b6040516100ce9190613f9a565b60405180910390f35b6100df610719565b6040516100ec9190613fbc565b60405180910390f35b61010f600480360381019061010a91906139bb565b610756565b6040516101279c9b9a99989796959493929190614238565b60405180910390f35b61014a600480360381019061014591906139bb565b610d26565b6040516101619b9a9998979695949392919061414e565b60405180910390f35b610184600480360381019061017f9190613539565b611268565b005b61018e61138f565b60405161019b9190613f78565b60405180910390f35b6101be60048036038101906101b991906139bb565b611a1e565b6040516101cf95949392919061403f565b60405180910390f35b6101f260048036038101906101ed91906137f0565b611deb565b005b61020e600480360381019061020991906139bb565b612008565b60405161021e9493929190613fde565b60405180910390f35b610241600480360381019061023c91906139bb565b61266a565b60405161025497969594939291906140b5565b60405180910390f35b6102656129dc565b6040516102729190613f56565b60405180910390f35b61029560048036038101906102909190613652565b6130fc565b005b6060600060025467ffffffffffffffff8111156102dd577f4e487b7100000000000000000000000000000000000000000000000000000000600052604160045260246000fd5b60405190808252806020026020018201604052801561031657816020015b6103036132f5565b8152602001906001900390816102fb5790505b50905060005b60025481101561071157600560008281526020019081526020016000206040518060e00160405290816000820154815260200160018201805461035e9061453a565b80601f016020809104026020016040519081016040528092919081815260200182805461038a9061453a565b80156103d75780601f106103ac576101008083540402835291602001916103d7565b820191906000526020600020905b8154815290600101906020018083116103ba57829003601f168201915b505050505081526020016002820180546103f09061453a565b80601f016020809104026020016040519081016040528092919081815260200182805461041c9061453a565b80156104695780601f1061043e57610100808354040283529160200191610469565b820191906000526020600020905b81548152906001019060200180831161044c57829003601f168201915b505050505081526020016003820180546104829061453a565b80601f01602080910402602001604051908101604052809291908181526020018280546104ae9061453a565b80156104fb5780601f106104d0576101008083540402835291602001916104fb565b820191906000526020600020905b8154815290600101906020018083116104de57829003601f168201915b505050505081526020016004820180546105149061453a565b80601f01602080910402602001604051908101604052809291908181526020018280546105409061453a565b801561058d5780601f106105625761010080835404028352916020019161058d565b820191906000526020600020905b81548152906001019060200180831161057057829003601f168201915b505050505081526020016005820180546105a69061453a565b80601f01602080910402602001604051908101604052809291908181526020018280546105d29061453a565b801561061f5780601f106105f45761010080835404028352916020019161061f565b820191906000526020600020905b81548152906001019060200180831161060257829003601f168201915b505050505081526020016006820180546106389061453a565b80601f01602080910402602001604051908101604052809291908181526020018280546106649061453a565b80156106b15780601f10610686576101008083540402835291602001916106b1565b820191906000526020600020905b81548152906001019060200180831161069457829003601f168201915b5050505050815250508282815181106106f3577f4e487b7100000000000000000000000000000000000000000000000000000000600052603260045260246000fd5b602002602001018190525080806107099061459d565b91505061031c565b508091505090565b60606040518060400160405280600481526020017f5465737400000000000000000000000000000000000000000000000000000000815250905090565b600360205280600052604060002060009150905080600001549080600101805461077f9061453a565b80601f01602080910402602001604051908101604052809291908181526020018280546107ab9061453a565b80156107f85780601f106107cd576101008083540402835291602001916107f8565b820191906000526020600020905b8154815290600101906020018083116107db57829003601f168201915b50505050509080600201805461080d9061453a565b80601f01602080910402602001604051908101604052809291908181526020018280546108399061453a565b80156108865780601f1061085b57610100808354040283529160200191610886565b820191906000526020600020905b81548152906001019060200180831161086957829003601f168201915b50505050509080600301805461089b9061453a565b80601f01602080910402602001604051908101604052809291908181526020018280546108c79061453a565b80156109145780601f106108e957610100808354040283529160200191610914565b820191906000526020600020905b8154815290600101906020018083116108f757829003601f168201915b5050505050908060040180546109299061453a565b80601f01602080910402602001604051908101604052809291908181526020018280546109559061453a565b80156109a25780601f10610977576101008083540402835291602001916109a2565b820191906000526020600020905b81548152906001019060200180831161098557829003601f168201915b5050505050908060050180546109b79061453a565b80601f01602080910402602001604051908101604052809291908181526020018280546109e39061453a565b8015610a305780601f10610a0557610100808354040283529160200191610a30565b820191906000526020600020905b815481529060010190602001808311610a1357829003601f168201915b505050505090806006018054610a459061453a565b80601f0160208091040260200160405190810160405280929190818152602001828054610a719061453a565b8015610abe5780601f10610a9357610100808354040283529160200191610abe565b820191906000526020600020905b815481529060010190602001808311610aa157829003601f168201915b505050505090806007018054610ad39061453a565b80601f0160208091040260200160405190810160405280929190818152602001828054610aff9061453a565b8015610b4c5780601f10610b2157610100808354040283529160200191610b4c565b820191906000526020600020905b815481529060010190602001808311610b2f57829003601f168201915b505050505090806008018054610b619061453a565b80601f0160208091040260200160405190810160405280929190818152602001828054610b8d9061453a565b8015610bda5780601f10610baf57610100808354040283529160200191610bda565b820191906000526020600020905b815481529060010190602001808311610bbd57829003601f168201915b505050505090806009018054610bef9061453a565b80601f0160208091040260200160405190810160405280929190818152602001828054610c1b9061453a565b8015610c685780601f10610c3d57610100808354040283529160200191610c68565b820191906000526020600020905b815481529060010190602001808311610c4b57829003601f168201915b50505050509080600a018054610c7d9061453a565b80601f0160208091040260200160405190810160405280929190818152602001828054610ca99061453a565b8015610cf65780601f10610ccb57610100808354040283529160200191610cf6565b820191906000526020600020905b815481529060010190602001808311610cd957829003601f168201915b50505050509080600b0160009054906101000a900473ffffffffffffffffffffffffffffffffffffffff1690508c565b6004602052806000526040600020600091509050806000015490806001018054610d4f9061453a565b80601f0160208091040260200160405190810160405280929190818152602001828054610d7b9061453a565b8015610dc85780601f10610d9d57610100808354040283529160200191610dc8565b820191906000526020600020905b815481529060010190602001808311610dab57829003601f168201915b505050505090806002018054610ddd9061453a565b80601f0160208091040260200160405190810160405280929190818152602001828054610e099061453a565b8015610e565780601f10610e2b57610100808354040283529160200191610e56565b820191906000526020600020905b815481529060010190602001808311610e3957829003601f168201915b505050505090806003018054610e6b9061453a565b80601f0160208091040260200160405190810160405280929190818152602001828054610e979061453a565b8015610ee45780601f10610eb957610100808354040283529160200191610ee4565b820191906000526020600020905b815481529060010190602001808311610ec757829003601f168201915b505050505090806004018054610ef99061453a565b80601f0160208091040260200160405190810160405280929190818152602001828054610f259061453a565b8015610f725780601f10610f4757610100808354040283529160200191610f72565b820191906000526020600020905b815481529060010190602001808311610f5557829003601f168201915b505050505090806005018054610f879061453a565b80601f0160208091040260200160405190810160405280929190818152602001828054610fb39061453a565b80156110005780601f10610fd557610100808354040283529160200191611000565b820191906000526020600020905b815481529060010190602001808311610fe357829003601f168201915b5050505050908060060180546110159061453a565b80601f01602080910402602001604051908101604052809291908181526020018280546110419061453a565b801561108e5780601f106110635761010080835404028352916020019161108e565b820191906000526020600020905b81548152906001019060200180831161107157829003601f168201915b5050505050908060070180546110a39061453a565b80601f01602080910402602001604051908101604052809291908181526020018280546110cf9061453a565b801561111c5780601f106110f15761010080835404028352916020019161111c565b820191906000526020600020905b8154815290600101906020018083116110ff57829003601f168201915b5050505050908060080180546111319061453a565b80601f016020809104026020016040519081016040528092919081815260200182805461115d9061453a565b80156111aa5780601f1061117f576101008083540402835291602001916111aa565b820191906000526020600020905b81548152906001019060200180831161118d57829003601f168201915b5050505050908060090180546111bf9061453a565b80601f01602080910402602001604051908101604052809291908181526020018280546111eb9061453a565b80156112385780601f1061120d57610100808354040283529160200191611238565b820191906000526020600020905b81548152906001019060200180831161121b57829003601f168201915b50505050509080600a0160009054906101000a900473ffffffffffffffffffffffffffffffffffffffff1690508b565b60016002600082825461127b9190614466565b925050819055506040518060e001604052806002548152602001878152602001868152602001838152602001828152602001858152602001848152506005600060025481526020019081526020016000206000820151816000015560208201518160010190805190602001906112f2929190613332565b50604082015181600201908051906020019061130f929190613332565b50606082015181600301908051906020019061132c929190613332565b506080820151816004019080519060200190611349929190613332565b5060a0820151816005019080519060200190611366929190613332565b5060c0820151816006019080519060200190611383929190613332565b50905050505050505050565b6060600060015467ffffffffffffffff8111156113d5577f4e487b7100000000000000000000000000000000000000000000000000000000600052604160045260246000fd5b60405190808252806020026020018201604052801561140e57816020015b6113fb6133b8565b8152602001906001900390816113f35790505b50905060005b600154811015611a16576004600082815260200190815260200160002060405180610160016040529081600082015481526020016001820180546114579061453a565b80601f01602080910402602001604051908101604052809291908181526020018280546114839061453a565b80156114d05780601f106114a5576101008083540402835291602001916114d0565b820191906000526020600020905b8154815290600101906020018083116114b357829003601f168201915b505050505081526020016002820180546114e99061453a565b80601f01602080910402602001604051908101604052809291908181526020018280546115159061453a565b80156115625780601f1061153757610100808354040283529160200191611562565b820191906000526020600020905b81548152906001019060200180831161154557829003601f168201915b5050505050815260200160038201805461157b9061453a565b80601f01602080910402602001604051908101604052809291908181526020018280546115a79061453a565b80156115f45780601f106115c9576101008083540402835291602001916115f4565b820191906000526020600020905b8154815290600101906020018083116115d757829003601f168201915b5050505050815260200160048201805461160d9061453a565b80601f01602080910402602001604051908101604052809291908181526020018280546116399061453a565b80156116865780601f1061165b57610100808354040283529160200191611686565b820191906000526020600020905b81548152906001019060200180831161166957829003601f168201915b5050505050815260200160058201805461169f9061453a565b80601f01602080910402602001604051908101604052809291908181526020018280546116cb9061453a565b80156117185780601f106116ed57610100808354040283529160200191611718565b820191906000526020600020905b8154815290600101906020018083116116fb57829003601f168201915b505050505081526020016006820180546117319061453a565b80601f016020809104026020016040519081016040528092919081815260200182805461175d9061453a565b80156117aa5780601f1061177f576101008083540402835291602001916117aa565b820191906000526020600020905b81548152906001019060200180831161178d57829003601f168201915b505050505081526020016007820180546117c39061453a565b80601f01602080910402602001604051908101604052809291908181526020018280546117ef9061453a565b801561183c5780601f106118115761010080835404028352916020019161183c565b820191906000526020600020905b81548152906001019060200180831161181f57829003601f168201915b505050505081526020016008820180546118559061453a565b80601f01602080910402602001604051908101604052809291908181526020018280546118819061453a565b80156118ce5780601f106118a3576101008083540402835291602001916118ce565b820191906000526020600020905b8154815290600101906020018083116118b157829003601f168201915b505050505081526020016009820180546118e79061453a565b80601f01602080910402602001604051908101604052809291908181526020018280546119139061453a565b80156119605780601f1061193557610100808354040283529160200191611960565b820191906000526020600020905b81548152906001019060200180831161194357829003601f168201915b50505050508152602001600a820160009054906101000a900473ffffffffffffffffffffffffffffffffffffffff1673ffffffffffffffffffffffffffffffffffffffff1673ffffffffffffffffffffffffffffffffffffffff16815250508282815181106119f8577f4e487b7100000000000000000000000000000000000000000000000000000000600052603260045260246000fd5b60200260200101819052508080611a0e9061459d565b915050611414565b508091505090565b60608060608060606000600560008881526020019081526020016000206040518060e001604052908160008201548152602001600182018054611a609061453a565b80601f0160208091040260200160405190810160405280929190818152602001828054611a8c9061453a565b8015611ad95780601f10611aae57610100808354040283529160200191611ad9565b820191906000526020600020905b815481529060010190602001808311611abc57829003601f168201915b50505050508152602001600282018054611af29061453a565b80601f0160208091040260200160405190810160405280929190818152602001828054611b1e9061453a565b8015611b6b5780601f10611b4057610100808354040283529160200191611b6b565b820191906000526020600020905b815481529060010190602001808311611b4e57829003601f168201915b50505050508152602001600382018054611b849061453a565b80601f0160208091040260200160405190810160405280929190818152602001828054611bb09061453a565b8015611bfd5780601f10611bd257610100808354040283529160200191611bfd565b820191906000526020600020905b815481529060010190602001808311611be057829003601f168201915b50505050508152602001600482018054611c169061453a565b80601f0160208091040260200160405190810160405280929190818152602001828054611c429061453a565b8015611c8f5780601f10611c6457610100808354040283529160200191611c8f565b820191906000526020600020905b815481529060010190602001808311611c7257829003601f168201915b50505050508152602001600582018054611ca89061453a565b80601f0160208091040260200160405190810160405280929190818152602001828054611cd49061453a565b8015611d215780601f10611cf657610100808354040283529160200191611d21565b820191906000526020600020905b815481529060010190602001808311611d0457829003601f168201915b50505050508152602001600682018054611d3a9061453a565b80601f0160208091040260200160405190810160405280929190818152602001828054611d669061453a565b8015611db35780601f10611d8857610100808354040283529160200191611db3565b820191906000526020600020905b815481529060010190602001808311611d9657829003601f168201915b50505050508152505090508060200151816040015182606001518360a001518460c00151955095509550955095505091939590929450565b6001600080828254611dfd9190614466565b9250508190555060405180610180016040528060005481526020018781526020018681526020018481526020018581526020018381526020018281526020018a81526020018881526020018981526020018b81526020013373ffffffffffffffffffffffffffffffffffffffff168152506003600080548152602001908152602001600020600082015181600001556020820151816001019080519060200190611ea8929190613332565b506040820151816002019080519060200190611ec5929190613332565b506060820151816003019080519060200190611ee2929190613332565b506080820151816004019080519060200190611eff929190613332565b5060a0820151816005019080519060200190611f1c929190613332565b5060c0820151816006019080519060200190611f39929190613332565b5060e0820151816007019080519060200190611f56929190613332565b50610100820151816008019080519060200190611f74929190613332565b50610120820151816009019080519060200190611f92929190613332565b5061014082015181600a019080519060200190611fb0929190613332565b5061016082015181600b0160006101000a81548173ffffffffffffffffffffffffffffffffffffffff021916908373ffffffffffffffffffffffffffffffffffffffff16021790555090505050505050505050505050565b60608060608060006003600087815260200190815260200160002060405180610180016040529081600082015481526020016001820180546120499061453a565b80601f01602080910402602001604051908101604052809291908181526020018280546120759061453a565b80156120c25780601f10612097576101008083540402835291602001916120c2565b820191906000526020600020905b8154815290600101906020018083116120a557829003601f168201915b505050505081526020016002820180546120db9061453a565b80601f01602080910402602001604051908101604052809291908181526020018280546121079061453a565b80156121545780601f1061212957610100808354040283529160200191612154565b820191906000526020600020905b81548152906001019060200180831161213757829003601f168201915b5050505050815260200160038201805461216d9061453a565b80601f01602080910402602001604051908101604052809291908181526020018280546121999061453a565b80156121e65780601f106121bb576101008083540402835291602001916121e6565b820191906000526020600020905b8154815290600101906020018083116121c957829003601f168201915b505050505081526020016004820180546121ff9061453a565b80601f016020809104026020016040519081016040528092919081815260200182805461222b9061453a565b80156122785780601f1061224d57610100808354040283529160200191612278565b820191906000526020600020905b81548152906001019060200180831161225b57829003601f168201915b505050505081526020016005820180546122919061453a565b80601f01602080910402602001604051908101604052809291908181526020018280546122bd9061453a565b801561230a5780601f106122df5761010080835404028352916020019161230a565b820191906000526020600020905b8154815290600101906020018083116122ed57829003601f168201915b505050505081526020016006820180546123239061453a565b80601f016020809104026020016040519081016040528092919081815260200182805461234f9061453a565b801561239c5780601f106123715761010080835404028352916020019161239c565b820191906000526020600020905b81548152906001019060200180831161237f57829003601f168201915b505050505081526020016007820180546123b59061453a565b80601f01602080910402602001604051908101604052809291908181526020018280546123e19061453a565b801561242e5780601f106124035761010080835404028352916020019161242e565b820191906000526020600020905b81548152906001019060200180831161241157829003601f168201915b505050505081526020016008820180546124479061453a565b80601f01602080910402602001604051908101604052809291908181526020018280546124739061453a565b80156124c05780601f10612495576101008083540402835291602001916124c0565b820191906000526020600020905b8154815290600101906020018083116124a357829003601f168201915b505050505081526020016009820180546124d99061453a565b80601f01602080910402602001604051908101604052809291908181526020018280546125059061453a565b80156125525780601f1061252757610100808354040283529160200191612552565b820191906000526020600020905b81548152906001019060200180831161253557829003601f168201915b50505050508152602001600a8201805461256b9061453a565b80601f01602080910402602001604051908101604052809291908181526020018280546125979061453a565b80156125e45780601f106125b9576101008083540402835291602001916125e4565b820191906000526020600020905b8154815290600101906020018083116125c757829003601f168201915b50505050508152602001600b820160009054906101000a900473ffffffffffffffffffffffffffffffffffffffff1673ffffffffffffffffffffffffffffffffffffffff1673ffffffffffffffffffffffffffffffffffffffff168152505090508060200151816040015182610140015183606001519450945094509450509193509193565b60056020528060005260406000206000915090508060000154908060010180546126939061453a565b80601f01602080910402602001604051908101604052809291908181526020018280546126bf9061453a565b801561270c5780601f106126e15761010080835404028352916020019161270c565b820191906000526020600020905b8154815290600101906020018083116126ef57829003601f168201915b5050505050908060020180546127219061453a565b80601f016020809104026020016040519081016040528092919081815260200182805461274d9061453a565b801561279a5780601f1061276f5761010080835404028352916020019161279a565b820191906000526020600020905b81548152906001019060200180831161277d57829003601f168201915b5050505050908060030180546127af9061453a565b80601f01602080910402602001604051908101604052809291908181526020018280546127db9061453a565b80156128285780601f106127fd57610100808354040283529160200191612828565b820191906000526020600020905b81548152906001019060200180831161280b57829003601f168201915b50505050509080600401805461283d9061453a565b80601f01602080910402602001604051908101604052809291908181526020018280546128699061453a565b80156128b65780601f1061288b576101008083540402835291602001916128b6565b820191906000526020600020905b81548152906001019060200180831161289957829003601f168201915b5050505050908060050180546128cb9061453a565b80601f01602080910402602001604051908101604052809291908181526020018280546128f79061453a565b80156129445780601f1061291957610100808354040283529160200191612944565b820191906000526020600020905b81548152906001019060200180831161292757829003601f168201915b5050505050908060060180546129599061453a565b80601f01602080910402602001604051908101604052809291908181526020018280546129859061453a565b80156129d25780601f106129a7576101008083540402835291602001916129d2565b820191906000526020600020905b8154815290600101906020018083116129b557829003601f168201915b5050505050905087565b60606000805467ffffffffffffffff811115612a21577f4e487b7100000000000000000000000000000000000000000000000000000000600052604160045260246000fd5b604051908082528060200260200182016040528015612a5a57816020015b612a47613428565b815260200190600190039081612a3f5790505b50905060005b6000548110156130f457600360008281526020019081526020016000206040518061018001604052908160008201548152602001600182018054612aa39061453a565b80601f0160208091040260200160405190810160405280929190818152602001828054612acf9061453a565b8015612b1c5780601f10612af157610100808354040283529160200191612b1c565b820191906000526020600020905b815481529060010190602001808311612aff57829003601f168201915b50505050508152602001600282018054612b359061453a565b80601f0160208091040260200160405190810160405280929190818152602001828054612b619061453a565b8015612bae5780601f10612b8357610100808354040283529160200191612bae565b820191906000526020600020905b815481529060010190602001808311612b9157829003601f168201915b50505050508152602001600382018054612bc79061453a565b80601f0160208091040260200160405190810160405280929190818152602001828054612bf39061453a565b8015612c405780601f10612c1557610100808354040283529160200191612c40565b820191906000526020600020905b815481529060010190602001808311612c2357829003601f168201915b50505050508152602001600482018054612c599061453a565b80601f0160208091040260200160405190810160405280929190818152602001828054612c859061453a565b8015612cd25780601f10612ca757610100808354040283529160200191612cd2565b820191906000526020600020905b815481529060010190602001808311612cb557829003601f168201915b50505050508152602001600582018054612ceb9061453a565b80601f0160208091040260200160405190810160405280929190818152602001828054612d179061453a565b8015612d645780601f10612d3957610100808354040283529160200191612d64565b820191906000526020600020905b815481529060010190602001808311612d4757829003601f168201915b50505050508152602001600682018054612d7d9061453a565b80601f0160208091040260200160405190810160405280929190818152602001828054612da99061453a565b8015612df65780601f10612dcb57610100808354040283529160200191612df6565b820191906000526020600020905b815481529060010190602001808311612dd957829003601f168201915b50505050508152602001600782018054612e0f9061453a565b80601f0160208091040260200160405190810160405280929190818152602001828054612e3b9061453a565b8015612e885780601f10612e5d57610100808354040283529160200191612e88565b820191906000526020600020905b815481529060010190602001808311612e6b57829003601f168201915b50505050508152602001600882018054612ea19061453a565b80601f0160208091040260200160405190810160405280929190818152602001828054612ecd9061453a565b8015612f1a5780601f10612eef57610100808354040283529160200191612f1a565b820191906000526020600020905b815481529060010190602001808311612efd57829003601f168201915b50505050508152602001600982018054612f339061453a565b80601f0160208091040260200160405190810160405280929190818152602001828054612f5f9061453a565b8015612fac5780601f10612f8157610100808354040283529160200191612fac565b820191906000526020600020905b815481529060010190602001808311612f8f57829003601f168201915b50505050508152602001600a82018054612fc59061453a565b80601f0160208091040260200160405190810160405280929190818152602001828054612ff19061453a565b801561303e5780601f106130135761010080835404028352916020019161303e565b820191906000526020600020905b81548152906001019060200180831161302157829003601f168201915b50505050508152602001600b820160009054906101000a900473ffffffffffffffffffffffffffffffffffffffff1673ffffffffffffffffffffffffffffffffffffffff1673ffffffffffffffffffffffffffffffffffffffff16815250508282815181106130d6577f4e487b7100000000000000000000000000000000000000000000000000000000600052603260045260246000fd5b602002602001018190525080806130ec9061459d565b915050612a60565b508091505090565b600180600082825461310e9190614466565b9250508190555060405180610160016040528060015481526020018781526020018681526020018481526020018581526020018381526020018281526020018a81526020018881526020018981526020013373ffffffffffffffffffffffffffffffffffffffff168152506004600060015481526020019081526020016000206000820151816000015560208201518160010190805190602001906131b4929190613332565b5060408201518160020190805190602001906131d1929190613332565b5060608201518160030190805190602001906131ee929190613332565b50608082015181600401908051906020019061320b929190613332565b5060a0820151816005019080519060200190613228929190613332565b5060c0820151816006019080519060200190613245929190613332565b5060e0820151816007019080519060200190613262929190613332565b50610100820151816008019080519060200190613280929190613332565b5061012082015181600901908051906020019061329e929190613332565b5061014082015181600a0160006101000a81548173ffffffffffffffffffffffffffffffffffffffff021916908373ffffffffffffffffffffffffffffffffffffffff160217905550905050505050505050505050565b6040518060e00160405280600081526020016060815260200160608152602001606081526020016060815260200160608152602001606081525090565b82805461333e9061453a565b90600052602060002090601f01602090048101928261336057600085556133a7565b82601f1061337957805160ff19168380011785556133a7565b828001600101855582156133a7579182015b828111156133a657825182559160200191906001019061338b565b5b5090506133b4919061349f565b5090565b60405180610160016040528060008152602001606081526020016060815260200160608152602001606081526020016060815260200160608152602001606081526020016060815260200160608152602001600073ffffffffffffffffffffffffffffffffffffffff1681525090565b6040518061018001604052806000815260200160608152602001606081526020016060815260200160608152602001606081526020016060815260200160608152602001606081526020016060815260200160608152602001600073ffffffffffffffffffffffffffffffffffffffff1681525090565b5b808211156134b85760008160009055506001016134a0565b5090565b60006134cf6134ca8461435d565b614338565b9050828152602081018484840111156134e757600080fd5b6134f28482856144f8565b509392505050565b600082601f83011261350b57600080fd5b813561351b8482602086016134bc565b91505092915050565b60008135905061353381614684565b92915050565b60008060008060008060c0878903121561355257600080fd5b600087013567ffffffffffffffff81111561356c57600080fd5b61357889828a016134fa565b965050602087013567ffffffffffffffff81111561359557600080fd5b6135a189828a016134fa565b955050604087013567ffffffffffffffff8111156135be57600080fd5b6135ca89828a016134fa565b945050606087013567ffffffffffffffff8111156135e757600080fd5b6135f389828a016134fa565b935050608087013567ffffffffffffffff81111561361057600080fd5b61361c89828a016134fa565b92505060a087013567ffffffffffffffff81111561363957600080fd5b61364589828a016134fa565b9150509295509295509295565b60008060008060008060008060006101208a8c03121561367157600080fd5b60008a013567ffffffffffffffff81111561368b57600080fd5b6136978c828d016134fa565b99505060208a013567ffffffffffffffff8111156136b457600080fd5b6136c08c828d016134fa565b98505060408a013567ffffffffffffffff8111156136dd57600080fd5b6136e98c828d016134fa565b97505060608a013567ffffffffffffffff81111561370657600080fd5b6137128c828d016134fa565b96505060808a013567ffffffffffffffff81111561372f57600080fd5b61373b8c828d016134fa565b95505060a08a013567ffffffffffffffff81111561375857600080fd5b6137648c828d016134fa565b94505060c08a013567ffffffffffffffff81111561378157600080fd5b61378d8c828d016134fa565b93505060e08a013567ffffffffffffffff8111156137aa57600080fd5b6137b68c828d016134fa565b9250506101008a013567ffffffffffffffff8111156137d457600080fd5b6137e08c828d016134fa565b9150509295985092959850929598565b6000806000806000806000806000806101408b8d03121561381057600080fd5b60008b013567ffffffffffffffff81111561382a57600080fd5b6138368d828e016134fa565b9a505060208b013567ffffffffffffffff81111561385357600080fd5b61385f8d828e016134fa565b99505060408b013567ffffffffffffffff81111561387c57600080fd5b6138888d828e016134fa565b98505060608b013567ffffffffffffffff8111156138a557600080fd5b6138b18d828e016134fa565b97505060808b013567ffffffffffffffff8111156138ce57600080fd5b6138da8d828e016134fa565b96505060a08b013567ffffffffffffffff8111156138f757600080fd5b6139038d828e016134fa565b95505060c08b013567ffffffffffffffff81111561392057600080fd5b61392c8d828e016134fa565b94505060e08b013567ffffffffffffffff81111561394957600080fd5b6139558d828e016134fa565b9350506101008b013567ffffffffffffffff81111561397357600080fd5b61397f8d828e016134fa565b9250506101208b013567ffffffffffffffff81111561399d57600080fd5b6139a98d828e016134fa565b9150509295989b9194979a5092959850565b6000602082840312156139cd57600080fd5b60006139db84828501613524565b91505092915050565b60006139f08383613c0f565b905092915050565b6000613a048383613d52565b905092915050565b6000613a188383613e79565b905092915050565b613a29816144bc565b82525050565b613a38816144bc565b82525050565b6000613a49826143be565b613a538185614411565b935083602082028501613a658561438e565b8060005b85811015613aa15784840389528151613a8285826139e4565b9450613a8d836143ea565b925060208a01995050600181019050613a69565b50829750879550505050505092915050565b6000613abe826143c9565b613ac88185614422565b935083602082028501613ada8561439e565b8060005b85811015613b165784840389528151613af785826139f8565b9450613b02836143f7565b925060208a01995050600181019050613ade565b50829750879550505050505092915050565b6000613b33826143d4565b613b3d8185614433565b935083602082028501613b4f856143ae565b8060005b85811015613b8b5784840389528151613b6c8582613a0c565b9450613b7783614404565b925060208a01995050600181019050613b53565b50829750879550505050505092915050565b6000613ba8826143df565b613bb28185614444565b9350613bc2818560208601614507565b613bcb81614673565b840191505092915050565b6000613be1826143df565b613beb8185614455565b9350613bfb818560208601614507565b613c0481614673565b840191505092915050565b600061018083016000830151613c286000860182613f38565b5060208301518482036020860152613c408282613b9d565b91505060408301518482036040860152613c5a8282613b9d565b91505060608301518482036060860152613c748282613b9d565b91505060808301518482036080860152613c8e8282613b9d565b91505060a083015184820360a0860152613ca88282613b9d565b91505060c083015184820360c0860152613cc28282613b9d565b91505060e083015184820360e0860152613cdc8282613b9d565b915050610100830151848203610100860152613cf88282613b9d565b915050610120830151848203610120860152613d148282613b9d565b915050610140830151848203610140860152613d308282613b9d565b915050610160830151613d47610160860182613a20565b508091505092915050565b600061016083016000830151613d6b6000860182613f38565b5060208301518482036020860152613d838282613b9d565b91505060408301518482036040860152613d9d8282613b9d565b91505060608301518482036060860152613db78282613b9d565b91505060808301518482036080860152613dd18282613b9d565b91505060a083015184820360a0860152613deb8282613b9d565b91505060c083015184820360c0860152613e058282613b9d565b91505060e083015184820360e0860152613e1f8282613b9d565b915050610100830151848203610100860152613e3b8282613b9d565b915050610120830151848203610120860152613e578282613b9d565b915050610140830151613e6e610140860182613a20565b508091505092915050565b600060e083016000830151613e916000860182613f38565b5060208301518482036020860152613ea98282613b9d565b91505060408301518482036040860152613ec38282613b9d565b91505060608301518482036060860152613edd8282613b9d565b91505060808301518482036080860152613ef78282613b9d565b91505060a083015184820360a0860152613f118282613b9d565b91505060c083015184820360c0860152613f2b8282613b9d565b9150508091505092915050565b613f41816144ee565b82525050565b613f50816144ee565b82525050565b60006020820190508181036000830152613f708184613a3e565b905092915050565b60006020820190508181036000830152613f928184613ab3565b905092915050565b60006020820190508181036000830152613fb48184613b28565b905092915050565b60006020820190508181036000830152613fd68184613bd6565b905092915050565b60006080820190508181036000830152613ff88187613bd6565b9050818103602083015261400c8186613bd6565b905081810360408301526140208185613bd6565b905081810360608301526140348184613bd6565b905095945050505050565b600060a08201905081810360008301526140598188613bd6565b9050818103602083015261406d8187613bd6565b905081810360408301526140818186613bd6565b905081810360608301526140958185613bd6565b905081810360808301526140a98184613bd6565b90509695505050505050565b600060e0820190506140ca600083018a613f47565b81810360208301526140dc8189613bd6565b905081810360408301526140f08188613bd6565b905081810360608301526141048187613bd6565b905081810360808301526141188186613bd6565b905081810360a083015261412c8185613bd6565b905081810360c08301526141408184613bd6565b905098975050505050505050565b600061016082019050614164600083018e613f47565b8181036020830152614176818d613bd6565b9050818103604083015261418a818c613bd6565b9050818103606083015261419e818b613bd6565b905081810360808301526141b2818a613bd6565b905081810360a08301526141c68189613bd6565b905081810360c08301526141da8188613bd6565b905081810360e08301526141ee8187613bd6565b90508181036101008301526142038186613bd6565b90508181036101208301526142188185613bd6565b9050614228610140830184613a2f565b9c9b505050505050505050505050565b60006101808201905061424e600083018f613f47565b8181036020830152614260818e613bd6565b90508181036040830152614274818d613bd6565b90508181036060830152614288818c613bd6565b9050818103608083015261429c818b613bd6565b905081810360a08301526142b0818a613bd6565b905081810360c08301526142c48189613bd6565b905081810360e08301526142d88188613bd6565b90508181036101008301526142ed8187613bd6565b90508181036101208301526143028186613bd6565b90508181036101408301526143178185613bd6565b9050614327610160830184613a2f565b9d9c50505050505050505050505050565b6000614342614353565b905061434e828261456c565b919050565b6000604051905090565b600067ffffffffffffffff82111561437857614377614644565b5b61438182614673565b9050602081019050919050565b6000819050602082019050919050565b6000819050602082019050919050565b6000819050602082019050919050565b600081519050919050565b600081519050919050565b600081519050919050565b600081519050919050565b6000602082019050919050565b6000602082019050919050565b6000602082019050919050565b600082825260208201905092915050565b600082825260208201905092915050565b600082825260208201905092915050565b600082825260208201905092915050565b600082825260208201905092915050565b6000614471826144ee565b915061447c836144ee565b9250827fffffffffffffffffffffffffffffffffffffffffffffffffffffffffffffffff038211156144b1576144b06145e6565b5b828201905092915050565b60006144c7826144ce565b9050919050565b600073ffffffffffffffffffffffffffffffffffffffff82169050919050565b6000819050919050565b82818337600083830152505050565b60005b8381101561452557808201518184015260208101905061450a565b83811115614534576000848401525b50505050565b6000600282049050600182168061455257607f821691505b6020821081141561456657614565614615565b5b50919050565b61457582614673565b810181811067ffffffffffffffff8211171561459457614593614644565b5b80604052505050565b60006145a8826144ee565b91507fffffffffffffffffffffffffffffffffffffffffffffffffffffffffffffffff8214156145db576145da6145e6565b5b600182019050919050565b7f4e487b7100000000000000000000000000000000000000000000000000000000600052601160045260246000fd5b7f4e487b7100000000000000000000000000000000000000000000000000000000600052602260045260246000fd5b7f4e487b7100000000000000000000000000000000000000000000000000000000600052604160045260246000fd5b6000601f19601f8301169050919050565b61468d816144ee565b811461469857600080fd5b5056fea2646970667358221220b5d80fac1f71ace24c41f4c8fa9ad0da8baeec55a382f4d98b03b5c2fa85664264736f6c63430008040033",
  "immutableReferences": {},
  "source": "// SPDX-License-Identifier: MIT\r\npragma solidity ^0.8.4;\r\n\r\ncontract RegisterationContract{\r\n    uint256 doctor_count = 0;\r\n    uint256 patient_count=0;\r\n    uint256 appointment_count=0;\r\n    mapping(uint => Doctor) public Doctors;\r\n    mapping(uint => Patient) public Patient_list;\r\n    mapping(uint => _Appointment) public Appointments;\r\n\r\n    struct Doctor {\r\n        uint doc_id;\r\n        string _firstName;\r\n        string _lastName;\r\n        string Contact_number;\r\n        string Emergency_number;\r\n        string _address;\r\n        string email;\r\n        string dob;\r\n        string martial_status;\r\n        string sex;\r\n        string qualification;\r\n        address AccountAddress;\r\n    }\r\n    struct Patient{\r\n        uint _id;\r\n        string _firstName;\r\n        string _lastName;\r\n        string Contact_number;\r\n        string Emergency_number;\r\n        string _address;\r\n        string email;\r\n        string dob;\r\n        string martial_status;\r\n        string sex;\r\n        address AccountAddress;\r\n    }\r\n\r\n    struct _Appointment{\r\n        uint _id;\r\n        string Doctor_name;\r\n        string Patient_name;\r\n        string doc_email;\r\n        string patient_email;\r\n        string Appointment_time;\r\n        string Appointment_reason;\r\n    }\r\n    \r\n    function Add_Doctor(string memory qualification,string memory dob,string memory sex,string memory martial_status,string memory _firstName, string memory _lastName,string memory emergency_num,string memory contact_num, string memory _Address,string memory email)  \r\n    public {\r\n    // address senderAddress=msg.sender;\r\n    doctor_count+=1;\r\n    Doctors[doctor_count]=Doctor(doctor_count,_firstName,_lastName, contact_num,emergency_num,_Address,email,dob,martial_status,sex,qualification,msg.sender);\r\n    }\r\n\r\n     function hello() public pure returns (string memory){\r\n        return \"Test\";\r\n    }\r\n    function Get_appointment(string memory doc_name,string memory patient_name,string memory Appoint_time,string memory reason,string memory doc_email,string memory patient_email) \r\n    public{\r\n        appointment_count+=1;\r\n        Appointments[appointment_count]=_Appointment(appointment_count,doc_name,patient_name,doc_email,patient_email,Appoint_time,reason);\r\n    }\r\n\r\n    function Register_patient(string memory dob,string memory sex,string memory martial_status,string memory _firstName, string memory _lastName,string memory emergency_num,string memory contact_num, string memory _Address,string memory email) public{\r\n        patient_count+=1;\r\n        Patient_list[patient_count]=Patient(patient_count,_firstName,_lastName,contact_num,emergency_num,_Address,email,dob,martial_status,sex,msg.sender);\r\n    }\r\n    function GetDoctor(uint id) public returns(string memory fname,string memory lname,string memory qual,string memory contact)\r\n    {\r\n        Doctor memory p=Doctors[id];\r\n        return (p._firstName,p._lastName,p.qualification,p.Contact_number);\r\n    }\r\n    function AppointmentInfo(uint id) public returns(string memory dname,string memory pname,string memory email,string memory time,string memory reason)\r\n    {\r\n        _Appointment memory app=Appointments[id];\r\n        return (app.Doctor_name,app.Patient_name,app.doc_email,app.Appointment_time,app.Appointment_reason);\r\n    }\r\n    function getAll_Doctors() public view returns (Doctor[] memory){\r\n        Doctor[] memory ret = new Doctor[](doctor_count);\r\n        for (uint i = 0; i < doctor_count; i++) {\r\n            ret[i] = Doctors[i];\r\n        }\r\n        return ret;\r\n    }   \r\n    \r\n    function getAll_Patients() public view returns (Patient[] memory){\r\n        Patient[] memory ret = new Patient[](patient_count);\r\n        for (uint i = 0; i < patient_count; i++) {\r\n            ret[i] = Patient_list[i];\r\n        }\r\n        return ret;\r\n    }    \r\n    function getAll_Appointments() public view returns (_Appointment[] memory){\r\n        _Appointment[] memory ret = new _Appointment[](appointment_count);\r\n        for (uint i = 0; i < appointment_count; i++) {\r\n            ret[i] = Appointments[i];\r\n            }\r\n        return ret;\r\n    }    \r\n}",
  "sourcePath": "F:\\Sem 7\\IBC\\Blockchain-Project-DAPP-Healthcare\\contracts\\RegisterationContract.sol",
  "compiler": {
    "name": "solc",
    "version": "0.8.4+commit.c7e474f2.Emscripten.clang"
  },
  "schemaVersion": "3.4.3",
  "updatedAt": "2021-12-21T20:27:26.806Z",
  "networkType": "ethereum",
  "devdoc": {
    "kind": "dev",
    "methods": {},
    "version": 1
  },
  "userdoc": {
    "kind": "user",
    "methods": {},
    "version": 1
  }
}